:1000000033C000001DC50000F8C40000D3C40000C8
:100010004BC00000ACC4000087C4000062C40000F4
:100020003DC4000018C40000F3C30000CEC30000AC
:10003000A9C30000A8C0000082C300005DC3000087
:1000400038C3000013C30000EEC20000C9C20000A4
:10005000A4C20000D7C000007DC2000058C200004A
:1000600033C200000EC2000011241FBECFEFD8E043
:10007000DEBFCDBF11E0A0E0B1E0EEE2FBE102C0E7
:1000800005900D92A230B107D9F721E0A2E0B1E0CE
:1000900001C01D92A038B207E1F70E947A0A0C94C1
:1000A000950D9895000008951F920F920FB60F922C
:1000B0001124AF92BF92CF92DF92EF92FF920F93F3
:1000C0001F932F933F934F935F936F937F938F93E0
:1000D0009F93AF93BF93EF93FF93329B3BC0F091FD
:1000E0007801E09179018F2F9E2F892B99F12F2F85
:1000F0003E2F40E050E060E070E080E090E0A090B3
:100100000201B0900301C0900401D0900501E0907D
:100110000601F090070100910801109109010E9469
:10012000610DB1E0A4E60E94730D11F008F0B0E09B
:10013000B0936701F0930201E09303011092040170
:100140001092050110920601109207011092080109
:1001500010920901FF91EF91BF91AF919F918F9103
:100160007F916F915F914F913F912F911F910F91CF
:10017000FF90EF90DF90CF90BF90AF900F900FBEA9
:100180000F901F9018951F920F920FB60F92112487
:100190002F933F934F935F936F937F938F939F938F
:1001A000AF93209178013091790140917A0150917B
:1001B0007B0160917C0170917D0180917E01909125
:1001C0007F01A1E00E94550D2093780130937901C1
:1001D00040937A0150937B0160937C0170937D0181
:1001E00080937E0190937F01AF919F918F917F913A
:1001F0006F915F914F913F912F910F900FBE0F9094
:100200001F9018951F920F920FB60F9211248F9284
:100210009F92AF92BF92CF92DF92EF92FF922F9375
:100220003F934F935F936F937F938F939F93AF937E
:10023000BF93CF93DF93EF93FF934091780080912A
:10024000790050E0582B809177014D33510518F01B
:10025000EA01EC9702C0C0E0D0E0909100019F5FFE
:1002600090930001943628F010920001823019F426
:1002700014C0823081F0833038F4813009F0E0C05E
:1002800082E080937701E2C0833009F46BC0843050
:1002900009F46CC0D5C09111D9C0C0907301D09041
:1002A0007401E0907501F0907601789420E030E0E0
:1002B000A901C701B6010E94C10BAE0160E070E068
:1002C0008823E9F0CB01BA010E94F60B2AE037ED52
:1002D00043EA5CE30E94A80C4B015C0128E431EE88
:1002E0004AE75FE3C701B6010E94A80C9B01AC017D
:1002F000C501B4010E945D0B4B015C0106C0CB013E
:10030000BA010E94F60B4B015C01C701B6010E94C5
:10031000CA0B9B01AC016DE278E88CE290E00E9490
:100320000B0D20E030ED42E050E00E941A0DF894F1
:100330008092730190927401A0927501B09276013F
:10034000309372012093710181E02430394208F02A
:1003500080E08093700188EC80937C0083E0809340
:10036000770174C084E08093770170C080910001B0
:1003700081116CC0C0906C01D0906D01E0906E0155
:10038000F0906F01789420E030E0A901C701B60138
:100390000E94C10BAE0160E070E08823D9F0CB0170
:1003A000BA010E94F60B2FE632E143E05BE30E94C4
:1003B000A80C4B015C012EEE3CE74FE75FE3C70161
:1003C000B6010E94A80C9B01AC01C501B4010E94BA
:1003D0005D0B04C0CB01BA010E94F60BF894609348
:1003E0006C0170936D0180936E0190936F0123EB0C
:1003F00030E445E953E40E945C0B20E030EA47E832
:100400005FE30E94A80C20E030E048EC51E40E9439
:100410005D0B20E030E048EC52E40E94A80C0E9402
:10042000C50B609368017093690180936A01909392
:100430006B0180EC80937C0081E08093770106C0A3
:1004400080EC80937C0081E080937701FF91EF91B5
:10045000DF91CF91BF91AF919F918F917F916F91DC
:100460005F914F913F912F91FF90EF90DF90CF9050
:10047000BF90AF909F908F900F900FBE0F901F90E6
:1004800018951F920F920FB60F9211242F933F933E
:100490004F935F936F937F938F939F93AF93BF938C
:1004A000EF93FF93FEDDFF91EF91BF91AF919F918D
:1004B0008F917F916F915F914F913F912F910F900D
:1004C0000FBE0F901F9018951F920F920FB60F92AC
:1004D00011242F933F934F935F936F937F938F9349
:1004E0009F93AF93BF93EF93FF93CBDFFF91EF9178
:1004F000BF91AF919F918F917F916F915F914F913C
:100500003F912F910F900FBE0F901F9018951F9243
:100510000F920FB60F9211242F933F934F935F9337
:100520006F937F938F939F93AF93BF93EF93FF93BB
:10053000A8DFFF91EF91BF91AF919F918F917F9134
:100540006F915F914F913F912F910F900FBE0F9040
:100550001F9018951F920F920FB60F9211242F9390
:100560003F934F935F936F937F938F939F93AF933B
:10057000BF93EF93FF9385DFFF91EF91BF91AF9111
:100580009F918F917F916F915F914F913F912F91AB
:100590000F900FBE0F901F9018951F920F920FB6DD
:1005A0000F9211242F933F934F935F936F937F93F9
:1005B0008F939F93AF93BF93EF93FF9362DFFF916E
:1005C000EF91BF91AF919F918F917F916F915F91CB
:1005D0004F913F912F910F900FBE0F901F90189544
:1005E0001F920F920FB60F9211242F933F934F93A8
:1005F0005F936F937F938F939F93AF93BF93EF938B
:10060000FF933FDFFF91EF91BF91AF919F918F914A
:100610007F916F915F914F913F912F910F900FBEFE
:100620000F901F9018951F920F920FB60F921124E2
:100630002F933F934F935F936F937F938F939F93EA
:10064000AF93BF93EF93FF931CDFFF91EF91BF91A7
:10065000AF919F918F917F916F915F914F913F915A
:100660002F910F900FBE0F901F9018951F920F9211
:100670000FB60F9211242F933F934F935F936F9375
:100680007F938F939F93AF93BF93EF93FF93F9DE85
:10069000FF91EF91BF91AF919F918F917F916F915A
:1006A0005F914F913F912F910F900FBE0F901F9030
:1006B00018951F920F920FB60F9211242F933F930C
:1006C0004F935F936F937F938F939F93AF93BF935A
:1006D000EF93FF93D6DEFF91EF91BF91AF919F9182
:1006E0008F917F916F915F914F913F912F910F90DB
:1006F0000FBE0F901F9018951F920F920FB60F927A
:1007000011242F933F934F935F936F937F938F9316
:100710009F93AF93BF93EF93FF93B3DEFF91EF915E
:10072000BF91AF919F918F917F916F915F914F9109
:100730003F912F910F900FBE0F901F9018951F9211
:100740000F920FB60F9211242F933F934F935F9305
:100750006F937F938F939F93AF93BF93EF93FF9389
:1007600090DEFF91EF91BF91AF919F918F917F911B
:100770006F915F914F913F912F910F900FBE0F900E
:100780001F9018951F920F920FB60F9211242F935E
:100790003F934F935F936F937F938F939F93AF9309
:1007A000BF93EF93FF936DDEFF91EF91BF91AF91F8
:1007B0009F918F917F916F915F914F913F912F9179
:1007C0000F900FBE0F901F9018951F920F920FB6AB
:1007D0000F9211242F933F934F935F936F937F93C7
:1007E0008F939F93AF93BF93EF93FF934ADEFF9155
:1007F000EF91BF91AF919F918F917F916F915F9199
:100800004F913F912F910F900FBE0F901F90189511
:100810001F920F920FB60F9211242F933F934F9375
:100820005F936F937F938F939F93AF93BF93EF9358
:10083000FF9327DEFF91EF91BF91AF919F918F9131
:100840007F916F915F914F913F912F910F900FBECC
:100850000F901F9018951F920F920FB60F921124B0
:100860002F933F934F935F936F937F938F939F93B8
:10087000AF93BF93EF93FF9304DEFF91EF91BF918E
:10088000AF919F918F917F916F915F914F913F9128
:100890002F910F900FBE0F901F9018951F920F92DF
:1008A0000FB60F9211242F933F934F935F936F9343
:1008B0007F938F939F93AF93BF93EF93FF93E1DD6C
:1008C000FF91EF91BF91AF919F918F917F916F9128
:1008D0005F914F913F912F910F900FBE0F901F90FE
:1008E00018951F920F920FB60F9211242F933F93DA
:1008F0004F935F936F937F938F939F93AF93BF9328
:10090000EF93FF93BEDDFF91EF91BF91AF919F9168
:100910008F917F916F915F914F913F912F910F90A8
:100920000FBE0F901F9018951F920F920FB60F9247
:1009300011242F933F934F935F936F937F938F93E4
:100940009F93AF93BF93EF93FF939BDDFF91EF9145
:10095000BF91AF919F918F917F916F915F914F91D7
:100960003F912F910F900FBE0F901F9018951F92DF
:100970000F920FB60F9211242F933F934F935F93D3
:100980006F937F938F939F93AF93BF93EF93FF9357
:1009900078DDFF91EF91BF91AF919F918F917F9102
:1009A0006F915F914F913F912F910F900FBE0F90DC
:1009B0001F9018951F920F920FB60F9211242F932C
:1009C0003F934F935F936F937F938F939F93AF93D7
:1009D000BF93EF93FF9355DDFF91EF91BF91AF91DF
:1009E0009F918F917F916F915F914F913F912F9147
:1009F0000F900FBE0F901F9018951F920F920FB679
:100A00000F9211242F933F934F935F936F937F9394
:100A10008F939F93AF93BF93EF93FF9332DDFF913B
:100A2000EF91BF91AF919F918F917F916F915F9166
:100A30004F913F912F910F900FBE0F901F901895DF
:100A40001F920F920FB60F9211242F933F934F9343
:100A50005F936F937F938F939F93AF93BF93EF9326
:100A6000FF930FDDFF91EF91BF91AF919F918F9118
:100A70007F916F915F914F913F912F910F900FBE9A
:100A80000F901F901895CF93DF931F92CDB7DEB7CD
:100A90008FB78983F89489810F90DF91CF91089562
:100AA00080E090E00E947F0D813129F061E180E0DB
:100AB00090E00C94870D0895E6DFE82F20917801EF
:100AC0003091790140917A0150917B0160917C01D4
:100AD00070917D0180917E0190917F01EFBF08951B
:100AE0002F923F924F925F926F927F928F929F923E
:100AF000AF92BF92CF92DF92EF92FF920F931F932C
:100B0000CF93DF9300D000D0CDB7DEB729833A83EF
:100B1000942E852E762E672E582E492E2091370141
:100B2000309138014091390150913A0160913B0177
:100B300070913C0180913D0190913E01A980BA8065
:100B4000C92CD82CE72CF62C052D142DC3D711F069
:100B500008F0B1C4BB82AA829501492D582D672D9A
:100B6000762D852D942DA2E3A0D7209337013093C5
:100B700038014093390150933A0160933B017093DF
:100B80003C0180933D0190933E017DDF23B199B1FB
:100B90008FBFE0913601B0903501B09236011091CF
:100BA000340110933501F0903301F0913201F0934C
:100BB000330180913101B0913001B0933101209027
:100BC0002F0160912E0160932F0130902D015091E3
:100BD0002C0150932D01A0902B0140912A014093AC
:100BE0002B010091290109833091280130932901BB
:100BF00071E0A92FA071CA2E94FD70E070933401AA
:100C0000A0917001A093300170916701709332013F
:100C1000EE24E394022F0074D02E26FDE12CE09206
:100C20002E01022F0095001F0027001F00932C01AA
:100C300001E00C83092F0074E02E96FD1C820C81CC
:100C400000932A01092F0095001F0027001F009321
:100C50002801BB2041F0112359F0C11009C011E057
:100C60001093270105C0111103C0C1101092270174
:100C7000882341F0BB2361F0AA2351F0A1E0A093A7
:100C8000260106C0B11104C0A11102C010922601B4
:100C9000FF2041F0FF2361F0772351F071E0709362
:100CA000250106C0F11104C0711102C01092250186
:100CB000222041F0662359F0D11009C061E0609311
:100CC000240105C0611103C0D1101092240133200A
:100CD00041F0552359F027FD09C021E0209323015D
:100CE00005C0511103C027FD10922301AA2041F035
:100CF000442359F0E11009C021E02093220105C0EE
:100D0000411103C0E110109222012981222341F0F8
:100D1000332359F097FD09C091E09093210105C05C
:100D2000311103C097FD1092210190912001923161
:100D300009F472C158F4913009F443C0B0F0903115
:100D400009F487C0913109F410C19CC2913209F4B1
:100D5000ADC120F4903209F467C194C2923209F413
:100D600065C2933209F48AC28DC210921F0110929B
:100D70001E0110921D0110921C0110921B01809106
:100D80002701811187C280912601811183C2809140
:100D9000250181117FC280912201882309F47AC242
:100DA00080912101811176C280912401882309F468
:100DB00071C28091230181116DC281E08093200175
:100DC00063C290912701992341F0209126012111BE
:100DD00004C0209125012223A1F01092130110924A
:100DE0001401109215011092160110921701109221
:100DF00018011092190110921A01992309F444C2A2
:100E00007BC2EE2329F0811103C0FF2009F474C2D4
:100E10002A813B81492D582D672D762D852D942DC6
:100E20002C503E4F4F4F5F4F6F4F7F4F8F4F9F4F15
:100E30002093130130931401409315015093160130
:100E400060931701709318018093190190931A0110
:100E500053C2A0900B01B0900C01C0900D01D09036
:100E60000E01E0900F01F09010010091110110911E
:100E700012019501A601B701C801A0E034D661F0C6
:100E80002A813B81492D582D672D762D852D942D56
:100E900021D610F010921D01F0912701F11111C01F
:100EA0001092130110921401109215011092160164
:100EB00010921701109218011092190110921A0144
:100EC00022C0E11120C02A813B81492D582D672D78
:100ED000762D852D942D28513C4F4F4F5F4F6F4FEE
:100EE0007F4F8F4F9F4F20931301309314014093F6
:100EF00015015093160160931701709318018093A8
:100F0000190190931A0180912301882309F4BCC12F
:100F1000809124018111B8C1FF2309F4B5C1A090CB
:100F20001301B0901401C0901501D0901601E0900B
:100F30001701F09018010091190110911A01950103
:100F4000A601B701C801A0E0CED509F49DC12A8150
:100F50003B81492D582D672D762D852D942DBAD5A1
:100F600008F492C110921D0156C1A0900B01B090DF
:100F70000C01C0900D01D0900E01E0900F01F09097
:100F8000100100911101109112019501A601B70104
:100F9000C801A0E0A8D561F02A813B81492D582DD8
:100FA000672D762D852D942D95D510F010921D016D
:100FB00080912101882341F010921C0110921B01A5
:100FC00082E18093200160C180912701882309F488
:100FD000A0C0E111EFC12A813B81492D582D672D19
:100FE000762D852D942D28513C4F4F4F5F4F6F4FDD
:100FF0007F4F8F4F9F4F20931301309314014093E5
:101000001501509316016093170170931801809396
:10101000190190931A01CEC180912701811134C129
:1010200080E28093200130C190912701992321F023
:10103000209126012223A1F0109213011092140195
:1010400010921501109216011092170110921801BA
:101050001092190110921A01992309F415C1E2C1E5
:10106000EE2319F0882309F4DDC12A813B81492D43
:10107000582D672D762D852D942D2C503E4F4F4F9A
:101080005F4F6F4F7F4F8F4F9F4F209313013093D0
:10109000140140931501509316016093170170934A
:1010A00018018093190190931A01BCC1809122010B
:1010B000882359F110921C0110921B012A813B8157
:1010C000492D582D672D762D852D942D28513C4F77
:1010D0004F4F5F4F6F4F7F4F8F4F9F4F20930B01AD
:1010E00030930C0140930D0150930E0160930F015A
:1010F00070931001809311019093120181E080930D
:101100001E0182E280932001BFC0F0912701F111FE
:101110001EC010921301109214011092150110922A
:1011200016011092170110921801109219011092D5
:101130001A0110921C0110921B01EE2309F4A4C0A5
:1011400090910A0181E0892780930A019DC0E111F5
:1011500020C02A813B81492D582D672D762D852D64
:10116000942D28513C4F4F4F5F4F6F4F7F4F8F4F04
:101170009F4F209313013093140140931501509316
:1011800016016093170170931801809319019093D1
:101190001A01E0912301E11104C081E080931D0157
:1011A00002C010921D01FF2309F46EC0A09013012C
:1011B000B0901401C0901501D0901601E090170175
:1011C000F09018010091190110911A019501A601E2
:1011D000B701C801A0E087D409F456C02A813B8139
:1011E000492D582D672D762D852D942D73D408F417
:1011F0004BC080910A0181110EC0E11104C081E051
:1012000080931D0141C010921C0181E080931B015D
:1012100010921D0139C081E080931C0110921B01C6
:1012200010920A0181E1809320012EC0A0900B0151
:10123000B0900C01C0900D01D0900E01E0900F0114
:10124000F090100100911101109112012A813B814F
:10125000492D582D672D762D852D942D3BD410F0DA
:1012600010921E0180912401882371F010921E01BA
:1012700010921F0183E28093200106C08091270114
:10128000811102C01092200180911E01882311F06B
:1012900083EE01C083EC90911D01992319F030E198
:1012A000398301C019829981982B998380911C01FF
:1012B000882311F028E001C020E0A981A22BA98396
:1012C00080911B01882311F094E001C090E0098116
:1012D000092B098380911F01882319F00FEF0A83DE
:1012E00002C007EF0A83CFDB098105B90A8108B97B
:1012F0009FEF9BB98FBFDFC0809126018111C4CFC2
:10130000809125018111C0CF80912201882309F4A9
:10131000BBCF809121018111B7CF80912401882317
:1013200009F4B2CF809123018111AECFE1E0E093C7
:101330001F01A0901301B0901401C0901501D0902E
:101340001601E0901701F090180100911901109119
:101350001A019501A601B701C801A0E0C4D309F4A0
:1013600093CF2A813B81492D582D672D762D852DD0
:10137000942DB0D308F488CFE0931D0128513C4F41
:101380004F4F5F4F6F4F7F4F8F4F9F4F20930B01FA
:1013900030930C0140930D0150930E0160930F01A7
:1013A00070931001809311019093120180E180935A
:1013B00020016ACFA0901301B0901401C0901501D4
:1013C000D0901601E0901701F090180100911901DA
:1013D00010911A019501A601B701C801A0E083D3BD
:1013E00009F452CF2A813B81492D582D672D762D46
:1013F000852D942D6FD308F447CF80910A01811178
:1014000006C081E080931C0110921B013DCF109219
:101410001C0181E080931B0110920A0181E28093FC
:10142000200132CF8091260181112ECF809123019E
:10143000811103C091E090931D01909122019111BF
:1014400023CF90912101992309F41ECF909124017B
:1014500091111ACF882309F417CFA0901301B090EF
:101460001401C0901501D0901601E0901701F09082
:1014700018010091190110911A019501A601B701F7
:10148000C801A0E030D309F4FFCE2A813B81492D69
:10149000582D672D762D852D942D1CD308F4F4CE70
:1014A00010921C0181E080931B0110921D0181E2CA
:1014B00080932001E9CE0F900F900F900F90DF9155
:1014C000CF911F910F91FF90EF90DF90CF90BF9041
:1014D000AF909F908F907F906F905F904F903F90D4
:1014E0002F900895880F816083BF889583B78E7F82
:1014F00083BF08958CE384B983EC85B988E287B90A
:1015000080E388B98AE08AB987EF8BB984E0809359
:101510006C0082E08BBB809368009FD08BEE809341
:10152000640061E080E0B2D083E080937E0086E8D2
:1015300080937A0080EC80937C0080917B00887F90
:10154000866080937B0080917A00806280937A002D
:1015500080917A00806180937A0080917A0088601F
:1015600080937A0080917A00806480937A0068E0AA
:1015700080E08CD081E08093800091E190938100A5
:1015800010928500109284009FE09093890090EA69
:101590009093880097E296BB80936F005DD084B7EC
:1015A00080934001982F977011F4811142C06BDA3B
:1015B00010923F01109278011092790110927A01F5
:1015C00010927B0110927C0110927D0110927E019D
:1015D00010927F01109277011092730110927401A2
:1015E00010927501109276011092720110927101A1
:1015F0001092700110926C0110926D0110926E01A8
:1016000010926F01109268011092690110926A01A4
:1016100010926B011092670195E2E2E4F1E0DF01C4
:101620001D929A95E9F710924101109240018FBFE7
:1016300002C00E94510034DA789481E080933F0127
:101640003BDA4EDA80E04EDF80916701882311F0AB
:101650005B9AF6CF5B98F4CF0895CF93DF931F92F8
:10166000CDB7DEB78FEF809364008FB78983F8948E
:1016700089815F9350E85093610050E0509361007E
:101680005F918FBF0F90DF91CF910895CF93DF933C
:101690001F92CDB7DEB79FB79983F89499818111D6
:1016A00006C06095809164006823609364009FBFCA
:1016B0000F90DF91CF9108955058BB27AA270ED0E5
:1016C0000DC1FED030F003D120F031F49F3F11F472
:1016D0001EF4F3C00EF4E095E7FBE9C0E92F0FD14B
:1016E00080F3BA17620773078407950718F071F43F
:1016F0009EF527C10EF4E0950B2EBA2FA02D0B01FD
:10170000B90190010C01CA01A0011124FF27591B46
:1017100099F0593F50F4503E68F11A16F040A22F4C
:10172000232F342F4427585FF3CF469537952795BD
:10173000A795F0405395C9F77EF41F16BA0B620BBC
:10174000730B840BBAF09150A1F0FF0FBB1F661F03
:10175000771F881FC2F70EC0BA0F621F731F841F46
:1017600048F4879577956795B795F7959E3F08F06C
:10177000B3CF9395880F08F09927EE0F979587952B
:10178000089571D008F481E0089504D06894B111EF
:10179000D9C00895BCD088F09F5790F0B92F9927F1
:1017A000B751A0F0D1F0660F771F881F991F1AF06C
:1017B000BA95C9F712C0B13081F0C3D0B1E0089535
:1017C000C0C0672F782F8827B85F39F0B93FCCF3B6
:1017D000869577956795B395D9F73EF49095809562
:1017E000709561957F4F8F4F9F4F0895E89409C082
:1017F00097FB3EF490958095709561957F4F8F4F44
:101800009F4F9923A9F0F92F96E9BB279395F69559
:10181000879577956795B795F111F8CFFAF4BB0FD7
:1018200011F460FF1BC06F5F7F4F8F4F9F4F16C03B
:10183000882311F096E911C0772321F09EE8872FC5
:10184000762F05C0662371F096E8862F70E060E081
:101850002AF09A95660F771F881FDAF7880F9695FA
:10186000879597F90895990F0008550FAA0BE0E89E
:10187000FEEF16161706E807F907C0F01216130652
:10188000E407F50798F0621B730B840B950B39F492
:101890000A2661F0232B242B252B21F408950A26F8
:1018A00009F4A140A6958FEF811D811D089597F938
:1018B0009F6780E870E060E008959FEF80EC0895F6
:1018C00000240A941616170618060906089500241F
:1018D0000A9412161306140605060895092E039499
:1018E000000C11F4882352F0BB0F40F4BF2B11F40D
:1018F00060FF04C06F5F7F4F8F4F9F4F089557FD6C
:101900009058440F551F59F05F3F71F04795880F6D
:1019100097FB991F61F09F3F79F087950895121604
:1019200013061406551FF2CF4695F1DF08C01616B0
:1019300017061806991FF1CF869571056105089461
:101940000895E894BB2766277727CB0197F9089578
:101950000BD0C4CFB5DF28F0BADF18F0952309F01B
:10196000A6CFABCF1124EECFCADFA0F3959FD1F362
:10197000950F50E0551F629FF001729FBB27F00D3D
:10198000B11D639FAA27F00DB11DAA1F649F662792
:10199000B00DA11D661F829F2227B00DA11D621FE1
:1019A000739FB00DA11D621F839FA00D611D221F9B
:1019B000749F3327A00D611D231F849F600D211D7F
:1019C000822F762F6A2F11249F5750408AF0E1F022
:1019D00088234AF0EE0FFF1FBB1F661F771F881F6B
:1019E00091505040A9F79E3F510570F060CFAACFAB
:1019F0005F3FECF3983EDCF3869577956795B79556
:101A0000F795E7959F5FC1F7FE2B880F911D96957F
:101A1000879597F90895DB018F939F933CD0BF91F1
:101A2000AF91A29F800D911DA39F900DB29F900D2D
:101A300011240895A1E21A2EAA1BBB1BFD010DC0A3
:101A4000AA1FBB1FEE1FFF1FA217B307E407F5076E
:101A500020F0A21BB30BE40BF50B661F771F881F4A
:101A6000991F1A9469F760957095809590959B01E0
:101A7000AC01BD01CF010895A29FB001B39FC00189
:101A8000A39F700D811D1124911DB29F700D811DAA
:101A90001124911D0895F0DFA59F900DB49F900D26
:101AA000A49F800D911D112408950024A7FD00948A
:101AB0002A0F301D401D501D601D701D801D901D82
:101AC00008952A193B094C095D096E097F09800BAD
:101AD000910B08952A153B054C055D056E057F05A4
:101AE0008007910708950024A7FD00942A17300568
:101AF0004005500560057005800590050895F99929
:101B0000FECF92BD81BDF89A992780B50895262F02
:101B1000F999FECF1FBA92BD81BD20BD0FB6F894D2
:0E1B2000FA9AF99A0FBE01960895F894FFCF35
:021B2E000100B4
:00000001FF
