S02100004C616E64437275697365722D436F6E74726F6C6C65725F53572E737265634D
S113000033C00000B5C3000090C300006BC3000000
S113001046C3000021C30000FCC20000D7C2000098
S1130020B2C200008DC2000068C2000043C20000DA
S11300301EC2000039C00000F7C10000D2C1000098
S1130040ADC1000088C1000063C100003EC10000D2
S113005019C10000F4C00000CFC00000AAC0000015
S113006085C0000060C0000011241FBECFEFD8E09F
S1130070DEBFCDBF11E0A0E0B1E0EAE4F2E102C0EE
S113008005900D92A030B107D9F721E0A0E0B1E0CE
S113009001C01D92A933B207E1F70E946A080C94CB
S11300A023099895000008951F920F920FB60F929E
S11300B011242F933F934F935F936F937F938F9369
S11300C09F93AF93209131013091320140913301DC
S11300D0509134016091350170913601809137015E
S11300E090913801A1E00E94EC08209331013093F3
S11300F0320140933301509334016093350170937E
S113010036018093370190933801AF919F918F917D
S11301107F916F915F914F913F912F910F900FBEFF
S11301200F901F9018951F920F920FB60F921124E3
S11301302F933F934F935F936F937F938F939F93EB
S1130140AF93BF93EF93FF93ACDFFF91EF91BF9118
S1130150AF919F918F917F916F915F914F913F915B
S11301602F910F900FBE0F901F9018951F920F9212
S11301700FB60F9211242F933F934F935F936F9376
S11301807F938F939F93AF93BF93EF93FF93CBDFB3
S1130190FF91EF91BF91AF919F918F917F916F915B
S11301A05F914F913F912F910F900FBE0F901F9031
S11301B018951F920F920FB60F9211242F933F930D
S11301C04F935F936F937F938F939F93AF93BF935B
S11301D0EF93FF93A8DFFF91EF91BF91AF919F91B0
S11301E08F917F916F915F914F913F912F910F90DC
S11301F00FBE0F901F9018951F920F920FB60F927B
S113020011242F933F934F935F936F937F938F9317
S11302109F93AF93BF93EF93FF9385DFFF91EF918C
S1130220BF91AF919F918F917F916F915F914F910A
S11302303F912F910F900FBE0F901F9018951F9212
S11302400F920FB60F9211242F933F934F935F9306
S11302506F937F938F939F93AF93BF93EF93FF938A
S113026062DFFF91EF91BF91AF919F918F917F9149
S11302706F915F914F913F912F910F900FBE0F900F
S11302801F9018951F920F920FB60F9211242F935F
S11302903F934F935F936F937F938F939F93AF930A
S11302A0BF93EF93FF933FDFFF91EF91BF91AF9126
S11302B09F918F917F916F915F914F913F912F917A
S11302C00F900FBE0F901F9018951F920F920FB6AC
S11302D00F9211242F933F934F935F936F937F93C8
S11302E08F939F93AF93BF93EF93FF931CDFFF9183
S11302F0EF91BF91AF919F918F917F916F915F919A
S11303004F913F912F910F900FBE0F901F90189512
S11303101F920F920FB60F9211242F933F934F9376
S11303205F936F937F938F939F93AF93BF93EF9359
S1130330FF93F9DEFF91EF91BF91AF919F918F9160
S11303407F916F915F914F913F912F910F900FBECD
S11303500F901F9018951F920F920FB60F921124B1
S11303602F933F934F935F936F937F938F939F93B9
S1130370AF93BF93EF93FF93D6DEFF91EF91BF91BD
S1130380AF919F918F917F916F915F914F913F9129
S11303902F910F900FBE0F901F9018951F920F92E0
S11303A00FB60F9211242F933F934F935F936F9344
S11303B07F938F939F93AF93BF93EF93FF93B3DE9A
S11303C0FF91EF91BF91AF919F918F917F916F9129
S11303D05F914F913F912F910F900FBE0F901F90FF
S11303E018951F920F920FB60F9211242F933F93DB
S11303F04F935F936F937F938F939F93AF93BF9329
S1130400EF93FF9390DEFF91EF91BF91AF919F9196
S11304108F917F916F915F914F913F912F910F90A9
S11304200FBE0F901F9018951F920F920FB60F9248
S113043011242F933F934F935F936F937F938F93E5
S11304409F93AF93BF93EF93FF936DDEFF91EF9173
S1130450BF91AF919F918F917F916F915F914F91D8
S11304603F912F910F900FBE0F901F9018951F92E0
S11304700F920FB60F9211242F933F934F935F93D4
S11304806F937F938F939F93AF93BF93EF93FF9358
S11304904ADEFF91EF91BF91AF919F918F917F9130
S11304A06F915F914F913F912F910F900FBE0F90DD
S11304B01F9018951F920F920FB60F9211242F932D
S11304C03F934F935F936F937F938F939F93AF93D8
S11304D0BF93EF93FF9327DEFF91EF91BF91AF910D
S11304E09F918F917F916F915F914F913F912F9148
S11304F00F900FBE0F901F9018951F920F920FB67A
S11305000F9211242F933F934F935F936F937F9395
S11305108F939F93AF93BF93EF93FF9304DEFF9169
S1130520EF91BF91AF919F918F917F916F915F9167
S11305304F913F912F910F900FBE0F901F901895E0
S11305401F920F920FB60F9211242F933F934F9344
S11305505F936F937F938F939F93AF93BF93EF9327
S1130560FF93E1DDFF91EF91BF91AF919F918F9147
S11305707F916F915F914F913F912F910F900FBE9B
S11305800F901F9018951F920F920FB60F9211247F
S11305902F933F934F935F936F937F938F939F9387
S11305A0AF93BF93EF93FF93BEDDFF91EF91BF91A4
S11305B0AF919F918F917F916F915F914F913F91F7
S11305C02F910F900FBE0F901F9018951F920F92AE
S11305D00FB60F9211242F933F934F935F936F9312
S11305E07F938F939F93AF93BF93EF93FF939BDD81
S11305F0FF91EF91BF91AF919F918F917F916F91F7
S11306005F914F913F912F910F900FBE0F901F90CC
S113061018951F920F920FB60F9211242F933F93A8
S11306204F935F936F937F938F939F93AF93BF93F6
S1130630EF93FF9378DDFF91EF91BF91AF919F917D
S11306408F917F916F915F914F913F912F910F9077
S11306500FBE0F901F9018951F920F920FB60F9216
S113066011242F933F934F935F936F937F938F93B3
S11306709F93AF93BF93EF93FF9355DDFF91EF915A
S1130680BF91AF919F918F917F916F915F914F91A6
S11306903F912F910F900FBE0F901F9018951F92AE
S11306A00F920FB60F9211242F933F934F935F93A2
S11306B06F937F938F939F93AF93BF93EF93FF9326
S11306C032DDFF91EF91BF91AF919F918F917F9117
S11306D06F915F914F913F912F910F900FBE0F90AB
S11306E01F9018951F920F920FB60F9211242F93FB
S11306F03F934F935F936F937F938F939F93AF93A6
S1130700BF93EF93FF930FDDFF91EF91BF91AF91F3
S11307109F918F917F916F915F914F913F912F9115
S11307200F900FBE0F901F9018951F920F920FB647
S11307300F9211242F933F934F935F936F937F9363
S11307408F939F93AF93BF93EF93FF93ECDCFF9151
S1130750EF91BF91AF919F918F917F916F915F9135
S11307604F913F912F910F900FBE0F901F901895AE
S11307701F920F920FB60F9211242F933F934F9312
S11307805F936F937F938F939F93AF93BF93EF93F5
S1130790FF93C9DCFF91EF91BF91AF919F918F912E
S11307A07F916F915F914F913F912F910F900FBE69
S11307B00F901F901895CF93DF931F92CDB7DEB79C
S11307C08FB78983F89489810F90DF91CF91089531
S11307D080E090E022D5813121F061E180E090E079
S11307E024C50895E8DFE82F2091310130913201CA
S11307F0409133015091340160913501709136017B
S11308008091370190913801EFBF08954F925F9224
S11308106F927F928F929F92AF92BF92CF92DF920C
S1130820EF92FF920F931F93CF93DF93E901942EDE
S1130830852E762E672E582E492E20912701309131
S113084028014091290150912A0160912B01709156
S11308502C0180912D0190912E015E01C92CD82C80
S1130860E72CF62C052D142DC3D411F008F019C46F
S11308709E01492D582D672D762D852D942DA2E3AB
S1130880ABD420932701309328014093290150933E
S11308902A0160932B0170932C0180932D01909376
S11308A02E0189DF23B199B18FBFE0912601109108
S11308B02501109326016091240160932501D090B5
S11308C023015091220150932301E0902101409192
S11308D0200140932101F0901F0130911E013093BB
S11308E01F0100911D0180911C0180931D0171E085
S11308F0B92FB07194FD70E07093240171E0A22FC0
S1130900A07426FD70E070932201722F7095771FFA
S11309107727771F7093200171E0F92FF07496FD0B
S113092070E070931E01792F7095771F7727771FDA
S113093070931C01112341F0662359F0B11109C0D1
S113094061E060931B0105C0611103C0B1111092F5
S11309501B01DD2041F0552359F0A11109C051E0DC
S113096050931A0105C0511103C0A11110921A012C
S1130970EE2041F0442359F027FD09C021E02093E3
S1130980190105C0411103C027FD10921901FF2070
S113099041F0332359F0F11109C021E020931801EB
S11309A005C0311103C0F11110921801002341F068
S11309B0882359F097FD09C081E08093170105C091
S11309C0811103C097FD10921701809116018231A5
S11309D009F453C150F48130D9F1B0F0803109F4F5
S11309E06EC0813109F4F4C05FC2813209F474C16C
S11309F020F4803209F449C157C2823209F429C271
S1130A00833209F44DC250C21092150110921401A0
S1130A1010921301109212011092110180911B0186
S1130A2081114AC280911801882309F445C280913A
S1130A301701811141C280911A01882309F43CC233
S1130A4080911901811138C281E0809316012EC270
S1130A5080911B01811111C01092090110920A01A9
S1130A6010920B0110920C0110920D0110920E01C4
S1130A7010920F011092100119C2E11144C29E019B
S1130A80492D582D672D762D852D942D2C503E4FB4
S1130A904F4F5F4F6F4F7F4F8F4F9F4F20930901F1
S1130AA030930A0140930B0150930C0160930D01A4
S1130AB070930E0180930F019093100124C2A090B3
S1130AC00101B0900201C0900301D0900401E090B4
S1130AD00501F090060100910701109108019501AC
S1130AE0A601B701C801A0E08CD359F09E01492D9D
S1130AF0582D672D762D852D942D7AD310F01092D4
S1130B001301F0911B01F11111C01092090110920F
S1130B100A0110920B0110920C0110920D01109217
S1130B200E0110920F011092100121C0E1111FC09B
S1130B309E01492D582D672D762D852D942D2851F4
S1130B403C4F4F4F5F4F6F4F7F4F8F4F9F4F2093BF
S1130B50090130930A0140930B0150930C016093F7
S1130B600D0170930E0180930F01909310018091F9
S1130B701901882309F49AC180911A01811196C13F
S1130B80FF2309F493C1A0900901B0900A01C09019
S1130B900B01D0900C01E0900D01F0900E0100913A
S1130BA00F01109110019501A601B701C801A0E041
S1130BB028D309F47BC19E01492D582D672D762D2C
S1130BC0852D942D15D308F471C11092130136C1EB
S1130BD0A0900101B0900201C0900301D0900401E3
S1130BE0E0900501F09006010091070110910801C1
S1130BF09501A601B701C801A0E003D359F09E01F5
S1130C00492D582D672D762D852D942DF1D210F078
S1130C101092130180911701882341F01092120160
S1130C201092110182E18093160140C180911B0151
S1130C30882309F483C0E111B9C19E01492D582DBF
S1130C40672D762D852D942D28513C4F4F4F5F4FA6
S1130C506F4F7F4F8F4F9F4F2093090130930A01AD
S1130C6040930B0150930C0160930D0170930E019E
S1130C7080930F019093100199C180911B01811100
S1130C8015C180E28093160111C180911B01882354
S1130C9009F4E2CEE111C1C19E01492D582D672D01
S1130CA0762D852D942D2C503E4F4F4F5F4F6F4F17
S1130CB07F4F8F4F9F4F2093090130930A01409338
S1130CC00B0150930C0160930D0170930E018093FE
S1130CD00F0190931001A1C180911801882351F153
S1130CE010921201109211019E01492D582D672D69
S1130CF0762D852D942D28513C4F4F4F5F4F6F4FCC
S1130D007F4F8F4F9F4F20930101309302014093F7
S1130D1003015093040160930501709306018093CD
S1130D2007019093080181E08093140182E280938B
S1130D301601BCC0F0911B01F1111EC010920901F3
S1130D4010920A0110920B0110920C0110920D01E5
S1130D5010920E0110920F011092100110921201C4
S1130D6010921101EE2309F4A1C09091000181E0D9
S1130D708927809300019AC0E1111FC09E01492D6B
S1130D80582D672D762D852D942D28513C4F4F4F8E
S1130D905F4F6F4F7F4F8F4F9F4F209309013093C9
S1130DA00A0140930B0150930C0160930D01709361
S1130DB00E0180930F0190931001E0911901E1114C
S1130DC004C081E08093130102C010921301FF2339
S1130DD009F46CC0A0900901B0900A01C0900B0105
S1130DE0D0900C01E0900D01F0900E0100910F01E4
S1130DF0109110019501A601B701C801A0E001D22C
S1130E0009F454C09E01492D582D672D762D852D4A
S1130E10942DEED108F44AC08091000181110EC0D6
S1130E20E11104C081E08093130140C010921201CB
S1130E3081E0809311011092130138C081E0809306
S1130E401201109211011092000181E180931601A8
S1130E502DC0A0900101B0900201C0900301D09078
S1130E600401E0900501F090060100910701109142
S1130E7008019E01492D582D672D762D852D942D21
S1130E80B7D110F01092140180911A01882371F0E7
S1130E90109214011092150183E28093160106C08A
S1130EA080911B01811102C01092160180911401DE
S1130EB0882311F083EE01C083EC909113019923F0
S1130EC011F0C0E101C0C0E0C82B80911201882359
S1130ED011F028E001C020E0C22B80911101882389
S1130EE011F094E001C090E0C92B80911501882392
S1130EF011F0DFEF01C0D7EF5EDCC5B9D8B99FEFC1
S1130F009BB98FBFCEC080911801882379F280915C
S1130F1017018111CBCF80911A01882339F2809176
S1130F2019018111C3CFE1E0E0931501A0900901FB
S1130F30B0900A01C0900B01D0900C01E0900D011B
S1130F40F0900E0100910F01109110019501A6017E
S1130F50B701C801A0E055D109F4A8CF9E01492DDD
S1130F60582D672D762D852D942D42D108F49ECFD2
S1130F70E093130128513C4F4F4F5F4F6F4F7F4F0A
S1130F808F4F9F4F2093010130930201409303013F
S1130F905093040160930501709306018093070147
S1130FA09093080180E18093160180CFA0900901FD
S1130FB0B0900A01C0900B01D0900C01E0900D019B
S1130FC0F0900E0100910F01109110019501A601FE
S1130FD0B701C801A0E015D109F468CF9E01492DDD
S1130FE0582D672D762D852D942D02D108F45ECFD2
S1130FF080910001811106C081E08093120110925A
S1131000110154CF1092120181E0809311011092CA
S1131010000181E28093160149CF80911901811169
S113102003C091E0909313019091180191113ECF68
S113103090911701992309F439CF90911A019111D4
S113104035CF882309F432CFA0900901B0900A016A
S1131050C0900B01D0900C01E0900D01F0900E01B6
S113106000910F01109110019501A601B701C8016B
S1131070A0E0C7D009F41ACF9E01492D582D672D41
S1131080762D852D942DB4D008F410CF1092120132
S113109081E0809311011092130181E28093160183
S11310A005CFDF91CF911F910F91FF90EF90DF90CB
S11310B0CF90BF90AF909F908F907F906F905F90F4
S11310C04F900895880F816083BF889583B78E7F82
S11310D083BF08958CE384B983EC85B988E287B92A
S11310E087EF88B982E08AB98FEF8BB987E0809364
S11310F07E0043D08BEE8093640068E080E056D09D
S113110081E08093800091E19093810010928500AA
S1131110109284009FE09093890090EA9093880055
S113112097E296BB80936F0027D084B780933001F9
S1131130982F977011F4811113C03DDB1092310187
S11311401092320110923301109234011092350141
S11311501092360110923701109238018FBF02C0ED
S11311600E94510035DB789481E080932F013ADBB3
S11311704DDB80E0A7DFFBCF0895CF93DF931F9271
S1131180CDB7DEB78FEF809364008FB78983F8946F
S113119089815F9350E85093610050E0509361005F
S11311A05F918FBF0F90DF91CF910895CF93DF931D
S11311B01F92CDB7DEB79FB79983F89499818111B7
S11311C006C06095809164006823609364009FBFAB
S11311D00F90DF91CF9108950024A7FD00942A0F6A
S11311E0301D401D501D601D701D801D901D0895F3
S11311F02A153B054C055D056E057F0580079107A3
S113120008950024A7FD00942A17300540055005D1
S113121060057005800590050895F999FECF92BD8B
S113122081BDF89A992780B50895262FF999FECFA4
S11312301FBA92BD81BD20BD0FB6F894FA9AF99AEF
S10D12400FBE01960895F894FFCF45
S9030000FC
