S02100004C616E64437275697365722D436F6E74726F6C6C65725F53572E737265634D
S1130000B5C000004AC6000025C6000000C60000B6
S1130010CDC00000D9C50000B4C500008FC50000E4
S11300206AC5000045C5000020C50000FBC40000EF
S1130030D6C40000BBC20000AFC400008AC40000E4
S113004065C4000040C4000020C1000059C1000084
S113005090C1000015C40000F0C30000CBC3000031
S1130060A6C3000081C30000232046534D2D4F75C5
S1130070747075743A204F6B6C3D25642C204F705E
S113008076673D25642C204F70766F3D25642C20C7
S11300904F6D313D25642C204F6D323D25640D0A92
S11300A000232046534D2D20496E7075743A204923
S11300B066623D25642C204975763D25642C2049D3
S11300C06F733D25642C2049736B673D25642C2098
S11300D049736B6F3D25642C20497361673D25642A
S11300E02C204973616F3D25642C20497368673D5A
S11300F025640D0A00232046534D2D20537461744A
S1130100653A20307825303258202D2D3E20307825
S1130110253032580D0A004C616E64437275697360
S113012065722D436F6E74726F6C2076657273699D
S11301306F6E20323025303364253033640D0A006D
S11301403D3D3D3D3D3D3D3D3D3D3D3D3D3D3D3DDB
S11301503D3D3D3D3D3D3D3D3D3D3D3D3D3D3D3DCB
S11301603D3D3D3D3D0D0A000D0A000011241FBE1A
S1130170CFEFD8E0DEBFCDBF11E0A0E0B1E0E4EB0B
S1130180F9E202C005900D92A430B107D9F724E03A
S1130190A4E0B1E001C01D92A830B207E1F70E94CB
S11301A04E0D0C94D8149895000008951F920F9248
S11301B00FB60F921124AF92BF92CF92DF92EF92BB
S11301C0FF920F931F932F933F934F935F936F93DC
S11301D07F938F939F93AF93BF93EF93FF93329B40
S11301E03BC0F0910004E09101048F2F9E2F892BD6
S11301F099F12F2F3E2F40E050E060E070E080E066
S113020090E0A0900401B0900501C0900601D09048
S11302100701E0900801F090090100910A01109192
S11302200B010E94B511B1E0A4E60E94C71111F0C0
S113023008F0B0E0B0939B03F0930401E093050150
S11302401092060110920701109208011092090100
S113025010920A0110920B01FF91EF91BF91AF919F
S11302609F918F917F916F915F914F913F912F91CA
S11302701F910F91FF90EF90DF90CF90BF90AF90C0
S11302800F900FBE0F901F9018951F920F920FB6EC
S11302900F9211242F933F934F938F939F93EF9338
S11302A0FF934091C60080915103909152039C01A9
S11302B02F5F3F4F3093520320935103FC01ED5ABB
S11302C0FC4F4083F901ED5AFC4F10824A3019F477
S11302D081E0809350032032310530F08FE190E0CB
S11302E09093520380935103FF91EF919F918F91CB
S11302F04F913F912F910F900FBE0F901F90189523
S11303001F920F920FB60F9211242F933F934F9386
S11303108F939F93EF93FF9380914E0290914F029E
S1130320892BD9F0809150028093C60020914E020F
S113033030914F0240E0842F90E08217930738F405
S1130340FC01E05BFD4F818180834F5FF4CF21503E
S1130350310930934F0220934E02FF91EF919F9108
S11303608F914F913F912F910F900FBE0F901F903F
S113037018951F920F920FB60F92112410924D02EE
S11303800F900FBE0F901F901895CF92DF92EF92AF
S1130390FF920F931F93CF93DF9300D0CDB7DEB7B7
S11303A0809178002091790090E0922B9A83898340
S11303B089819A81CD9730F089819A81CC979A83EB
S11303C0898302C01A8219828091AB03882321F0A9
S11303D0813009F479C0DDC009811A8123E333E354
S11303E043E75FE36091A7037091A8038091A90399
S11303F09091AA030E94F3106B017C01B80180E084
S113040090E00E9465102DEC3CEC4CE45DE30E940E
S1130410F3109B01AC01C701B6010E94D00F6B0120
S11304207C010E9439109B01AC0164EC7FED81E0FA
S113043090E00E945611DC01CB012AE0B695A79505
S1130440979587952A95D1F7BC016C527E47C09247
S1130450A703D092A803E092A903F092AA03709391
S1130460A6036093A503CB01A0E0B0E021E08430B3
S11304709942A105B1050CF020E02093A40388E47F
S11304808093020181E08093AB0380910001882373
S113049009F481C081508093000169817A8180E0F0
S11304A090E00E9465106093A7037093A803809363
S11304B0A9039093AA0380EE9EE29093A6038093EF
S11304C0A5031092A40367C009811A812EEE3CE7AC
S11304D04FE75FE36091A0037091A1038091A203B1
S11304E09091A3030E94F3106B017C01B80180E09A
S11304F090E00E9465102FE632E143E05BE30E9446
S1130500F3109B01AC01C701B6010E94D00F6093A8
S1130510A0037093A1038093A2039093A3032AE4FE
S11305203DE940E852E40E94CF0F2CE83EE14AE95D
S113053050E40E94F31020E030E04AE952E40E94C3
S1130540D00F20E030E048EC52E40E94F3100E9407
S1130550341060939C0370939D0380939E03909347
S11305609F0380E4809302011092AB038091000109
S1130570882389F069817A8180E090E00E94651087
S11305806093A0037093A1038093A2039093A303A9
S113059002C01092AB030F900F90DF91CF911F9187
S11305A00F91FF90EF90DF90CF9008951F920F92DC
S11305B00FB60F9211245F926F927F928F929F9247
S11305C0AF92BF92CF92DF92EF92FF920F931F935D
S11305D02F933F934F935F936F937F938F939F9347
S11305E0AF93BF93CF93DF93EF93FF9320910004D6
S11305F03091010440910204509103046091040479
S1130600709105048091060490910704A1E00E9472
S1130610A9112093000430930104409302045093E1
S11306200304609304047093050480930604909378
S113063007048091B403811101C0ACD35FD4522E5E
S1130640632E742E852E962ED72FC82FB92FA090E7
S1130650AC03B090AD03C090AE03D090AF03E09074
S1130660B003F090B1030091B2031091B3030E9460
S1130670BE1108F445C0A091B403EA2FF0E0CF0105
S1130680880F991FE80FF91FEB54FC4FA180B2802B
S1130690950140E050E060E070E080E090E0A52C3F
S11306A0B62CC72CD82CE92CFD2E0C2F1B2F0E9406
S11306B0A0112093AC033093AD034093AE03509349
S11306C0AF036093B0037093B1038093B20390932C
S11306D0B303AF5FA093B4038081813031F058F04D
S11306E08F3F71F41092B4030BC08093FF0361E059
S11306F081E00FD305C01092FF0360E081E009D3CD
S11307008091B403883138F01092B4031092FF033F
S113071060E081E0FED280910201C7D380917A002B
S113072086FDFCCF32DEDED3FF91EF91DF91CF91D6
S1130730BF91AF919F918F917F916F915F914F91F5
S11307403F912F911F910F91FF90EF90DF90CF90E9
S1130750BF90AF909F908F907F906F905F900F901D
S11307600FBE0F901F9018951F920F920FB60F9205
S113077011242F933F934F935F936F937F938F93A2
S11307809F93AF93BF93EF93FF930DDDFF91EF9191
S1130790BF91AF919F918F917F916F915F914F9195
S11307A03F912F910F900FBE0F901F9018951F929D
S11307B00F920FB60F9211242F933F934F935F9391
S11307C06F937F938F939F93AF93BF93EF93FF9315
S11307D0CBDFFF91EF91BF91AF919F918F917F916B
S11307E06F915F914F913F912F910F900FBE0F909A
S11307F01F9018951F920F920FB60F9211242F93EA
S11308003F934F935F936F937F938F939F93AF9394
S1130810BF93EF93FF93A8DFFF91EF91BF91AF9147
S11308209F918F917F916F915F914F913F912F9104
S11308300F900FBE0F901F9018951F920F920FB636
S11308400F9211242F933F934F935F936F937F9352
S11308508F939F93AF93BF93EF93FF9385DFFF91A4
S1130860EF91BF91AF919F918F917F916F915F9124
S11308704F913F912F910F900FBE0F901F9018959D
S11308801F920F920FB60F9211242F933F934F9301
S11308905F936F937F938F939F93AF93BF93EF93E4
S11308A0FF9362DFFF91EF91BF91AF919F918F9181
S11308B07F916F915F914F913F912F910F900FBE58
S11308C00F901F9018951F920F920FB60F9211243C
S11308D02F933F934F935F936F937F938F939F9344
S11308E0AF93BF93EF93FF933FDFFF91EF91BF91DE
S11308F0AF919F918F917F916F915F914F913F91B4
S11309002F910F900FBE0F901F9018951F920F926A
S11309100FB60F9211242F933F934F935F936F93CE
S11309207F938F939F93AF93BF93EF93FF931CDFBA
S1130930FF91EF91BF91AF919F918F917F916F91B3
S11309405F914F913F912F910F900FBE0F901F9089
S113095018951F920F920FB60F9211242F933F9365
S11309604F935F936F937F938F939F93AF93BF93B3
S1130970EF93FF93F9DEFF91EF91BF91AF919F91B8
S11309808F917F916F915F914F913F912F910F9034
S11309900FBE0F901F9018951F920F920FB60F92D3
S11309A011242F933F934F935F936F937F938F9370
S11309B09F93AF93BF93EF93FF93D6DEFF91EF9195
S11309C0BF91AF919F918F917F916F915F914F9163
S11309D03F912F910F900FBE0F901F9018951F926B
S11309E00F920FB60F9211242F933F934F935F935F
S11309F06F937F938F939F93AF93BF93EF93FF93E3
S1130A00B3DEFF91EF91BF91AF919F918F917F9151
S1130A106F915F914F913F912F910F900FBE0F9067
S1130A201F9018951F920F920FB60F9211242F93B7
S1130A303F934F935F936F937F938F939F93AF9362
S1130A40BF93EF93FF9390DEFF91EF91BF91AF912E
S1130A509F918F917F916F915F914F913F912F91D2
S1130A600F900FBE0F901F9018951F920F920FB604
S1130A700F9211242F933F934F935F936F937F9320
S1130A808F939F93AF93BF93EF93FF936DDEFF918B
S1130A90EF91BF91AF919F918F917F916F915F91F2
S1130AA04F913F912F910F900FBE0F901F9018956B
S1130AB01F920F920FB60F9211242F933F934F93CF
S1130AC05F936F937F938F939F93AF93BF93EF93B2
S1130AD0FF934ADEFF91EF91BF91AF919F918F9168
S1130AE07F916F915F914F913F912F910F900FBE26
S1130AF00F901F9018951F920F920FB60F9211240A
S1130B002F933F934F935F936F937F938F939F9311
S1130B10AF93BF93EF93FF9327DEFF91EF91BF91C4
S1130B20AF919F918F917F916F915F914F913F9181
S1130B302F910F900FBE0F901F9018951F920F9238
S1130B400FB60F9211242F933F934F935F936F939C
S1130B507F938F939F93AF93BF93EF93FF9304DEA1
S1130B60FF91EF91BF91AF919F918F917F916F9181
S1130B705F914F913F912F910F900FBE0F901F9057
S1130B8018951F920F920FB60F9211242F933F9333
S1130B904F935F936F937F938F939F93AF93BF9381
S1130BA0EF93FF93E1DDFF91EF91BF91AF919F919F
S1130BB08F917F916F915F914F913F912F910F9002
S1130BC00FBE0F901F9018951F920F920FB60F92A1
S1130BD011242F933F934F935F936F937F938F933E
S1130BE09F93AF93BF93EF93FF93BEDDFF91EF917C
S1130BF0BF91AF919F918F917F916F915F914F9131
S1130C003F912F910F900FBE0F901F9018951F9238
S1130C100F920FB60F9211242F933F934F935F932C
S1130C206F937F938F939F93AF93BF93EF93FF93B0
S1130C309BDDFF91EF91BF91AF919F918F917F9138
S1130C406F915F914F913F912F910F900FBE0F9035
S1130C501F9018951F920F920FB60F9211242F9385
S1130C603F934F935F936F937F938F939F93AF9330
S1130C70BF93EF93FF9378DDFF91EF91BF91AF9115
S1130C809F918F917F916F915F914F913F912F91A0
S1130C900F900FBE0F901F9018951F920F920FB6D2
S1130CA00F9211242F933F934F935F936F937F93EE
S1130CB08F939F93AF93BF93EF93FF9355DDFF9172
S1130CC0EF91BF91AF919F918F917F916F915F91C0
S1130CD04F913F912F910F900FBE0F901F90189539
S1130CE0CF93DF931F92CDB7DEB78FB78983F89484
S1130CF089810F90DF91CF91089580E090E00E9468
S1130D008B14813129F061E180E090E00C9493141C
S1130D100895882339F0662311F05B9A01C05B982B
S1130D20539A089553985B980895CF92DF92EF9267
S1130D30FF926B017C01D4DFC114D104E104F104FE
S1130D4081F0B701A60194E076956795579547958C
S1130D509A95D1F747709FEF940F953018F045E0BE
S1130D6001C040E04093FD03C114D104E104F10447
S1130D7041F02C2D27709FEF920F953018F025E04D
S1130D8001C020E02093FE038FBFFF90EF90DF901F
S1130D90CF900895AF92BF92CF92DF92EF92FF92DD
S1130DA00F931F93CF93DF939BDFB090B403B110E5
S1130DB06DC0ADEFB3E020E0F12CAA24A39444E687
S1130DC050E068EC70E0C6E2D2E09D919923B1F165
S1130DD0EF2C20E030E0092F10E020173107F4F465
S1130DE0EE2DF0E06F01CC0CDD1CEC0DFD1DEB5481
S1130DF0FC4FA08252834183E1E0EE0DF0E06F01ED
S1130E00CC0CDD1CEC0DFD1DEB54FC4F1082E39467
S1130E10E394728361832F5F3F4FDFCF990FF90E05
S1130E20EF2DF0E09F01220F331FE20FF31FEB546D
S1130E30FC4F1082F394D283C18321E093E0AF3F4F
S1130E40B90719F62111F092B4039091B403E92F74
S1130E50F0E09F01220F331FE20FF31FEB54FC4F0E
S1130E6010829F5F26E232E032832183E92FF0E093
S1130E709F01220F331FE20FF31FEB54FC4F2FEFA0
S1130E802083128211821092B40301C09B2D8FBF64
S1130E90892F8B19DF91CF911F910F91FF90EF90C4
S1130EA0DF90CF90BF90AF900895CF93C82F61E0AB
S1130EB080E00E94A40FEAE7F0E08081877F8083CE
S1130EC083E080937E0084E88083C0937C008081EB
S1130ED08061808380818860808380818064808356
S1130EE0CF910895EAE7F0E080818F7D808380814F
S1130EF0877F808361E080E00C94BA0FF1DEE82FF5
S1130F0020910004309101044091020450910304A3
S1130F106091040470910504809106049091070483
S1130F20EFBF08952F923F924F925F926F927F92FC
S1130F308F929F92AF92BF92CF92DF92EF92FF92E5
S1130F400F931F93CF93DF9300D000D000D0CDB781
S1130F50DEB729833A83942E852E762E672E582E5B
S1130F60492E209144013091450140914601509110
S1130F704701609148017091490180914A01909123
S1130F804B01A980BA80C92CD82CE72CF62C052D4E
S1130F90142D0E94BE1111F008F05FC5BD82AC8211
S1130FA09501492D582D672D762D852D942DAAE078
S1130FB00E94A911209344013093450140934601B6
S1130FC050934701609348017093490180934A010B
S1130FD090934B0185DE23B199B18FBF809143017A
S1130FE080934201E0904101E0924301F09040017E
S1130FF0F0924101F0913F01F0933E01E0913D01F7
S1131000E0933F0110913C0110933B01B0913A01F0
S1131010B0933C012090390160913801609339010B
S1131020A09037015091360150933701309035012B
S11310304091340140933501B09033013091320135
S113104030933301C0903101809130018E838093BD
S11310503101022F017071E0702770934001A0915B
S1131060A403A0933A0170919B0370933D01DD2486
S1131070D394822F8074898326FDD12CD092380199
S1131080D22ED094DD1CDD24DD1CD0923601DD246B
S1131090D394892F80748A8396FDD12CD092340105
S11310A0D92ED094DD1CDD24DD1CD0923201DD2448
S11310B0D394892F80718B8394FDD12CD0923001ED
S11310C0EE2041F0FF2031F0011104C001E0009353
S11310D02F0102C010922F01111104C0B11102C0DE
S11310E0AA2321F0A1E0A0932E0102C010922E01A8
S11310F0F11104C0E11102C0772321F071E0709373
S11311002D0102C010922D01211005C0611103C0F0
S11311108981811104C061E060932C0102C01092A6
S11311202C01A11004C0511102C027FD04C021E00C
S113113020932B0102C010922B01311005C04111E4
S113114003C08A81811104C021E020932A0102C0D6
S113115010922A01B11004C0311102C097FD04C0DD
S113116091E09093290102C010922901C11006C098
S11311709E81911103C08B81811104C081E0809311
S1131180280102C01092280110910101612F70E022
S113119080E090E0CADD80912701181731F0612FBB
S11311A046D680910101809327018091400190915E
S11311B0410189132AC020913A0190913C012913DD
S11311C024C020913D0190913F0129131EC020911C
S11311D0380190913901291318C02091360190915A
S11311E03701291312C0209134019091350129133C
S11311F00CC02091320190913301291306C0209133
S1131200300190913101291779F0A0903001C090FC
S11312103201E0903401009136012091380140916F
S11312203D0160913A0120D68091260190912501DB
S1131230891318C02091240190912301291312C00D
S1131240209122019091210129130CC020912001A9
S113125090911F01291306C020911E0190911D0138
S11312602917E9F000911E012091200140912201EB
S1131270609124012AD680912601809325018091D2
S11312802401809323018091220180932101809184
S1131290200180931F0180911E0180931D01809184
S11312A00101833209F479C168F48131D1F018F471
S11312B08823E1F1AEC2813209F483C0823209F499
S11312C013C1A7C2813409F4B6C120F4813309F4EF
S11312D06CC19FC2823409F470C2833409F495C28C
S11312E098C21092260110922401109222011092A9
S11312F0200110921E0180912E01811197C28091CC
S11313002D01811190C210921501109216011092B4
S11313101701109218011092190110921A011092DB
S11313201B0110921C011092010176C280912E01C2
S113133081116FC280912D0181116BC280912F01A7
S1131340811111C01092150110921601109217010B
S1131350109218011092190110921A0110921B0197
S113136010921C0159C280914201882349F0809156
S11313703B01811105C080913E01882309F48CC290
S11313802C813D81492D582D672D762D852D942D49
S11313902C503E4F4F4F5F4F6F4F7F4F8F4F9F4F9C
S11313A020931501309316014093170150931801AF
S11313B06093190170931A0180931B0190931C018F
S11313C06BC2A0900D01B0900E01C0900F01D0909F
S11313D01001E0901101F09012010091130110919D
S11313E014019501A601B701C801A0E0D0D761F0AE
S11313F02C813D81492D582D672D762D852D942DD9
S1131400BDD710F010922201E0912F01E11111C01B
S113141010921501109216011092170110921801E2
S11314201092190110921A0110921B0110921C01C2
S113143024C080914201811120C02C813D81492D1D
S1131440582D672D762D852D942D28513C4F4F4FC7
S11314505F4F6F4F7F4F8F4F9F4F209315013093F6
S1131460160140931701509318016093190170936A
S11314701A0180931B0190931C0180912B018823F6
S113148009F4CAC180912C018111C6C1809128013F
S1131490882309F4C1C1EE2309F4BEC1A09015014B
S11314A0B0901601C0901701D0901801E090190176
S11314B0F0901A0100911B0110911C019501A601E5
S11314C0B701C801A0E063D709F4A6C12C813D810E
S11314D0492D582D672D762D852D942D4FD708F441
S11314E09BC1109222015EC1A0900D01B0900E012B
S11314F0C0900F01D0901001E0901101F090120102
S113150000911301109114019501A601B701C801BE
S1131510A0E03DD761F02C813D81492D582D672DE8
S1131520762D852D942D2AD710F0109222018091CA
S11315302901882341F01092200110921E0183E2B8
S11315408093010169C190912F01809142019923F7
S113155009F4A6C08111FBC12C813D81492D582D70
S1131560672D762D852D942D28513C4F4F4F5F4F7D
S11315706F4F7F4F8F4F9F4F20931501309316016C
S113158040931701509318016093190170931A0145
S113159080931B0190931C01DAC180912F0181116A
S11315A03BC181E38093010137C180912F018823DE
S11315B021F090912E019923A1F01092150110921F
S11315C0160110921701109218011092190110922D
S11315D01A0110921B0110921C01882309F41CC1EA
S11315E0EEC180914201882329F080913B01882338
S11315F009F4E5C12C813D81492D582D672D762DA7
S1131600852D942D2C503E4F4F4F5F4F6F4F7F4F82
S11316108F4F9F4F2093150130931601409317016C
S1131620509318016093190170931A0180931B0160
S113163090931C01C4C180912A01882359F110920E
S1131640200110921E012C813D81492D582D672DBA
S1131650762D852D942D28513C4F4F4F5F4F6F4F62
S11316607F4F8F4F9F4F20930D0130930E01409376
S11316700F01509310016093110170931201809334
S113168013019093140181E08093240182E48093F8
S11316900101C2C0F0912F0180914201F1111EC0DD
S11316A01092150110921601109217011092180150
S11316B01092190110921A0110921B0110921C0130
S11316C01092200110921E01882309F4A5C0909164
S11316D00C0181E0892780930C019EC0811120C0F8
S11316E02C813D81492D582D672D762D852D942DE6
S11316F028513C4F4F4F5F4F6F4F7F4F8F4F9F4F3E
S1131700209315013093160140931701509318014B
S11317106093190170931A0180931B0190931C012B
S1131720E0912B01E11104C081E08093220102C009
S113173010922201FF2309F46FC0A0901501B0900C
S11317401601C0901701D0901801E0901901F09093
S11317501A0100911B0110911C019501A601B7010A
S1131760C801A0E014D609F457C02C813D81492D4D
S1131770582D672D762D852D942D00D608F44CC058
S113178080910C0181110EC0E11104C081E08093AD
S1131790220142C01092200181E080931E01109228
S11317A022013AC081E08093200110921E01109220
S11317B00C0182E2809301012FC0A0900D01B09032
S11317C00E01C0900F01D0901001E0901101F09033
S11317D0120100911301109114012C813D81492DB6
S11317E0582D672D762D852D942DC8D510F0109287
S11317F0240180912C01882379F010922401109205
S1131800260183E48093010107C080912F01811197
S113181003C081E18093010180912401882331F088
S113182093EE998305C093EC998302C083EC89837A
S113183080912201882311F020E101C020E09981E8
S1131840922B998380912001882311F098E001C0A4
S113185090E08981892B898380911E01882311F06E
S113186084E001C080E09981982B998380912601BE
S1131870882319F08FEF8A8302C097EF9A8330DAB6
S1131880998195B99A8198B99FEF9BB99091260156
S113189090939A038FBFE1C080912A01882309F4B1
S11318A0BBCF809129018111B7CF80912C0188236E
S11318B009F4B2CF80912B018111AECF8091280120
S11318C0882309F4A9CFE1E0E0932601A090150153
S11318D0B0901601C0901701D0901801E090190142
S11318E0F0901A0100911B0110911C019501A601B1
S11318F0B701C801A0E04BD509F48ECF2C813D81FE
S1131900492D582D672D762D852D942D37D508F426
S113191083CFE093220128513C4F4F4F5F4F6F4FCD
S11319207F4F8F4F9F4F20930D0130930E014093B3
S11319300F01509310016093110170931201809371
S113194013019093140181E28093010165CFA0906B
S11319501501B0901601C0901701D0901801E090C5
S11319601901F0901A0100911B0110911C019501BD
S1131970A601B701C801A0E00AD509F44DCF2C8116
S11319803D81492D582D672D762D852D942DF6D426
S113199008F442CF80910C01811106C081E080934C
S11319A0200110921E0138CF1092200181E0809313
S11319B01E0110920C0181E4809301012DCF8091CE
S11319C02E01811129CF80912B01811103C091E057
S11319D09093220190912A0191111ECF9091290197
S11319E0992309F419CF90912C01911115CF8823D3
S11319F009F412CF80912801882309F40DCFA09017
S1131A001501B0901601C0901701D0901801E09014
S1131A101901F0901A0100911B0110911C0195010C
S1131A20A601B701C801A0E0B2D409F4F5CE2C8117
S1131A303D81492D582D672D762D852D942D9ED4CD
S1131A4008F4EACE1092200181E080931E011092E6
S1131A50220181E480930101DFCE26960FB6F8942B
S1131A60DEBF0FBECDBFDF91CF911F910F91FF90CD
S1131A70EF90DF90CF90BF90AF909F908F907F902A
S1131A806F905F904F903F902F900895880F8160E2
S1131A9083BF889583B78E7F83BF0895CF938CE3EC
S1131AA084B983EC85B988E287B980E388B98AE090
S1131AB08AB987EF8BB984E080936C0082E08BBB9A
S1131AC08093680028D264E080E03ED268E080E041
S1131AD03BD2C1E0C093800082E1809381001092E8
S1131AE0850010928400C093890083EF809388005E
S1131AF087E286BBC0936F000DD284B780937303D3
S1131B00EFD810924C01109200041092010410922C
S1131B10020410920304109204041092050410921B
S1131B200604109207041092FF031092AB0398E48A
S1131B30909302011092A7031092A8031092A90394
S1131B401092AA031092A6031092A5031092A40364
S1131B501092A0031092A1031092A2031092A30367
S1131B6010929C0310929D0310929E0310929F0367
S1131B7010929B0310929A0395E2E5E7F3E0DF01EC
S1131B801D929A95E9F71092740390E2E3E5F3E06D
S1131B90DF011D929A95E9F71092520310925103B6
S1131BA01092500320E031E0E0E5F2E0DF01A9010A
S1131BB01D9241505040E1F710924F0210924E0294
S1131BC0109273038FBF99D860E076E980E090E0CB
S1131BD03ED0789482E0C2D0EBD081E0BFD0C093F5
S1131BE04C0180914C01882359F088D99BD980916C
S1131BF0FF03811102C060E08CD880E047DFF1CFA1
S1131C00F89480B7806880BF53D060E080E081D8CA
S1131C1069D966D8C82F10926F0010928000109274
S1131C2081001092820068E080E0A4D159D85F93CB
S1131C3050E85093610050E0509361005F918FBF72
S1131C40CFBF84E023DF80E090E0CF910895CF926E
S1131C50DF92EF92FF926B017C01519A599A50984E
S1131C60589A62E080E070D1A701960184E0220FC7
S1131C70331F441F551F8A95D1F760E072E18AE74C
S1131C8090E023D321503109832F8F708093C500B6
S1131C902093C40086E08093C20080E48093C00057
S1131CA088EF8093C100FF90EF90DF90CF9008956C
S1131CB01092C1000895AF92BF92DF92EF92FF920B
S1131CC00F931F93CF93DF9300D0CDB7DEB75C01A2
S1131CD07B018FB78A83F894DA806F3F710518F01F
S1131CE0EE24EA94F12C80914E0290914F028C01E3
S1131CF00E0D1F1D98012F5F3F4F2F3F310549F0F7
S1131D0040F0DFBE80E0C2DE8FB78983F894D980CB
S1131D10EACFA701B501805B9D4F45D310934F02D5
S1131D2000934E02F801E05BFD4F1082DFBE80910C
S1131D304D02811107C081E080934D02F50180813D
S1131D408093C6000F900F90DF91CF911F910F9158
S1131D50FF90EF90DF90BF90AF900895EF92FF92C5
S1131D600F931F93CF93DF93C82F08E611E0D1E0C0
S1131D708DE4E82E81E0F82ECC2399F01F930F9385
S1131D80DF931F92FF92EF9217D3BC018DE491E091
S1131D9092DFC1500F900F900F900F900F900F9003
S1131DA0EBCFDF91CF911F910F91FF90EF900895AA
S1131DB0FF920F931F93CF93DF9300E411E01F93DF
S1131DC00F93FF24F394FF921F92CDE4D1E0DF93AD
S1131DD0CF93F2D2BC01CE016EDF1F928EED8F93B2
S1131DE01F928BEA8F9387E191E09F938F93FF92E9
S1131DF01F92DF93CF93E0D2BC01CE015CDF1F932F
S1131E000F93FF921F92DF93CF93D6D22DB73EB795
S1131E102A5E3F4F0FB6F8943EBF0FBE2DBFBC01E4
S1131E20CE01DF91CF911F910F91FF9044CF1F926C
S1131E306F931F928F9385EF90E09F938F9381E030
S1131E408F931F928DE491E09F938F93B5D22DB71A
S1131E503EB7265F3F4F0FB6F8943EBF0FBE2DBF6F
S1131E60BC018DE491E027CFAF92CF92EF920F9314
S1131E701F92AF921F92CF921F92EF921F920F93D5
S1131E801F922F931F924F931F926F931F928F93C2
S1131E9081EA90E09F938F9381E08F931F928DE46A
S1131EA091E09F938F9388D22DB73EB72A5E3F4F20
S1131EB00FB6F8943EBF0FBE2DBFBC018DE491E078
S1131EC00F91EF90CF90AF90F6CE0F931F920F9398
S1131ED01F922F931F924F931F926F931F928F9372
S1131EE088E690E09F938F9381E08F931F928DE417
S1131EF091E09F938F9360D22DB73EB7205F3F4F01
S1131F000FB6F8943EBF0FBE2DBFBC018DE491E027
S1131F100F91D1CE0895CF93DF931F92CDB7DEB743
S1131F208FEF809364008FB78983F89489815F93DE
S1131F3050E85093610050E0509361005F918FBF6F
S1131F400F90DF91CF910895CF93DF931F92CDB778
S1131F50DEB79FB79983F8949981811106C0609583
S1131F60809164006823609364009FBF0F90DF91A9
S1131F70CF910895CF93DF931F92CDB7DEB79FB76C
S1131F809983F8949981811105C080916400682B2C
S1131F90609364009FBF0F90DF91CF9108955058D4
S1131FA0BB27AA270ED0E5C0D6D030F0DBD020F076
S1131FB031F49F3F11F41EF4CBC00EF4E095E7FB1F
S1131FC0C1C0E92FE7D080F3BA176207730784070B
S1131FD0950718F071F49EF5FFC00EF4E0950B2EF2
S1131FE0BA2FA02D0B01B90190010C01CA01A00167
S1131FF01124FF27591B99F0593F50F4503E68F1C2
S11320001A16F040A22F232F342F4427585FF3CF02
S1132010469537952795A795F0405395C9F77EF4D3
S11320201F16BA0B620B730B840BBAF09150A1F01C
S1132030FF0FBB1F661F771F881FC2F70EC0BA0FA2
S1132040621F731F841F48F4879577956795B7952A
S1132050F7959E3F08F0B3CF9395880F08F0992722
S1132060EE0F97958795089504D06894B111B5C083
S1132070089598D088F09F5790F0B92F9927B751B9
S1132080A0F0D1F0660F771F881F991F1AF0BA9538
S1132090C9F712C0B13081F09FD0B1E008959CC05F
S11320A0672F782F8827B85F39F0B93FCCF386952E
S11320B077956795B395D9F73EF49095809570958B
S11320C061957F4F8F4F9F4F0895E89409C097FB08
S11320D03EF490958095709561957F4F8F4F9F4FFB
S11320E09923A9F0F92F96E9BB279395F69587953F
S11320F077956795B795F111F8CFFAF4BB0F11F402
S113210060FF1BC06F5F7F4F8F4F9F4F16C08823A8
S113211011F096E911C0772321F09EE8872F762FDE
S113212005C0662371F096E8862F70E060E02AF01F
S11321309A95660F771F881FDAF7880F969587950B
S113214097F9089597F99F6780E870E060E0089533
S11321509FEF80EC089500240A94161617061806BB
S11321600906089500240A94121613061406050697
S11321700895092E0394000C11F4882352F0BB0F28
S113218040F4BF2B11F460FF04C06F5F7F4F8F4F8B
S11321909F4F089557FD9058440F551F59F05F3FC6
S11321A071F04795880F97FB991F61F09F3F79F075
S11321B087950895121613061406551FF2CF4695F7
S11321C0F1DF08C0161617061806991FF1CF869579
S11321D07105610508940895E894BB27662777275D
S11321E0CB0197F908950BD0C4CFB5DF28F0BADF3F
S11321F018F0952309F0A6CFABCF1124EECFCADF98
S1132200A0F3959FD1F3950F50E0551F629FF00105
S1132210729FBB27F00DB11D639FAA27F00DB11D5E
S1132220AA1F649F6627B00DA11D661F829F2227E7
S1132230B00DA11D621F739FB00DA11D621F839F6E
S1132240A00D611D221F749F3327A00D611D231F44
S1132250849F600D211D822F762F6A2F11249F5792
S113226050408AF0E1F088234AF0EE0FFF1FBB1FB5
S1132270661F771F881F91505040A9F79E3F510554
S113228070F060CFAACF5F3FECF3983EDCF3869505
S113229077956795B795F795E7959F5FC1F7FE2BFF
S11322A0880F911D9695879597F90895DB018F9373
S11322B09F933CD0BF91AF91A29F800D911DA39F8E
S11322C0900DB29F900D11240895A1E21A2EAA1B1D
S11322D0BB1BFD010DC0AA1FBB1FEE1FFF1FA217D2
S11322E0B307E407F50720F0A21BB30BE40BF50BCF
S11322F0661F771F881F991F1A9469F76095709558
S1132300809590959B01AC01BD01CF010895A29FDA
S1132310B001B39FC001A39F700D811D1124911DB5
S1132320B29F700D811D1124911D0895F0DFA59FAA
S1132330900DB49F900DA49F800D911D11240895BC
S11323402A0D3B1D4C1D5D1D6E1D7F1D801F911FA1
S113235008950024A7FD00942A0F301D401D501D30
S1132360601D701D801D901D08952A193B094C099C
S11323705D096E097F09800B910B08952A153B05B1
S11323804C055D056E057F058007910708950024BF
S1132390A7FD00942A173005400550056005700517
S11323A0800590050895FB01DC0102C001900D92A7
S11323B041505040D8F70895AEE0B0E0E1EEF1E1CD
S11323C0CEC20D891E898F89988D2EE02C831A83A5
S11323D0098397FF02C080E090E801979E838D8374
S11323E0AE01455E5F4F698D7A8DCE01019611D0A5
S11323F04D815E8157FD0AC02F81388542175307EE
S11324000CF49A01F801E20FF31F10822E96E4E017
S1132410C2C2ABE0B0E0EEE0F2E193C26C017B013A
S11324208A01FC0117821682838181FFBFC1CE011C
S113243001963C01F6019381F70193FD859193FF89
S113244081917F01882309F4ADC1853239F493FD6C
S1132450859193FF81917F01853221F4B60190E04B
S1132460C0D1E8CF912C212C312CFFE1F315D8F009
S11324708B3279F038F4803279F08332A1F4232D51
S113248020611DC08D3261F0803369F4232D2160F9
S113249016C0832D8260382EE32DE4603E2E2AC0C0
S11324A0F32DF8601DC037FC2DC020ED280F2A3015
S11324B040F08E32B9F436FC75C1232D2064322EDF
S11324C019C036FE06C08AE0989E200D1124922E73
S11324D011C0EAE02E9E200D1124222EF32DF0626D
S11324E03F2E08C08C3621F4832D8068382E02C01C
S11324F0883641F4F70193FD859193FF81917F0123
S11325008111B3CF982F9F7D9554933028F40C5F9D
S11325101F4F9FE399830DC0833631F0833771F0E9
S1132520833509F055C020C0F801808189830E5F8E
S11325301F4F88248394912C530112C02801F2E088
S11325404F0E511CF801A080B18036FE03C0692DE6
S113255070E002C06FEF7FEFC50138D14C018201FA
S1132560F32DFF773F2E15C0280122E0420E511CA7
S1132570F801A080B18036FE03C0692D70E002C06E
S11325806FEF7FEFC50117D14C01F32DF0683F2E9B
S1132590820133FC19C0822D90E088169906A0F4BC
S11325A0B60180E290E01DD12A94F5CFF50137FC05
S11325B0859137FE81915F01B60190E012D121101F
S11325C02A9421E0821A91088114910479F7E1C0D8
S11325D0843611F0893639F5F80137FE07C0608179
S11325E07181828193810C5F1F4F08C0608171816A
S11325F0072E000C880B990B0E5F1F4FF32DFF76EF
S11326003F2E97FF09C090958095709561957F4FF7
S11326108F4F9F4FF0683F2E2AE030E0A3011DD179
S1132620882E861844C0853731F4232D2F7EB22E90
S11326302AE030E025C0932D997FB92E8F36C1F062
S113264018F4883579F0AEC0803719F0883721F056
S1132650A9C0E92FE061BE2EB4FE0DC0FB2DF460CD
S1132660BF2E09C034FE0AC0292F2660B22E06C030
S113267028E030E005C020E130E002C020E132E093
S1132680F801B7FE07C060817181828193810C5F7C
S11326901F4F06C06081718180E090E00E5F1F4F84
S11326A0A301DBD0882E8618FB2DFF773F2E36FE44
S11326B00DC0232D2E7FA22E891458F434FE0BC096
S11326C032FC09C0832D8E7EA82E05C0B82CA32C05
S11326D003C0B82C01C0B92CA4FE0FC0FE01E80D44
S11326E0F11D8081803321F49A2D997EA92E09C091
S11326F0A2FE06C0B394B39404C08A2D867809F070
S1132700B394A3FC10C0A0FE06C0B21480F4280C3D
S1132710922C9B180DC0B21458F4B60180E290E0DC
S113272060D0B394F8CFB21418F42B1802C0982CCC
S1132730212CA4FE0FC0B60180E390E052D0A2FE8B
S113274016C0A1FC03C088E790E002C088E590E0D1
S1132750B6010CC08A2D867851F0A1FE02C08BE22E
S113276001C080E2A7FC8DE2B60190E03AD0891462
S113277030F4B60180E390E034D09A94F8CF8A9490
S1132780F301E80DF11D8081B60190E02AD081109B
S1132790F6CF222009F44ECEB60180E290E021D09B
S11327A02A94F7CFF6018681978102C08FEF9FEFBD
S11327B02B96E2E1E2C0FC010590615070400110EB
S11327C0D8F7809590958E0F9F1F0895FC01615056
S11327D0704001900110D8F7809590958E0F9F1F3F
S11327E008950F931F93CF93DF93FB01238121FD62
S11327F003C08FEF9FEF2CC022FF16C04681578184
S1132800248135814217530744F4A081B1819D018D
S11328102F5F3F4F318320838C93268137812F5F35
S11328203F4F3783268314C08B01EC01FB010084E6
S1132830F185E02D0995892BE1F6D80116968D9145
S11328409C911797019617969C938E931697CE0199
S1132850DF91CF911F910F910895FA01AA27283093
S113286051F1203181F1E8946F936E7F6E5F7F4F59
S11328708F4F9F4FAF4FB1E03ED0B4E03CD0670FD5
S1132880781F891F9A1FA11D680F791F8A1F911D28
S1132890A11D6A0F711D811D911DA11D20D009F478
S11328A068943F912AE0269F11243019305D3193BA
S11328B0DEF6CF010895462F4770405D4193B3E0A3
S11328C00FD0C9F7F6CF462F4F70405D4A3318F04A
S11328D0495D31FD4052419302D0A9F7EACFB4E0FB
S11328E0A6959795879577956795BA95C9F70097B3
S11328F06105710508959B01AC010A2E0694579554
S1132900479537952795BA95C9F7620F731F841FAA
S1132910951FA01D0895F999FECF92BD81BDF89A27
S1132920992780B50895262FF999FECF1FBA92BD35
S113293081BD20BD0FB6F894FA9AF99A0FBE01969C
S113294008952F923F924F925F926F927F928F924F
S11329509F92AF92BF92CF92DF92EF92FF920F932A
S11329601F93CF93DF93CDB7DEB7CA1BDB0B0FB634
S1132970F894DEBF0FBECDBF09942A8839884888F1
S11329805F846E847D848C849B84AA84B984C88487
S1132990DF80EE80FD800C811B81AA81B981CE0F7E
S11329A0D11D0FB6F894DEBF0FBECDBFED01089563
S10729B0F894FFCFC5
S10729B420114800A2
S9030000FC
