S02100004C616E64437275697365722D436F6E74726F6C6C65725F53572E737265634D
S1130000B5C0000063C600003EC6000019C600006B
S1130010CDC00000F2C50000CDC50000A8C5000099
S113002083C500005EC5000039C5000014C500008A
S1130030EFC400002AC10000C8C40000A3C400002B
S11300407EC4000059C40000F5C1000032C40000A1
S11300502CC2000063C2000009C40000E4C3000015
S1130060BFC300009AC30000232046534D2D4F7593
S1130070747075743A204F6B6C3D25642C204F705E
S113008076673D25642C204F70766F3D25642C20C7
S11300904F6D313D25642C204F6D323D25640D0A92
S11300A000232046534D2D20496E7075743A204923
S11300B066623D25642C204975763D25642C2049D3
S11300C06F733D25642C2049736B673D25642C2098
S11300D049736B6F3D25642C20497361673D25642A
S11300E02C204973616F3D25642C20497368673D5A
S11300F025640D0A00232046534D2D20537461744A
S1130100653A20307825303258202D2D3E20307825
S1130110253032580D0A000D0A4C616E6443727525
S1130120697365722D436F6E74726F6C207665729D
S113013073696F6E20323025303364253033640D9B
S11301400A3D3D3D3D3D3D3D3D3D3D3D3D3D3D3D0E
S11301503D3D3D3D3D3D3D3D3D3D3D3D3D3D3D3DCB
S11301603D3D3D3D3D3D0D0A0D0A000011241FBEDD
S1130170CFEFD8E0DEBFCDBF11E0A0E0B1E0E0E01A
S1130180FAE202C005900D92A230B107D9F724E03B
S1130190A2E0B1E001C01D92A730B207E1F70E94CE
S11301A05A0D0C94FE149895000008951F920F9216
S11301B00FB60F921124AF92BF92CF92DF92EF92BB
S11301C0FF920F931F932F933F934F935F936F93DC
S11301D07F938F939F93AF93BF93EF93FF93329B40
S11301E03BC0F091FF03E09100048F2F9E2F892BD9
S11301F099F12F2F3E2F40E050E060E070E080E066
S113020090E0A0900201B0900301C0900401D0904E
S11302100501E0900601F09007010091080110919A
S113022009010E94DB11B1E0A4E60E94ED1111F076
S113023008F0B0E0B0939A03F0930201E093030155
S11302401092040110920501109206011092070108
S11302501092080110920901FF91EF91BF91AF91A3
S11302609F918F917F916F915F914F913F912F91CA
S11302701F910F91FF90EF90DF90CF90BF90AF90C0
S11302800F900FBE0F901F9018951F920F920FB6EC
S11302900F9211245F926F927F928F929F92AF92EE
S11302A0BF92CF92DF92EF92FF920F931F932F93FF
S11302B03F934F935F936F937F938F939F93AF93EA
S11302C0BF93CF93DF93EF93FF932091FF0330917C
S11302D00004409101045091020460910304709160
S11302E004048091050490910604A1E00E94CF11BA
S11302F02093FF03309300044093010450930204BD
S1130300609303047093040480930504909306049B
S11303108091B303811101C067D5F1D5522E632EAC
S1130320742E852E962ED72FC82FB92FA090AB03ED
S1130330B090AC03C090AD03D090AE03E090AF0397
S1130340F090B0030091B1031091B2030E94E41144
S113035008F445C0A091B303EA2FF0E0CF01880F61
S1130360991FE80FF91FEC54FC4FA180B28095014E
S113037040E050E060E070E080E090E0A52CB62C16
S1130380C72CD82CE92CFD2E0C2F1B2F0E94C61134
S11303902093AB033093AC034093AD035093AE036F
S11303A06093AF037093B0038093B1039093B2034F
S11303B0AF5FA093B3038081813031F058F08F3F59
S11303C071F41092B3030BC08093FE0361E081E0EB
S11303D0B9D405C01092FE0360E081E0B3D48091EB
S11303E0B303883138F01092B3031092FE0360E037
S11303F081E0A8D4FF91EF91DF91CF91BF91AF91AC
S11304009F918F917F916F915F914F913F912F9128
S11304101F910F91FF90EF90DF90CF90BF90AF901E
S11304209F908F907F906F905F900F900FBE0F9072
S11304301F9018951F920F920FB60F9211242F93AD
S11304403F934F938F939F93EF93FF934091C600F5
S113045080915003909151039C012F5F3F4F309343
S1130460510320935003FC01EE5AFC4F4083F901E1
S1130470EE5AFC4F10824A3019F481E080934F0306
S11304802032310530F08FE190E090935103809356
S11304905003FF91EF919F918F914F913F912F9135
S11304A00F900FBE0F901F9018951F920F920FB6CA
S11304B00F9211242F933F934F938F939F93EF9316
S11304C0FF9380914D0290914E02892BD9F0809137
S11304D04F028093C60020914D0230914E0240E0BD
S11304E0842F90E08217930738F4FC01E15BFD4F01
S11304F0818180834F5FF4CF2150310930934E02C4
S113050020934D02FF91EF919F918F914F913F91D5
S11305102F910F900FBE0F901F9018951F920F925E
S11305200FB60F9211248F929F92AF92BF92CF92E7
S1130530DF92EF92FF922F933F934F935F936F93CA
S11305407F938F939F93AF93BF93CF93DF93EF9357
S1130550FF93409178008091790050E0582B80916E
S1130560AA034D33510518F0EA01EC9702C0C0E02C
S1130570D0E0909100019F5F90930001943628F0A1
S113058010920001823019F414C0823081F083305B
S113059038F4813009F0E0C082E08093AA03E2C01D
S11305A0833009F46BC0843009F46CC0D5C0911158
S11305B0D9C0C090A603D090A703E090A803F09000
S11305C0A903789420E030E0A901C701B6010E9494
S11305D03210AE0160E070E08823E9F0CB01BA018B
S11305E00E9467102AE037ED43EA5CE30E94191188
S11305F04B015C0128E431EE4AE75FE3C701B60131
S11306000E9419119B01AC01C501B4010E94CE0FD7
S11306104B015C0106C0CB01BA010E9467104B017B
S11306205C01C701B6010E943B109B01AC016DE265
S113063078E88CE290E00E947C1120E030ED42E00A
S113064050E00E948B11F8948092A6039092A70325
S1130650A092A803B092A9033093A5032093A40306
S113066081E02430394208F080E08093A30388ECD1
S113067080937C0083E08093AA0374C084E0809319
S1130680AA0370C08091000181116CC0C0909F03C7
S1130690D090A003E090A103F090A203789420E00E
S11306A030E0A901C701B6010E943210AE0160E03A
S11306B070E08823D9F0CB01BA010E9467102FE6BD
S11306C032E143E05BE30E9419114B015C012EEE21
S11306D03CE74FE75FE3C701B6010E9419119B0194
S11306E0AC01C501B4010E94CE0F04C0CB01BA0114
S11306F00E946710F89460939F037093A003809303
S1130700A1039093A20323EB30E445E953E40E9450
S1130710CD0F20E030EA47E85FE30E94191120E0A2
S113072030E048EC51E40E94CE0F20E030E048EC89
S113073052E40E9419110E94361060939B03709337
S11307409C0380939D0390939E0380EC80937C0094
S113075081E08093AA0306C080EC80937C0081E052
S11307608093AA03FF91EF91DF91CF91BF91AF9155
S11307709F918F917F916F915F914F913F912F91B5
S1130780FF90EF90DF90CF90BF90AF909F908F90AD
S11307900F900FBE0F901F9018951F920F920FB6D7
S11307A00F9211242F933F934F935F936F937F93F3
S11307B08F939F93AF93BF93EF93FF93F4DCFF91D9
S11307C0EF91BF91AF919F918F917F916F915F91C5
S11307D04F913F912F910F900FBE0F901F9018953E
S11307E01F920F920FB60F9211242F933F934F93A2
S11307F05F936F937F938F939F93AF93BF93EF9385
S1130800FF93CBDFFF91EF91BF91AF919F918F91B8
S11308107F916F915F914F913F912F910F900FBEF8
S11308200F901F9018951F920F920FB60F921124DC
S11308302F933F934F935F936F937F938F939F93E4
S1130840AF93BF93EF93FF93A8DFFF91EF91BF9115
S1130850AF919F918F917F916F915F914F913F9154
S11308602F910F900FBE0F901F9018951F920F920B
S11308700FB60F9211242F933F934F935F936F936F
S11308807F938F939F93AF93BF93EF93FF9385DFF2
S1130890FF91EF91BF91AF919F918F917F916F9154
S11308A05F914F913F912F910F900FBE0F901F902A
S11308B018951F920F920FB60F9211242F933F9306
S11308C04F935F936F937F938F939F93AF93BF9354
S11308D0EF93FF9362DFFF91EF91BF91AF919F91EF
S11308E08F917F916F915F914F913F912F910F90D5
S11308F00FBE0F901F9018951F920F920FB60F9274
S113090011242F933F934F935F936F937F938F9310
S11309109F93AF93BF93EF93FF933FDFFF91EF91CB
S1130920BF91AF919F918F917F916F915F914F9103
S11309303F912F910F900FBE0F901F9018951F920B
S11309400F920FB60F9211242F933F934F935F93FF
S11309506F937F938F939F93AF93BF93EF93FF9383
S11309601CDFFF91EF91BF91AF919F918F917F9188
S11309706F915F914F913F912F910F900FBE0F9008
S11309801F9018951F920F920FB60F9211242F9358
S11309903F934F935F936F937F938F939F93AF9303
S11309A0BF93EF93FF93F9DEFF91EF91BF91AF9166
S11309B09F918F917F916F915F914F913F912F9173
S11309C00F900FBE0F901F9018951F920F920FB6A5
S11309D00F9211242F933F934F935F936F937F93C1
S11309E08F939F93AF93BF93EF93FF93D6DEFF91C3
S11309F0EF91BF91AF919F918F917F916F915F9193
S1130A004F913F912F910F900FBE0F901F9018950B
S1130A101F920F920FB60F9211242F933F934F936F
S1130A205F936F937F938F939F93AF93BF93EF9352
S1130A30FF93B3DEFF91EF91BF91AF919F918F919F
S1130A407F916F915F914F913F912F910F900FBEC6
S1130A500F901F9018951F920F920FB60F921124AA
S1130A602F933F934F935F936F937F938F939F93B2
S1130A70AF93BF93EF93FF9390DEFF91EF91BF91FC
S1130A80AF919F918F917F916F915F914F913F9122
S1130A902F910F900FBE0F901F9018951F920F92D9
S1130AA00FB60F9211242F933F934F935F936F933D
S1130AB07F938F939F93AF93BF93EF93FF936DDED9
S1130AC0FF91EF91BF91AF919F918F917F916F9122
S1130AD05F914F913F912F910F900FBE0F901F90F8
S1130AE018951F920F920FB60F9211242F933F93D4
S1130AF04F935F936F937F938F939F93AF93BF9322
S1130B00EF93FF934ADEFF91EF91BF91AF919F91D5
S1130B108F917F916F915F914F913F912F910F90A2
S1130B200FBE0F901F9018951F920F920FB60F9241
S1130B3011242F933F934F935F936F937F938F93DE
S1130B409F93AF93BF93EF93FF9327DEFF91EF91B2
S1130B50BF91AF919F918F917F916F915F914F91D1
S1130B603F912F910F900FBE0F901F9018951F92D9
S1130B700F920FB60F9211242F933F934F935F93CD
S1130B806F937F938F939F93AF93BF93EF93FF9351
S1130B9004DEFF91EF91BF91AF919F918F917F916F
S1130BA06F915F914F913F912F910F900FBE0F90D6
S1130BB01F9018951F920F920FB60F9211242F9326
S1130BC03F934F935F936F937F938F939F93AF93D1
S1130BD0BF93EF93FF93E1DDFF91EF91BF91AF914D
S1130BE09F918F917F916F915F914F913F912F9141
S1130BF00F900FBE0F901F9018951F920F920FB673
S1130C000F9211242F933F934F935F936F937F938E
S1130C108F939F93AF93BF93EF93FF93BEDDFF91A9
S1130C20EF91BF91AF919F918F917F916F915F9160
S1130C304F913F912F910F900FBE0F901F901895D9
S1130C401F920F920FB60F9211242F933F934F933D
S1130C505F936F937F938F939F93AF93BF93EF9320
S1130C60FF939BDDFF91EF91BF91AF919F918F9186
S1130C707F916F915F914F913F912F910F900FBE94
S1130C800F901F9018951F920F920FB60F92112478
S1130C902F933F934F935F936F937F938F939F9380
S1130CA0AF93BF93EF93FF9378DDFF91EF91BF91E3
S1130CB0AF919F918F917F916F915F914F913F91F0
S1130CC02F910F900FBE0F901F9018951F920F92A7
S1130CD00FB60F9211242F933F934F935F936F930B
S1130CE07F938F939F93AF93BF93EF93FF9355DDC0
S1130CF0FF91EF91BF91AF919F918F917F916F91F0
S1130D005F914F913F912F910F900FBE0F901F90C5
S1130D101895CF93DF931F92CDB7DEB78FB7898332
S1130D20F89489810F90DF91CF91089580E090E04D
S1130D300E94B114813129F061E180E090E00C94CB
S1130D40B914089590914B01882391F0911104C036
S1130D50539A81E080934B0180914A01861771F088
S1130D60662311F05B9A01C05B9860934A01089571
S1130D70992321F053985B9810924B010895CF92D8
S1130D80DF92EF92FF926B017C01C3DFC114D104A7
S1130D90E104F10481F0B701A60194E0769567952A
S1130DA0579547959A95D1F747709FEF940F9530D3
S1130DB018F045E001C040E04093FC03C114D104A5
S1130DC0E104F10441F02C2D27709FEF920F953030
S1130DD018F025E001C020E02093FD038FBFFF90B1
S1130DE0EF90DF90CF900895AF92BF92CF92DF92B1
S1130DF0EF92FF920F931F93CF93DF938ADFB0900C
S1130E00B303B1106DC0ACEFB3E020E0F12CAA2421
S1130E10A39444E650E068EC70E0C6E2D2E09D9111
S1130E209923B1F1EF2C20E030E0092F10E02017D6
S1130E303107F4F4EE2DF0E06F01CC0CDD1CEC0D69
S1130E40FD1DEC54FC4FA08252834183E1E0EE0D82
S1130E50F0E06F01CC0CDD1CEC0DFD1DEC54FC4FDF
S1130E601082E394E394728361832F5F3F4FDFCF5B
S1130E70990FF90EEF2DF0E09F01220F331FE20FBF
S1130E80F31FEC54FC4F1082F394D283C18321E00E
S1130E9093E0AE3FB90719F62111F092B303909194
S1130EA0B303E92FF0E09F01220F331FE20FF31F7A
S1130EB0EC54FC4F10829F5F26E232E032832183A0
S1130EC0E92FF0E09F01220F331FE20FF31FEC54D0
S1130ED0FC4F2FEF2083128211821092B30301C0C2
S1130EE09B2D8FBF892F8B19DF91CF911F910F916C
S1130EF0FF90EF90DF90CF90BF90AF90089509DFFF
S1130F00E82F2091FF033091000440910104509197
S1130F10020460910304709104048091050490918B
S1130F200604EFBF08952F923F924F925F926F9203
S1130F307F928F929F92AF92BF92CF92DF92EF9265
S1130F40FF920F931F93CF93DF9300D000D000D074
S1130F50CDB7DEB729833A83942E852E762E672E5D
S1130F60582E492E20914201309143014091440171
S1130F70509145016091460170914701809148016B
S1130F8090914901A980BA80C92CD82CE72CF62C61
S1130F90052D142D0E94E41111F008F06AC5BE82DB
S1130FA0AD829501492D582D672D762D852D942DD3
S1130FB0A2E30E94CF112093420130934301409356
S1130FC04401509345016093460170934701809317
S1130FD04801909349019DDE23B199B18FBF80915F
S1130FE0410180934001A0903F01A09241011091E2
S1130FF03E0110933F01E0903D01E0923C01F091ED
S11310003B01F0933D01D0903A01D0923901B09167
S11310103801B0933A0130903701709136017093E2
S113102037010091350109836091340160933501E2
S1131030809133018A835091320150933301E091BE
S11310403101EB83409130014093310100912F0134
S11310500C8330912E0130932F0181E0E92FE07150
S1131060CE2E94FD80E080933E01A091A303A09333
S11310703801E0919A03E0933B0181E0022F007470
S1131080F02E26FD80E080933601822F8095881F04
S11310908827881F8093340181E0092F007496FD0E
S11310A080E080933201892F8095881F8827881FCC
S11310B080933001822F8170BB24B394282E2B247B
S11310C020922E01AA2039F0112351F0C11008C03A
S11310D0B0922D0105C0111103C0C11010922D0151
S11310E0DD2041F0BB2361F0AA2351F0A1E0A093DD
S11310F02C0106C0B11104C0A11102C010922C0130
S1131100EE2041F0FF2361F0EE2351F0E1E0E093A3
S11311102B0106C0F11104C0E11102C010922B0191
S1131120332041F0772359F0F11009C071E0709336
S11311302A0105C0711103C0F11010922A017981AE
S1131140772341F0662359F027FD09C021E020935D
S1131150290105C0611103C027FD10922901EA810C
S1131160EE2341F0552359F0011109C021E02093E9
S1131170280105C0511103C00111109228010B81EF
S1131180002341F0442359F097FD09C091E0909366
S1131190270105C0411103C097FD109227012C813E
S11311A0222341F0332359F0811109C081E0809357
S11311B0260105C0311103C081111092260110913E
S11311C00101612F70E080E090E0D9DD809125017C
S11311D0181731F0612F29D68091010180932501E0
S11311E080913E0190913F0189132AC020913801DA
S11311F090913A01291324C020913B0190913D0123
S113120029131EC02091360190913701291318C06B
S11312102091340190913501291312C0209132019B
S11312209091330129130CC0209130019091310128
S1131230291306C020912E0190912F01291779F0CE
S1131240A0902E01C0903001E09032010091340151
S11312502091360140913B016091380103D6809181
S1131260240190912301891318C0209122019091A7
S11312702101291312C02091200190911F012913EB
S11312800CC020911E0190911D01291306C02091CC
S11312901C0190911B012917E9F000911C01209178
S11312A01E0140912001609122010DD680912401FC
S11312B08093230180912201809321018091200158
S11312C080931F0180911E0180931D0180911C0158
S11312D080931B0180910101813309F46DC170F485
S11312E0813209F475C018F4813121F199C2823236
S11312F009F401C1833209F457C192C2823409F45A
S113130063C220F4813409F49DC18AC2833409F490
S113131083C2813509F084C2109224011092220103
S11313201092200110921E0110921C0181E1809301
S1131330010179C280912D01882341F090912C0103
S1131340911104C090912B019923A1F010921301E3
S113135010921401109215011092160110921701A7
S1131360109218011092190110921A01882309F49D
S11313705AC296C280914001882349F08091390174
S1131380811105C080913C01882309F489C22D8113
S11313903E81492D582D672D762D852D942D2C5069
S11313A03E4F4F4F5F4F6F4F7F4F8F4F9F4F209355
S11313B01301309314014093150150931601609367
S11313C01701709318018093190190931A0168C250
S11313D0A0900B01B0900C01C0900D01D0900E01B3
S11313E0E0900F01F0901001009111011091120191
S11313F09501A601B701C801A0E0EFD761F02D81E6
S11314003E81492D582D672D762D852D942DDCD7C1
S113141010F010922001E0912D01E11111C0109201
S113142013011092140110921501109216011092DA
S11314301701109218011092190110921A0124C078
S113144080914001811120C02D813E81492D582D6C
S1131450672D762D852D942D28513C4F4F4F5F4F8E
S11314606F4F7F4F8F4F9F4F209313013093140181
S1131470409315015093160160931701709318015E
S11314808093190190931A0180912901882309F40A
S1131490CAC180912A018111C6C180912601882385
S11314A009F4C1C1EE2309F4BEC1A0901301B090A8
S11314B01401C0901501D0901601E0901701F0902E
S11314C018010091190110911A019501A601B701A3
S11314D0C801A0E082D709F4A6C12D813E81492D1F
S11314E0582D672D762D852D942D6ED708F49BC12C
S11314F0109220015EC1A0900B01B0900C01C0902D
S11315000D01D0900E01E0900F01F09010010091B8
S11315101101109112019501A601B701C801A0E0C3
S11315205CD761F02D813E81492D582D672D762D94
S1131530852D942D49D710F0109220018091270118
S1131540882341F010921E0110921C0183E28093C3
S1131550010169C190912D0180914001992309F401
S1131560A6C0811100C22D813E81492D582D672DC1
S1131570762D852D942D28513C4F4F4F5F4F6F4F43
S11315807F4F8F4F9F4F209313013093140140934B
S113159015015093160160931701709318018093FD
S11315A0190190931A01DFC180912D0181113BC172
S11315B081E38093010137C180912D01882321F0BB
S11315C090912C019923A1F010921301109214010F
S11315D01092150110921601109217011092180121
S11315E01092190110921A01882309F41CC1F3C145
S11315F080914001882329F080913901882309F4DE
S1131600EAC12D813E81492D582D672D762D852DDA
S1131610942D2C503E4F4F4F5F4F6F4F7F4F8F4F46
S11316209F4F20931301309314014093150150935D
S11316301601609317017093180180931901909318
S11316401A01C9C180912801882359F110921E0101
S113165010921C012D813E81492D582D672D762D28
S1131660852D942D28513C4F4F4F5F4F6F4F7F4F27
S11316708F4F9F4F20930B0130930C0140930D012A
S113168050930E0160930F01709310018093110128
S11316909093120181E08093220182E480930101FE
S11316A0C2C0F0912D0180914001F1111EC0109231
S11316B01301109214011092150110921601109248
S11316C01701109218011092190110921A01109228
S11316D01E0110921C01882309F4A5C090910A01EF
S11316E081E0892780930A019EC0811120C02D8149
S11316F03E81492D582D672D762D852D942D285109
S11317003C4F4F4F5F4F6F4F7F4F8F4F9F4F2093F3
S11317101301309314014093150150931601609303
S11317201701709318018093190190931A01E091A5
S11317302901E11104C081E08093200102C01092CC
S11317402001FF2309F46FC0A0901301B09014018D
S1131750C0901501D0901601E0901701F090180187
S11317600091190110911A019501A601B701C80150
S1131770A0E033D609F457C02D813E81492D582D60
S1131780672D762D852D942D1FD608F44CC080919D
S11317900A0181110EC0E11104C081E0809320018F
S11317A042C010921E0181E080931C01109220011E
S11317B03AC081E080931E0110921C0110920A012C
S11317C082E2809301012FC0A0900B01B0900C0124
S11317D0C0900D01D0900E01E0900F01F090100127
S11317E000911101109112012D813E81492D582D36
S11317F0672D762D852D942DE7D510F010922201BA
S113180080912A01882379F01092220110922401F8
S113181083E48093010107C080912D01811103C0ED
S113182081E58093010180912201882319F073EEF0
S1131830798302C083EC898380912001882311F08D
S113184080E101C080E09981982B998380911E01E9
S1131850882311F098E001C090E0E981E92BE98345
S113186080911C01882311F084E001C080E009818B
S1131870082B098380912401882319F00FEF0A8330
S113188002C007EF0A8345DA098105B90A8108B95C
S11318909FEF9BB990912401909399038FBFE9C066
S11318A080912C018111BFCF80912B018111BBCF7D
S11318B080912801882309F4B6CF809127018111F2
S11318C0B2CF80912A01882309F4ADCF80912901F8
S11318D08111A9CF80912601882309F4A4CFE1E0E6
S11318E0E0932401A0901301B0901401C09015015D
S11318F0D0901601E0901701F090180100911901A1
S113190010911A019501A601B701C801A0E065D59F
S113191009F489CF2D813E81492D582D672D762DCF
S1131920852D942D51D508F47ECFE09320012851C4
S11319303C4F4F4F5F4F6F4F7F4F8F4F9F4F2093C1
S11319400B0130930C0140930D0150930E016093F1
S11319500F0170931001809311019093120181E2A1
S11319608093010160CFA0901301B0901401C09046
S11319701501D0901601E0901701F0901801009124
S1131980190110911A019501A601B701C801A0E03F
S113199024D509F448CF2D813E81492D582D672D3A
S11319A0762D852D942D10D508F43DCF80910A0114
S11319B0811106C081E080931E0110921C0133CF77
S11319C010921E0181E080931C0110920A0181E4AF
S11319D08093010128CF80912C01811124CF809123
S11319E02901811103C091E0909320019091280175
S11319F0911119CF90912701992309F414CF909153
S1131A002A01911110CF882309F40DCF809126016A
S1131A10882309F408CFA0901301B0901401C0905A
S1131A201501D0901601E0901701F0901801009173
S1131A30190110911A019501A601B701C801A0E08E
S1131A40CCD409F4F0CE2D813E81492D582D672D3B
S1131A50762D852D942DB8D408F4E5CE10921E0170
S1131A6081E080931C011092200181E480930101A4
S1131A70DACE26960FB6F894DEBF0FBECDBFDF9147
S1131A80CF911F910F91FF90EF90DF90CF90BF9077
S1131A90AF909F908F907F906F905F904F903F900A
S1131AA02F900895880F816083BF889583B78E7FB8
S1131AB083BF0895CF938CE384B983EC85B988E21E
S1131AC087B980E388B98AE08AB987EF8BB984E063
S1131AD080936C0082E08BBB809368001AD264E030
S1131AE080E030D261E080E02DD283E080937E00FC
S1131AF086E880937A0080EC80937C0080917B0060
S1131B00887F866080937B0080917A0080628093D6
S1131B107A0080917A00806180937A0080917A00C3
S1131B20886080937A0080917A00806480937A0040
S1131B3068E080E007D281E08093800092E1909396
S1131B40810010928500109284008093890093EFA5
S1131B509093880097E296BB80936F00D9D184B7A5
S1131B6080937203982F977011F4811161C0D1D8BA
S1131B7010924C011092FF03109200041092010481
S1131B8010920204109203041092040410920504AB
S1131B90109206041092FE031092AA031092A60358
S1131BA01092A7031092A8031092A9031092A50300
S1131BB01092A4031092A30310929F031092A00307
S1131BC01092A1031092A20310929B0310929C0303
S1131BD010929D0310929E0310929A0310929903FF
S1131BE095E2E4E7F3E0DF011D929A95E9F710929C
S1131BF0730390E2E2E5F3E0DF011D929A95E9F7C1
S1131C00109251031092500310924F0320E031E0E0
S1131C10EFE4F2E0DF01A9011D9241505040E1F7E9
S1131C2010924E0210924D02109272038FBF02C0A6
S1131C300E94D3007BD860E076E980E090E052D047
S1131C407894D4D081E080934C0180914C01882316
S1131C5079F055D968D98091FE03811102C060E002
S1131C6071D880E01FDF6091FE0381E06BD8EDCF77
S1131C70F89480B7806880BF66D060E080E062D866
S1131C8080917A00877F80937A0080917A008F7D9B
S1131C9080937A0080917B00887F80937B001092F0
S1131CA07C0061E080E064D134D8C82F10926F00CA
S1131CB010928000109281001092820068E080E00F
S1131CC057D127D85F9350E85093610050E0509368
S1131CD061005F918FBFCFBF84E0E4DE80E090E0DD
S1131CE0CF910895CF92DF92EF92FF926B017C0126
S1131CF0519A599A5098589A62E080E023D1A701EA
S1131D00960184E0220F331F441F551F8A95D1F793
S1131D1060E072E18AE790E0FED221503109832F1E
S1131D208F708093C5002093C40086E08093C20026
S1131D3080E48093C00088ED8093C100FF90EF9011
S1131D40DF90CF9008951092C1000895AF92BF9292
S1131D50DF92EF92FF920F931F93CF93DF9300D004
S1131D60CDB7DEB75C017B018FB78A83F894DA8044
S1131D706F3F710518F0EE24EA94F12C80914D0226
S1131D8090914E028C010E0D1F1D98012F5F3F4F45
S1131D902F3F310549F040F0DFBE80E083DE8FB78E
S1131DA08983F894D980EACFA701B501815B9D4F5F
S1131DB020D310934E0200934D02F801E15BFD4FD6
S1131DC010828091C00085FF04C0F501808180935A
S1131DD0C600DFBE0F900F90DF91CF911F910F913E
S1131DE0FF90EF90DF90BF90AF9008951F9285E62B
S1131DF08F931F928BEA8F9387E191E09F938F9348
S1131E0081E08F931F928DE491E09F938F93FAD298
S1131E102DB73EB7265F3F4F0FB6F8943EBF0FBEB7
S1131E202DBFBC018DE491E091CF1F926F931F925F
S1131E308F9385EF90E09F938F9381E08F931F9210
S1131E408DE491E09F938F93DDD22DB73EB7265F4B
S1131E503F4F0FB6F8943EBF0FBE2DBFBC018DE4BB
S1131E6091E074CFAF92CF92EF920F931F92AF9203
S1131E701F92CF921F92EF921F920F931F922F9354
S1131E801F924F931F926F931F928F9381EA90E05A
S1131E909F938F9381E08F931F928DE491E09F93A2
S1131EA08F93B0D22DB73EB72A5E3F4F0FB6F8944A
S1131EB03EBF0FBE2DBFBC018DE491E00F91EF90AA
S1131EC0CF90AF9043CF0F931F920F931F922F93F6
S1131ED01F924F931F926F931F928F9388E690E007
S1131EE09F938F9381E08F931F928DE491E09F9352
S1131EF08F9388D22DB73EB7205F3F4F0FB6F8942B
S1131F003EBF0FBE2DBFBC018DE491E00F911ECFEB
S1131F100895CF93DF931F92CDB7DEB78FEF8093F1
S1131F2064008FB78983F89489815F9350E8509354
S1131F30610050E0509361005F918FBF0F90DF917B
S1131F40CF910895CF93DF931F92CDB7DEB79FB79C
S1131F509983F8949981811106C0609580916400F9
S1131F606823609364009FBF0F90DF91CF91089521
S1131F70CF93DF931F92CDB7DEB79FB79983F894C1
S1131F809981811105C080916400682B609364007D
S1131F909FBF0F90DF91CF9108955058BB27AA2778
S1131FA00ED00DC1FED030F003D120F031F49F3FAC
S1131FB011F41EF4F3C00EF4E095E7FBE9C0E92F39
S1131FC00FD180F3BA17620773078407950718F0D7
S1131FD071F49EF527C10EF4E0950B2EBA2FA02DB7
S1131FE00B01B90190010C01CA01A0011124FF27C2
S1131FF0591B99F0593F50F4503E68F11A16F040BD
S1132000A22F232F342F4427585FF3CF46953795BB
S11320102795A795F0405395C9F77EF41F16BA0B80
S1132020620B730B840BBAF09150A1F0FF0FBB1F2E
S1132030661F771F881FC2F70EC0BA0F621F731F77
S1132040841F48F4879577956795B795F7959E3FD4
S113205008F0B3CF9395880F08F09927EE0F979562
S11320608795089571D008F481E0089504D06894A8
S1132070B111D9C00895BCD088F09F5790F0B92F02
S11320809927B751A0F0D1F0660F771F881F991FC9
S11320901AF0BA95C9F712C0B13081F0C3D0B1E0DB
S11320A00895C0C0672F782F8827B85F39F0B93FEB
S11320B0CCF3869577956795B395D9F73EF49095CB
S11320C08095709561957F4F8F4F9F4F0895E89449
S11320D009C097FB3EF490958095709561957F4F6C
S11320E08F4F9F4F9923A9F0F92F96E9BB2793951A
S11320F0F695879577956795B795F111F8CFFAF42A
S1132100BB0F11F460FF1BC06F5F7F4F8F4F9F4F5A
S113211016C0882311F096E911C0772321F09EE8B8
S1132120872F762F05C0662371F096E8862F70E01E
S113213060E02AF09A95660F771F881FDAF7880FF8
S11321409695879597F90895990F0008550FAA0B4E
S1132150E0E8FEEF16161706E807F907C0F01216B6
S11321601306E407F50798F0621B730B840B950BB9
S113217039F40A2661F0232B242B252B21F408950E
S11321800A2609F4A140A6958FEF811D811D0895AB
S113219097F99F6780E870E060E008959FEF80EC16
S11321A0089500240A9416161706180609060895B9
S11321B000240A9412161306140605060895092E1F
S11321C00394000C11F4882352F0BB0F40F4BF2B8E
S11321D011F460FF04C06F5F7F4F8F4F9F4F0895CE
S11321E057FD9058440F551F59F05F3F71F04795C4
S11321F0880F97FB991F61F09F3F79F087950895A9
S1132200121613061406551FF2CF4695F1DF08C0C7
S1132210161617061806991FF1CF869571056105E4
S113222008940895E894BB2766277727CB0197F98C
S113223008950BD0C4CFB5DF28F0BADF18F095238A
S113224009F0A6CFABCF1124EECFCADFA0F3959F40
S1132250D1F3950F50E0551F629FF001729FBB2789
S1132260F00DB11D639FAA27F00DB11DAA1F649F35
S11322706627B00DA11D661F829F2227B00DA11DE8
S1132280621F739FB00DA11D621F839FA00D611D6E
S1132290221F749F3327A00D611D231F849F600D8F
S11322A0211D822F762F6A2F11249F5750408AF0C8
S11322B0E1F088234AF0EE0FFF1FBB1F661F771F54
S11322C0881F91505040A9F79E3F510570F060CF90
S11322D0AACF5F3FECF3983EDCF38695779567953C
S11322E0B795F795E7959F5FC1F7FE2B880F911D72
S11322F09695879597F90895DB018F939F933CD02A
S1132300BF91AF91A29F800D911DA39F900DB29F8D
S1132310900D11240895A1E21A2EAA1BBB1BFD01E6
S11323200DC0AA1FBB1FEE1FFF1FA217B307E407B0
S1132330F50720F0A21BB30BE40BF50B661F771F08
S1132340881F991F1A9469F76095709580959095E8
S11323509B01AC01BD01CF010895A29FB001B39FC1
S1132360C001A39F700D811D1124911DB29F700D9A
S1132370811D1124911D0895F0DFA59F900DB49F38
S1132380900DA49F800D911D112408952A0D3B1DCD
S11323904C1D5D1D6E1D7F1D801F911F089500241F
S11323A0A7FD00942A0F301D401D501D601D701D97
S11323B0801D901D08952A193B094C095D096E0979
S11323C07F09800B910B08952A153B054C055D058B
S11323D06E057F058007910708950024A7FD0094EA
S11323E02A173005400550056005700580059005E5
S11323F00895FB01DC0102C001900D924150504050
S1132400D8F70895AEE0B0E0E7E0F2E1CEC20D897E
S11324101E898F89988D2EE02C831A83098397FF58
S113242002C080E090E801979E838D83AE01455EF3
S11324305F4F698D7A8DCE01019611D04D815E81F9
S113244057FD0AC02F813885421753070CF49A01AF
S1132450F801E20FF31F10822E96E4E0C2C2ABE053
S1132460B0E0E4E3F2E193C26C017B018A01FC0178
S113247017821682838181FFBFC1CE0101963C0180
S1132480F6019381F70193FD859193FF81917F017B
S1132490882309F4ADC1853239F493FD859193FF06
S11324A081917F01853221F4B60190E0C0D1E8CF5B
S11324B0912C212C312CFFE1F315D8F08B3279F0DB
S11324C038F4803279F08332A1F4232D20611DC0C9
S11324D08D3261F0803369F4232D216016C0832D81
S11324E08260382EE32DE4603E2E2AC0F32DF8607E
S11324F01DC037FC2DC020ED280F2A3040F08E324D
S1132500B9F436FC75C1232D2064322E19C036FE71
S113251006C08AE0989E200D1124922E11C0EAE094
S11325202E9E200D1124222EF32DF0623F2E08C082
S11325308C3621F4832D8068382E02C0883641F40D
S1132540F70193FD859193FF81917F018111B3CFB1
S1132550982F9F7D9554933028F40C5F1F4F9FE371
S113256099830DC0833631F0833771F0833509F0D8
S113257055C020C0F801808189830E5F1F4F8824D5
S11325808394912C530112C02801F2E04F0E511C88
S1132590F801A080B18036FE03C0692D70E002C04E
S11325A06FEF7FEFC50138D14C018201F32DFF7726
S11325B03F2E15C0280122E0420E511CF801A080D4
S11325C0B18036FE03C0692D70E002C06FEF7FEF6B
S11325D0C50117D14C01F32DF0683F2E820133FC65
S11325E019C0822D90E088169906A0F4B60180E205
S11325F090E01DD12A94F5CFF50137FC859137FE83
S113260081915F01B60190E012D121102A9421E05A
S1132610821A91088114910479F7E1C0843611F08B
S1132620893639F5F80137FE07C0608171818281EE
S113263093810C5F1F4F08C060817181072E000CCD
S1132640880B990B0E5F1F4FF32DFF763F2E97FFDC
S113265009C090958095709561957F4F8F4F9F4FDE
S1132660F0683F2E2AE030E0A3011DD1882E8618A1
S113267044C0853731F4232D2F7EB22E2AE030E07A
S113268025C0932D997FB92E8F36C1F018F4883563
S113269079F0AEC0803719F0883721F0A9C0E92F4E
S11326A0E061BE2EB4FE0DC0FB2DF460BF2E09C048
S11326B034FE0AC0292F2660B22E06C028E030E07E
S11326C005C020E130E002C020E132E0F801B7FEAD
S11326D007C060817181828193810C5F1F4F06C0A6
S11326E06081718180E090E00E5F1F4FA301DBD019
S11326F0882E8618FB2DFF773F2E36FE0DC0232D26
S11327002E7FA22E891458F434FE0BC032FC09C06B
S1132710832D8E7EA82E05C0B82CA32C03C0B82C04
S113272001C0B92CA4FE0FC0FE01E80DF11D80818B
S1132730803321F49A2D997EA92E09C0A2FE06C0E9
S1132740B394B39404C08A2D867809F0B394A3FC9F
S113275010C0A0FE06C0B21480F4280C922C9B1862
S11327600DC0B21458F4B60180E290E060D0B39486
S1132770F8CFB21418F42B1802C0982C212CA4FE04
S11327800FC0B60180E390E052D0A2FE16C0A1FCB7
S113279003C088E790E002C088E590E0B6010CC071
S11327A08A2D867851F0A1FE02C08BE201C080E23E
S11327B0A7FC8DE2B60190E03AD0891430F4B6015A
S11327C080E390E034D09A94F8CF8A94F301E80D32
S11327D0F11D8081B60190E02AD08110F6CF22202D
S11327E009F44ECEB60180E290E021D02A94F7CFCE
S11327F0F6018681978102C08FEF9FEF2B96E2E16D
S1132800E2C0FC010590615070400110D8F780953A
S113281090958E0F9F1F0895FC01615070400190A8
S11328200110D8F7809590958E0F9F1F08950F93F0
S11328301F93CF93DF93FB01238121FD03C08FEF0F
S11328409FEF2CC022FF16C0468157812481358119
S11328504217530744F4A081B1819D012F5F3F4F7C
S1132860318320838C93268137812F5F3F4F3783B9
S1132870268314C08B01EC01FB010084F185E02D5B
S11328800995892BE1F6D80116968D919C9117979D
S1132890019617969C938E931697CE01DF91CF9154
S11328A01F910F910895FA01AA27283051F1203180
S11328B081F1E8946F936E7F6E5F7F4F8F4F9F4FD0
S11328C0AF4FB1E03ED0B4E03CD0670F781F891F12
S11328D09A1FA11D680F791F8A1F911DA11D6A0FE0
S11328E0711D811D911DA11D20D009F468943F9193
S11328F02AE0269F11243019305D3193DEF6CF0192
S11329000895462F4770405D4193B3E00FD0C9F757
S1132910F6CF462F4F70405D4A3318F0495D31FDC4
S11329204052419302D0A9F7EACFB4E0A695979517
S1132930879577956795BA95C9F7009761057105ED
S113294008959B01AC010A2E069457954795379537
S11329502795BA95C9F7620F731F841F951FA01D91
S11329600895F999FECF92BD81BDF89A992780B553
S11329700895262FF999FECF1FBA92BD81BD20BDBF
S11329800FB6F894FA9AF99A0FBE019608952F9209
S11329903F924F925F926F927F928F929F92AF92EB
S11329A0BF92CF92DF92EF92FF920F931F93CF9338
S11329B0DF93CDB7DEB7CA1BDB0B0FB6F894DEBFCF
S11329C00FBECDBF09942A88398848885F846E84F5
S11329D07D848C849B84AA84B984C884DF80EE803F
S11329E0FD800C811B81AA81B981CE0FD11D0FB648
S11329F0F894DEBF0FBECDBFED010895F894FFCF6C
S1052A0001517E
S9030000FC
