S02100004C616E64437275697365722D436F6E74726F6C6C65725F53572E737265634D
S113000097C0000045C6000020C60000FBC50000E4
S1130010AFC00000D4C50000AFC500008AC5000011
S113002065C5000040C500001BC50000F6C4000003
S1130030D1C400000CC10000AAC4000085C40000A3
S113004060C400003BC40000D7C1000014C4000019
S11300500EC2000045C20000EBC30000C6C300008E
S1130060A1C300007CC30000232046534D2D496EDC
S11300707075743A204966623D25642C2049757672
S11300803D25642C20496F733D25642C2049736BF6
S1130090673D25642C2049736B6F3D25642C2049F2
S11300A07361673D25642C204973616F3D25642C81
S11300B020497368673D25640D0A00232046534D8B
S11300C02D53746174653A20307825303258202DD0
S11300D02D3E203078253032580D0A000D0A4C612F
S11300E06E64437275697365722D436F6E74726FBB
S11300F06C2076657273696F6E20323025303364FC
S1130100253033640D0A3D3D3D3D3D3D3D3D3D3D86
S11301103D3D3D3D3D3D3D3D3D3D3D3D3D3D3D3D0B
S11301203D3D3D3D3D3D3D3D3D3D3D0D0A0D0A00FE
S113013011241FBECFEFD8E0DEBFCDBF11E0A0E099
S1130140B1E0E4E0F9E202C005900D92A230B107FB
S1130150D9F724E0A2E0B1E001C01D92A230B207B9
S1130160E1F70E94010D0C94801498950000089505
S11301701F920F920FB60F921124AF92BF92CF929B
S1130180DF92EF92FF920F931F932F933F934F931E
S11301905F936F937F938F939F93AF93BF93EF93EB
S11301A0FF93329B3BC0F091FA03E091FB038F2F46
S11301B09E2F892B99F12F2F3E2F40E050E060E0D5
S11301C070E080E090E0A0900201B0900301C09044
S11301D00401D0900501E0900601F0900701009120
S11301E00801109109010E945D11B1E0A4E60E948A
S11301F06F1111F008F0B0E0B0939503F093020191
S1130200E09303011092040110920501109206017B
S1130210109207011092080110920901FF91EF91C9
S1130220BF91AF919F918F917F916F915F914F910A
S11302303F912F911F910F91FF90EF90DF90CF90FE
S1130240BF90AF900F900FBE0F901F9018951F9204
S11302500F920FB60F9211245F926F927F928F923A
S11302609F92AF92BF92CF92DF92EF92FF920F9341
S11302701F932F933F934F935F936F937F938F932A
S11302809F93AF93BF93CF93DF93EF93FF9320910B
S1130290FA033091FB034091FC035091FD036091FC
S11302A0FE037091FF038091000490910104A1E08A
S11302B00E9451112093FA033093FB034093FC03F3
S11302C05093FD036093FE037093FF038093000437
S11302D0909301048091AE03811101C067D5F1D5DB
S11302E0522E632E742E852E962ED72FC82FB92FFB
S11302F0A090A603B090A703C090A803D090A90330
S1130300E090AA03F090AB030091AC031091AD030D
S11303100E94661108F445C0A091AE03EA2FF0E0F4
S1130320CF01880F991FE80FF91FE155FC4FA180F9
S1130330B280950140E050E060E070E080E090E041
S1130340A52CB62CC72CD82CE92CFD2E0C2F1B2F3A
S11303500E9448112093A6033093A7034093A80357
S11303605093A9036093AA037093AB038093AC03E7
S11303709093AD03AF5FA093AE038081813031F0E1
S113038058F08F3F71F41092AE030BC08093F903C1
S113039061E081E0B9D405C01092F90360E081E026
S11303A0B3D48091AE03883138F01092AE0310922A
S11303B0F90360E081E0A8D4FF91EF91DF91CF9140
S11303C0BF91AF919F918F917F916F915F914F9169
S11303D03F912F911F910F91FF90EF90DF90CF905D
S11303E0BF90AF909F908F907F906F905F900F9091
S11303F00FBE0F901F9018951F920F920FB60F9279
S113040011242F933F934F938F939F93EF93FF93D5
S11304104091C60080914B0390914C039C012F5F47
S11304203F4F30934C0320934B03FC01E35BFC4FA1
S11304304083F901E35BFC4F10824A3019F481E0F8
S113044080934A032032310530F08FE190E090939D
S11304504C0380934B03FF91EF919F918F914F91A8
S11304603F912F910F900FBE0F901F9018951F92E0
S11304700F920FB60F9211242F933F934F938F93A4
S11304809F93EF93FF938091480290914902892BA7
S1130490D9F080914A028093C6002091480230919D
S11304A0490240E0842F90E08217930738F4FC015E
S11304B0E65BFD4F818180834F5FF4CF215031098A
S11304C03093490220934802FF91EF919F918F91BD
S11304D04F913F912F910F900FBE0F901F90189541
S11304E01F920F920FB60F9211248F929F92AF9288
S11304F0BF92CF92DF92EF92FF922F933F934F934D
S11305005F936F937F938F939F93AF93BF93CF9397
S1130510DF93EF93FF93409178008091790050E04E
S1130520582B8091A5034D33510518F0EA01EC973F
S113053002C0C0E0D0E0909100019F5F9093000161
S1130540943628F010920001823019F414C08230DD
S113055081F0833038F4813009F0E0C082E0809388
S1130560A503E2C0833009F46BC0843009F46CC085
S1130570D5C09111D9C0C090A103D090A203E0903E
S1130580A303F090A403789420E030E0A901C7010C
S1130590B6010E94B40FAE0160E070E08823E9F078
S11305A0CB01BA010E94E90F2AE037ED43EA5CE38C
S11305B00E949B104B015C0128E431EE4AE75FE3A3
S11305C0C701B6010E949B109B01AC01C501B40197
S11305D00E94500F4B015C0106C0CB01BA010E947E
S11305E0E90F4B015C01C701B6010E94BD0F9B01DD
S11305F0AC016DE278E88CE290E00E94FE1020E00D
S113060030ED42E050E00E940D11F8948092A10375
S11306109092A203A092A303B092A4033093A003E8
S113062020939F0381E02430394208F080E08093D6
S11306309E0388EC80937C0083E08093A50374C0C0
S113064084E08093A50370C08091000181116CC087
S1130650C0909A03D0909B03E0909C03F0909D037C
S1130660789420E030E0A901C701B6010E94B40FDC
S1130670AE0160E070E08823D9F0CB01BA010E949A
S1130680E90F2FE632E143E05BE30E949B104B014C
S11306905C012EEE3CE74FE75FE3C701B6010E9421
S11306A09B109B01AC01C501B4010E94500F04C012
S11306B0CB01BA010E94E90FF89460939A037093F6
S11306C09B0380939C0390939D0323EB30E445E9C3
S11306D053E40E944F0F20E030EA47E85FE30E94B2
S11306E09B1020E030E048EC51E40E94500F20E0E1
S11306F030E048EC52E40E949B100E94B80F6093D3
S1130700960370939703809398039093990380ECD6
S113071080937C0081E08093A50306C080EC8093E5
S11307207C0081E08093A503FF91EF91DF91CF914D
S1130730BF91AF919F918F917F916F915F914F91F5
S11307403F912F91FF90EF90DF90CF90BF90AF90AB
S11307509F908F900F900FBE0F901F9018951F922F
S11307600F920FB60F9211242F933F934F935F93E1
S11307706F937F938F939F93AF93BF93EF93FF9365
S1130780F4DCFF91EF91BF91AF919F918F917F9195
S11307906F915F914F913F912F910F900FBE0F90EA
S11307A01F9018951F920F920FB60F9211242F933A
S11307B03F934F935F936F937F938F939F93AF93E5
S11307C0BF93EF93FF93CBDFFF91EF91BF91AF9175
S11307D09F918F917F916F915F914F913F912F9155
S11307E00F900FBE0F901F9018951F920F920FB687
S11307F00F9211242F933F934F935F936F937F93A3
S11308008F939F93AF93BF93EF93FF93A8DFFF91D1
S1130810EF91BF91AF919F918F917F916F915F9174
S11308204F913F912F910F900FBE0F901F901895ED
S11308301F920F920FB60F9211242F933F934F9351
S11308405F936F937F938F939F93AF93BF93EF9334
S1130850FF9385DFFF91EF91BF91AF919F918F91AE
S11308607F916F915F914F913F912F910F900FBEA8
S11308700F901F9018951F920F920FB60F9211248C
S11308802F933F934F935F936F937F938F939F9394
S1130890AF93BF93EF93FF9362DFFF91EF91BF910B
S11308A0AF919F918F917F916F915F914F913F9104
S11308B02F910F900FBE0F901F9018951F920F92BB
S11308C00FB60F9211242F933F934F935F936F931F
S11308D07F938F939F93AF93BF93EF93FF933FDFE8
S11308E0FF91EF91BF91AF919F918F917F916F9104
S11308F05F914F913F912F910F900FBE0F901F90DA
S113090018951F920F920FB60F9211242F933F93B5
S11309104F935F936F937F938F939F93AF93BF9303
S1130920EF93FF931CDFFF91EF91BF91AF919F91E4
S11309308F917F916F915F914F913F912F910F9084
S11309400FBE0F901F9018951F920F920FB60F9223
S113095011242F933F934F935F936F937F938F93C0
S11309609F93AF93BF93EF93FF93F9DEFF91EF91C2
S1130970BF91AF919F918F917F916F915F914F91B3
S11309803F912F910F900FBE0F901F9018951F92BB
S11309900F920FB60F9211242F933F934F935F93AF
S11309A06F937F938F939F93AF93BF93EF93FF9333
S11309B0D6DEFF91EF91BF91AF919F918F917F917F
S11309C06F915F914F913F912F910F900FBE0F90B8
S11309D01F9018951F920F920FB60F9211242F9308
S11309E03F934F935F936F937F938F939F93AF93B3
S11309F0BF93EF93FF93B3DEFF91EF91BF91AF915C
S1130A009F918F917F916F915F914F913F912F9122
S1130A100F900FBE0F901F9018951F920F920FB654
S1130A200F9211242F933F934F935F936F937F9370
S1130A308F939F93AF93BF93EF93FF9390DEFF91B8
S1130A40EF91BF91AF919F918F917F916F915F9142
S1130A504F913F912F910F900FBE0F901F901895BB
S1130A601F920F920FB60F9211242F933F934F931F
S1130A705F936F937F938F939F93AF93BF93EF9302
S1130A80FF936DDEFF91EF91BF91AF919F918F9195
S1130A907F916F915F914F913F912F910F900FBE76
S1130AA00F901F9018951F920F920FB60F9211245A
S1130AB02F933F934F935F936F937F938F939F9362
S1130AC0AF93BF93EF93FF934ADEFF91EF91BF91F2
S1130AD0AF919F918F917F916F915F914F913F91D2
S1130AE02F910F900FBE0F901F9018951F920F9289
S1130AF00FB60F9211242F933F934F935F936F93ED
S1130B007F938F939F93AF93BF93EF93FF9327DECE
S1130B10FF91EF91BF91AF919F918F917F916F91D1
S1130B205F914F913F912F910F900FBE0F901F90A7
S1130B3018951F920F920FB60F9211242F933F9383
S1130B404F935F936F937F938F939F93AF93BF93D1
S1130B50EF93FF9304DEFF91EF91BF91AF919F91CB
S1130B608F917F916F915F914F913F912F910F9052
S1130B700FBE0F901F9018951F920F920FB60F92F1
S1130B8011242F933F934F935F936F937F938F938E
S1130B909F93AF93BF93EF93FF93E1DDFF91EF91A9
S1130BA0BF91AF919F918F917F916F915F914F9181
S1130BB03F912F910F900FBE0F901F9018951F9289
S1130BC00F920FB60F9211242F933F934F935F937D
S1130BD06F937F938F939F93AF93BF93EF93FF9301
S1130BE0BEDDFF91EF91BF91AF919F918F917F9166
S1130BF06F915F914F913F912F910F900FBE0F9086
S1130C001F9018951F920F920FB60F9211242F93D5
S1130C103F934F935F936F937F938F939F93AF9380
S1130C20BF93EF93FF939BDDFF91EF91BF91AF9142
S1130C309F918F917F916F915F914F913F912F91F0
S1130C400F900FBE0F901F9018951F920F920FB622
S1130C500F9211242F933F934F935F936F937F933E
S1130C608F939F93AF93BF93EF93FF9378DDFF919F
S1130C70EF91BF91AF919F918F917F916F915F9110
S1130C804F913F912F910F900FBE0F901F90189589
S1130C901F920F920FB60F9211242F933F934F93ED
S1130CA05F936F937F938F939F93AF93BF93EF93D0
S1130CB0FF9355DDFF91EF91BF91AF919F918F917C
S1130CC07F916F915F914F913F912F910F900FBE44
S1130CD00F901F901895CF93DF931F92CDB7DEB777
S1130CE08FB78983F89489810F90DF91CF9108950C
S1130CF080E090E00E943314813129F061E180E0CA
S1130D0090E00C943B14089590914601882391F04F
S1130D10911104C0539A81E080934601809145016A
S1130D20861771F0662311F05B9A01C05B9860939B
S1130D3045010895992321F053985B981092460138
S1130D400895CF92DF92EF92FF926B017C01C3DF93
S1130D50C114D104E104F10481F0B701A60194E0C7
S1130D6076956795579547959A95D1F747709FEF74
S1130D70940F953018F045E001C040E04093F7032C
S1130D80C114D104E104F10441F02C2D27709FEF2C
S1130D90920F953018F025E001C020E02093F8036D
S1130DA08FBFFF90EF90DF90CF900895AF92BF92E6
S1130DB0CF92DF92EF92FF920F931F93CF93DF9323
S1130DC08ADFB090AE03B1106DC0A7EFB3E020E0AE
S1130DD0F12CAA24A39444E650E068EC70E0C6E247
S1130DE0D2E09D919923B1F1EF2C20E030E0092F5E
S1130DF010E020173107F4F4EE2DF0E06F01CC0C75
S1130E00DD1CEC0DFD1DE155FC4FA0825283418396
S1130E10E1E0EE0DF0E06F01CC0CDD1CEC0DFD1DEE
S1130E20E155FC4F1082E394E394728361832F5F56
S1130E303F4FDFCF990FF90EEF2DF0E09F01220F06
S1130E40331FE20FF31FE155FC4F1082F394D2835A
S1130E50C18321E093E0A93FB90719F62111F0926B
S1130E60AE039091AE03E92FF0E09F01220F331FF0
S1130E70E20FF31FE155FC4F10829F5F26E232E040
S1130E8032832183E92FF0E09F01220F331FE20F09
S1130E90F31FE155FC4F2FEF208312821182109231
S1130EA0AE0301C09B2D8FBF892F8B19DF91CF918A
S1130EB01F910F91FF90EF90DF90CF90BF90AF9074
S1130EC0089509DFE82F2091FA033091FB03409144
S1130ED0FC035091FD036091FE037091FF03809128
S1130EE0000490910104EFBF08952F923F924F9216
S1130EF05F926F927F928F929F92AF92BF92CF92A6
S1130F00DF92EF92FF920F931F93CF93DF9300D062
S1130F1000D000D0CDB7DEB729833A83942E852E36
S1130F20762E672E582E492E20913D0130913E0198
S1130F3040913F0150914001609141017091420103
S1130F408091430190914401A980BA80C92CD82C86
S1130F50E72CF62C052D142D0E94661111F008F0D3
S1130F602FC5BE82AD829501492D582D672D762D52
S1130F70852D942DA2E30E94511120933D013093BD
S1130F803E0140933F0150934001609341017093AF
S1130F90420180934301909344019DDE23B199B1B2
S1130FA08FBF80913C0180933B01A0903A01A092B5
S1130FB03C011091390110933A01E0903801E0921C
S1130FC03701F0913601F0933801D0903501D09279
S1130FD03401B0913301B0933501309032017091F6
S1130FE031017093320100913001098360912F0126
S1130FF06093300180912E018A8350912D0150938A
S11310002E01E0912C01EB8340912B0140932C01A4
S113101000912A010C833091290130932A0181E047
S1131020E92FE071CE2E94FD80E080933901A091E8
S11310309E03A0933301E0919503E093360181E090
S1131040022F0074F02E26FD80E080933101822F60
S11310508095881F8827881F80932F0181E0092F9E
S1131060007496FD80E080932D01892F8095881F60
S11310708827881F80932B01822F8170BB24B3940F
S1131080282E2B2420922901AA2039F0112351F073
S1131090C11008C0B092280105C0111103C0C110CD
S11310A010922801DD2041F0BB2361F0AA2351F006
S11310B0A1E0A093270106C0B11104C0A11102C090
S11310C010922701EE2041F0FF2361F0EE2351F04E
S11310D0E1E0E093260106C0F11104C0E11102C071
S11310E010922601332041F0772359F0F11009C002
S11310F071E07093250105C0711103C0F1101092C5
S113110025017981772341F0662359F027FD09C031
S113111021E02093240105C0611103C027FD109232
S11311202401EA81EE2341F0552359F0011109C04D
S113113021E02093230105C0511103C00111109235
S113114023010B81002341F0442359F097FD09C08A
S113115091E09093220105C0411103C097FD1092C4
S113116022012C81222341F0332359F0811109C03B
S113117081E08093210105C0311103C081111092D7
S1131180210110910101612F70E080E090E0D9DD30
S113119080912001181731F0612FEED58091010163
S11311A0809320018091390190913A0189132AC0DA
S11311B02091330190913501291324C020913601E7
S11311C09091380129131EC0209131019091320170
S11311D0291318C020912F0190913001291312C0B6
S11311E020912D0190912E0129130CC020912B01E7
S11311F090912C01291306C02091290190912A0174
S1131200291779F0A0902901C0902B01E0902D01BD
S113121000912F01209131014091360160913301F9
S1131220C8D580910101813309F46DC170F4813214
S113123009F475C018F4813121F199C2823209F49C
S113124001C1833209F457C192C2823409F463C2E2
S113125020F4813409F49DC18AC2833409F483C221
S1131260813509F084C210921F0110921E01109260
S11312701D0110921C0110921B0181E18093010158
S113128079C280912801882341F09091270191111E
S113129004C0909126019923A1F010921301109299
S11312A01401109215011092160110921701109258
S11312B018011092190110921A01882309F45AC2D4
S11312C096C280913B01882349F0809134018111B9
S11312D005C080913701882309F489C22D813E819C
S11312E0492D582D672D762D852D942D2C503E4F4C
S11312F04F4F5F4F6F4F7F4F8F4F9F4F209313017F
S11313003093140140931501509316016093170113
S1131310709318018093190190931A0168C2A090E8
S11313200B01B0900C01C0900D01D0900E01E09023
S11313300F01F0901001009111011091120195011B
S1131340A601B701C801A0E0CAD761F02D813E8192
S1131350492D582D672D762D852D942DB7D710F056
S113136010921D01E0912801E11111C010921301A6
S11313701092140110921501109216011092170187
S1131380109218011092190110921A0124C0809130
S11313903B01811120C02D813E81492D582D672D9F
S11313A0762D852D942D28513C4F4F4F5F4F6F4F15
S11313B07F4F8F4F9F4F209313013093140140931D
S11313C015015093160160931701709318018093CF
S11313D0190190931A0180912401882309F4CAC148
S11313E0809125018111C6C180912101882309F4CE
S11313F0C1C1EE2309F4BEC1A0901301B090140141
S1131400C0901501D0901601E0901701F0901801DA
S11314100091190110911A019501A601B701C801A3
S1131420A0E05DD709F4A6C12D813E81492D582D38
S1131430672D762D852D942D49D708F49BC11092E4
S11314401D015EC1A0900B01B0900C01C0900D0174
S1131450D0900E01E0900F01F09010010091110165
S1131460109112019501A601B701C801A0E037D778
S113147061F02D813E81492D582D672D762D852DC6
S1131480942D24D710F010921D01809122018823FD
S113149041F010921C0110921B0183E28093010120
S11314A069C19091280180913B01992309F4A6C058
S11314B0811100C22D813E81492D582D672D762D35
S11314C0852D942D28513C4F4F4F5F4F6F4F7F4FC9
S11314D08F4F9F4F209313013093140140931501B4
S11314E050931601609317017093180180931901AA
S11314F090931A01DFC18091280181113BC181E3DE
S11315008093010137C180912801882321F09091B3
S113151027019923A1F01092130110921401109243
S113152015011092160110921701109218011092D1
S1131530190110921A01882309F41CC1F3C1809186
S11315403B01882329F080913401882309F4EAC1FE
S11315502D813E81492D582D672D762D852D942D75
S11315602C503E4F4F4F5F4F6F4F7F4F8F4F9F4FCA
S113157020931301309314014093150150931601E5
S113158060931701709318018093190190931A01C5
S1131590C9C180912301882359F110921C01109232
S11315A01B012D813E81492D582D672D762D852DCA
S11315B0942D28513C4F4F4F5F4F6F4F7F4F8F4FAC
S11315C09F4F20930B0130930C0140930D015093D6
S11315D00E0160930F017093100180931101909399
S11315E0120181E080931E0182E480930101C2C054
S11315F0F091280180913B01F1111EC0109213015A
S113160010921401109215011092160110921701F4
S1131610109218011092190110921A0110921C01D3
S113162010921B01882309F4A5C090910A0181E05E
S1131630892780930A019EC0811120C02D813E819B
S1131640492D582D672D762D852D942D28513C4FED
S11316504F4F5F4F6F4F7F4F8F4F9F4F209313011B
S113166030931401409315015093160160931701B0
S1131670709318018093190190931A01E091240149
S1131680E11104C081E080931D0102C010921D018C
S1131690FF2309F46FC0A0901301B0901401C0900F
S11316A01501D0901601E0901701F09018010091F7
S11316B0190110911A019501A601B701C801A0E012
S11316C00ED609F457C02D813E81492D582D672D22
S11316D0762D852D942DFAD508F44CC080910A01FD
S11316E081110EC0E11104C081E080931D0142C04C
S11316F010921C0181E080931B0110921D013AC0DD
S113170081E080931C0110921B0110920A0182E275
S1131710809301012FC0A0900B01B0900C01C090E8
S11317200D01D0900E01E0900F01F0901001009196
S11317301101109112012D813E81492D582D672DE3
S1131740762D852D942DC2D510F010921E01809116
S11317502501882379F010921E0110921F0183E461
S11317608093010107C080912801811103C081E5A4
S11317708093010180911E01882319F073EE79830F
S113178002C083EC898380911D01882311F080E1DC
S113179001C080E09981982B998380911C01882352
S11317A011F098E001C090E0E981E92BE983809190
S11317B01B01882311F084E001C080E00981082B1B
S11317C0098380911F01882319F00FEF0A8302C057
S11317D007EF0A8380DA098105B90A8108B99FEF06
S11317E09BB990911F01909394038FBFE9C080919E
S11317F027018111BFCF809126018111BBCF809138
S11318002301882309F4B6CF809122018111B2CF3C
S113181080912501882309F4ADCF809124018111A1
S1131820A9CF80912101882309F4A4CFE1E0E093BA
S11318301F01A0901301B0901401C0901501D09025
S11318401601E0901701F090180100911901109110
S11318501A019501A601B701C801A0E040D509F419
S113186089CF2D813E81492D582D672D762D852DCB
S1131870942D2CD508F47ECFE0931D0128513C4FC4
S11318804F4F5F4F6F4F7F4F8F4F9F4F20930B01F1
S113189030930C0140930D0150930E0160930F019E
S11318A070931001809311019093120181E280934F
S11318B0010160CFA0901301B0901401C0901501F4
S11318C0D0901601E0901701F090180100911901D1
S11318D010911A019501A601B701C801A0E0FFD437
S11318E009F448CF2D813E81492D582D672D762D41
S11318F0852D942DEBD408F43DCF80910A018111FC
S113190006C081E080931C0110921B0133CF10921A
S11319101C0181E080931B0110920A0181E48093F1
S1131920010128CF80912701811124CF80912401C6
S1131930811103C091E090931D01909123019111B5
S113194019CF90912201992309F414CF9091250184
S1131950911110CF882309F40DCF809121018823A0
S113196009F408CFA0901301B0901401C0901501A0
S1131970D0901601E0901701F09018010091190120
S113198010911A019501A601B701C801A0E0A7D4DE
S113199009F4F0CE2D813E81492D582D672D762DE9
S11319A0852D942D93D408F4E5CE10921C0181E08A
S11319B080931B0110921D0181E480930101DACE12
S11319C026960FB6F894DEBF0FBECDBFDF91CF9140
S11319D01F910F91FF90EF90DF90CF90BF90AF9049
S11319E09F908F907F906F905F904F903F902F903B
S11319F00895880F816083BF889583B78E7F83BFE6
S1131A000895CF938CE384B983EC85B988E287B9D0
S1131A1080E388B98AE08AB987EF8BB984E0809340
S1131A206C0082E08BBB80936800F5D164E080E0B9
S1131A300BD261E080E008D283E080937E0086E8E8
S1131A4080937A0080EC80937C0080917B00887F77
S1131A50866080937B0080917A00806280937A0014
S1131A6080917A00806180937A0080917A00886006
S1131A7080937A0080917A00806480937A0068E091
S1131A8080E0E2D181E08093800092E19093810034
S1131A9010928500109284008093890093EF9093B4
S1131AA0880097E296BB80936F00B4D184B780938B
S1131AB06D03982F977011F4811161C00CD91092A5
S1131AC047011092FA031092FB031092FC03109248
S1131AD0FD031092FE031092FF0310920004109273
S1131AE001041092F9031092A5031092A10310921D
S1131AF0A2031092A3031092A4031092A0031092C5
S1131B009F0310929E0310929A0310929B031092CB
S1131B109C0310929D0310929603109297031092C7
S1131B20980310929903109295031092940395E2EE
S1131B30EFE6F3E0DF011D929A95E9F710926E0348
S1131B4090E2EDE4F3E0DF011D929A95E9F710923B
S1131B504C0310924B0310924A0320E031E0EAE474
S1131B60F2E0DF01A9011D9241505040E1F71092CB
S1131B7049021092480210926D038FBF02C00E9466
S1131B80B500B6D860E076E980E090E052D0789471
S1131B90D4D081E08093470180914701882379F074
S1131BA090D9A3D98091F903811102C060E0ACD827
S1131BB080E01FDF6091F90381E0A6D8EDCFF894AF
S1131BC080B7806880BF66D060E080E09DD8809157
S1131BD07A00877F80937A0080917A008F7D80934A
S1131BE07A0080917B00887F80937B0010927C0038
S1131BF061E080E03FD16FD8C82F10926F0010923F
S1131C008000109281001092820068E080E032D15E
S1131C1062D85F9350E85093610050E050936100A4
S1131C205F918FBFCFBF84E0E4DE80E090E0CF918E
S1131C300895CF92DF92EF92FF926B017C01519A4B
S1131C40599A5098589A62E080E0FED0A701960114
S1131C5084E0220F331F441F551F8A95D1F760E09B
S1131C6072E18AE790E0D9D221503109832F8F7035
S1131C708093C5002093C40086E08093C20080E472
S1131C808093C00088ED8093C100FF90EF90DF90B7
S1131C90CF9008951092C1000895AF92BF92DF9241
S1131CA0EF92FF920F931F93CF93DF9300D0CDB7A2
S1131CB0DEB75C017B018FB78A83F894DA806F3FCB
S1131CC0710518F0EE24EA94F12C80914802909169
S1131CD049028C010E0D1F1D98012F5F3F4F2F3FAE
S1131CE0310549F040F0DFBE80E083DE8FB78983A1
S1131CF0F894D980EACFA701B501865B9D4FFBD24A
S1131D001093490200934802F801E65BFD4F1082EC
S1131D108091C00085FF04C0F50180818093C600D6
S1131D20DFBE0F900F90DF91CF911F910F91FF9025
S1131D30EF90DF90BF90AF9008951F928EE18F9344
S1131D401F928BEA8F938CED90E09F938F9381E0A9
S1131D508F931F9288E491E09F938F93D5D22DB7F0
S1131D603EB7265F3F4F0FB6F8943EBF0FBE2DBF60
S1131D70BC0188E491E091CF1F926F931F928F93DF
S1131D808BEB90E09F938F9381E08F931F9288E475
S1131D9091E09F938F93B8D22DB73EB7265F3F4F04
S1131DA00FB6F8943EBF0FBE2DBFBC0188E491E08E
S1131DB074CFAF92CF92EF920F931F92AF921F9274
S1131DC0CF921F92EF921F920F931F922F931F9205
S1131DD04F931F926F931F928F9388E690E09F9387
S1131DE08F9381E08F931F9288E491E09F938F9368
S1131DF08BD22DB73EB72A5E3F4F0FB6F8943EBF45
S1131E000FBE2DBFBC0188E491E00F91EF90CF90FD
S1131E10AF9043CF0895CF93DF931F92CDB7DEB732
S1131E208FEF809364008FB78983F89489815F93DF
S1131E3050E85093610050E0509361005F918FBF70
S1131E400F90DF91CF910895CF93DF931F92CDB779
S1131E50DEB79FB79983F8949981811106C0609584
S1131E60809164006823609364009FBF0F90DF91AA
S1131E70CF910895CF93DF931F92CDB7DEB79FB76D
S1131E809983F8949981811105C080916400682B2D
S1131E90609364009FBF0F90DF91CF9108955058D5
S1131EA0BB27AA270ED00DC1FED030F003D120F0FD
S1131EB031F49F3F11F41EF4F3C00EF4E095E7FBF8
S1131EC0E9C0E92F0FD180F3BA17620773078407BB
S1131ED0950718F071F49EF527C10EF4E0950B2ECA
S1131EE0BA2FA02D0B01B90190010C01CA01A00168
S1131EF01124FF27591B99F0593F50F4503E68F1C3
S1131F001A16F040A22F232F342F4427585FF3CF03
S1131F10469537952795A795F0405395C9F77EF4D4
S1131F201F16BA0B620B730B840BBAF09150A1F01D
S1131F30FF0FBB1F661F771F881FC2F70EC0BA0FA3
S1131F40621F731F841F48F4879577956795B7952B
S1131F50F7959E3F08F0B3CF9395880F08F0992723
S1131F60EE0F97958795089571D008F481E0089550
S1131F7004D06894B111D9C00895BCD088F09F579B
S1131F8090F0B92F9927B751A0F0D1F0660F771FC1
S1131F90881F991F1AF0BA95C9F712C0B13081F0A1
S1131FA0C3D0B1E00895C0C0672F782F8827B85FE9
S1131FB039F0B93FCCF3869577956795B395D9F702
S1131FC03EF490958095709561957F4F8F4F9F4F0C
S1131FD00895E89409C097FB3EF490958095709518
S1131FE061957F4F8F4F9F4F9923A9F0F92F96E961
S1131FF0BB279395F695879577956795B795F111D6
S1132000F8CFFAF4BB0F11F460FF1BC06F5F7F4F72
S11320108F4F9F4F16C0882311F096E911C0772384
S113202021F09EE8872F762F05C0662371F096E88D
S1132030862F70E060E02AF09A95660F771F881F5C
S1132040DAF7880F9695879597F90895990F000800
S1132050550FAA0BE0E8FEEF16161706E807F90776
S1132060C0F012161306E407F50798F0621B730B11
S1132070840B950B39F40A2661F0232B242B252B92
S113208021F408950A2609F4A140A6958FEF811D35
S1132090811D089597F99F6780E870E060E00895D6
S11320A09FEF80EC089500240A941616170618066C
S11320B00906089500240A94121613061406050648
S11320C00895092E0394000C11F4882352F0BB0FD9
S11320D040F4BF2B11F460FF04C06F5F7F4F8F4F3C
S11320E09F4F089557FD9058440F551F59F05F3F77
S11320F071F04795880F97FB991F61F09F3F79F026
S113210087950895121613061406551FF2CF4695A7
S1132110F1DF08C0161617061806991FF1CF869529
S11321207105610508940895E894BB27662777270D
S1132130CB0197F908950BD0C4CFB5DF28F0BADFEF
S113214018F0952309F0A6CFABCF1124EECFCADF48
S1132150A0F3959FD1F3950F50E0551F629FF001B6
S1132160729FBB27F00DB11D639FAA27F00DB11D0F
S1132170AA1F649F6627B00DA11D661F829F222798
S1132180B00DA11D621F739FB00DA11D621F839F1F
S1132190A00D611D221F749F3327A00D611D231FF5
S11321A0849F600D211D822F762F6A2F11249F5743
S11321B050408AF0E1F088234AF0EE0FFF1FBB1F66
S11321C0661F771F881F91505040A9F79E3F510505
S11321D070F060CFAACF5F3FECF3983EDCF38695B6
S11321E077956795B795F795E7959F5FC1F7FE2BB0
S11321F0880F911D9695879597F90895DB018F9324
S11322009F933CD0BF91AF91A29F800D911DA39F3E
S1132210900DB29F900D11240895A1E21A2EAA1BCD
S1132220BB1BFD010DC0AA1FBB1FEE1FFF1FA21782
S1132230B307E407F50720F0A21BB30BE40BF50B7F
S1132240661F771F881F991F1A9469F76095709508
S1132250809590959B01AC01BD01CF010895A29F8B
S1132260B001B39FC001A39F700D811D1124911D66
S1132270B29F700D811D1124911D0895F0DFA59F5B
S1132280900DB49F900DA49F800D911D112408956D
S11322902A0D3B1D4C1D5D1D6E1D7F1D801F911F52
S11322A008950024A7FD00942A0F301D401D501DE1
S11322B0601D701D801D901D08952A193B094C094D
S11322C05D096E097F09800B910B08952A153B0562
S11322D04C055D056E057F05800791070895002470
S11322E0A7FD00942A1730054005500560057005C8
S11322F0800590050895FB01DC0102C001900D9258
S113230041505040D8F70895AEE0B0E0E9E8F1E17B
S1132310CEC20D891E898F89988D2EE02C831A8355
S1132320098397FF02C080E090E801979E838D8324
S1132330AE01455E5F4F698D7A8DCE01019611D055
S11323404D815E8157FD0AC02F813885421753079E
S11323500CF49A01F801E20FF31F10822E96E4E0C8
S1132360C2C2ABE0B0E0E6EBF1E193C26C017B01E9
S11323708A01FC0117821682838181FFBFC1CE01CD
S113238001963C01F6019381F70193FD859193FF3A
S113239081917F01882309F4ADC1853239F493FD1D
S11323A0859193FF81917F01853221F4B60190E0FC
S11323B0C0D1E8CF912C212C312CFFE1F315D8F0BA
S11323C08B3279F038F4803279F08332A1F4232D02
S11323D020611DC08D3261F0803369F4232D2160AA
S11323E016C0832D8260382EE32DE4603E2E2AC071
S11323F0F32DF8601DC037FC2DC020ED280F2A30C6
S113240040F08E32B9F436FC75C1232D2064322E8F
S113241019C036FE06C08AE0989E200D1124922E23
S113242011C0EAE02E9E200D1124222EF32DF0621D
S11324303F2E08C08C3621F4832D8068382E02C0CC
S1132440883641F4F70193FD859193FF81917F01D3
S11324508111B3CF982F9F7D9554933028F40C5F4E
S11324601F4F9FE399830DC0833631F0833771F09A
S1132470833509F055C020C0F801808189830E5F3F
S11324801F4F88248394912C530112C02801F2E039
S11324904F0E511CF801A080B18036FE03C0692D97
S11324A070E002C06FEF7FEFC50138D14C018201AB
S11324B0F32DFF773F2E15C0280122E0420E511C58
S11324C0F801A080B18036FE03C0692D70E002C01F
S11324D06FEF7FEFC50117D14C01F32DF0683F2E4C
S11324E0820133FC19C0822D90E088169906A0F46D
S11324F0B60180E290E01DD12A94F5CFF50137FCB6
S1132500859137FE81915F01B60190E012D12110CF
S11325102A9421E0821A91088114910479F7E1C088
S1132520843611F0893639F5F80137FE07C0608129
S11325307181828193810C5F1F4F08C0608171811A
S1132540072E000C880B990B0E5F1F4FF32DFF769F
S11325503F2E97FF09C090958095709561957F4FA8
S11325608F4F9F4FF0683F2E2AE030E0A3011DD12A
S1132570882E861844C0853731F4232D2F7EB22E41
S11325802AE030E025C0932D997FB92E8F36C1F013
S113259018F4883579F0AEC0803719F0883721F007
S11325A0A9C0E92FE061BE2EB4FE0DC0FB2DF4607E
S11325B0BF2E09C034FE0AC0292F2660B22E06C0E1
S11325C028E030E005C020E130E002C020E132E044
S11325D0F801B7FE07C060817181828193810C5F2D
S11325E01F4F06C06081718180E090E00E5F1F4F35
S11325F0A301DBD0882E8618FB2DFF773F2E36FEF5
S11326000DC0232D2E7FA22E891458F434FE0BC046
S113261032FC09C0832D8E7EA82E05C0B82CA32CB5
S113262003C0B82C01C0B92CA4FE0FC0FE01E80DF4
S1132630F11D8081803321F49A2D997EA92E09C041
S1132640A2FE06C0B394B39404C08A2D867809F020
S1132650B394A3FC10C0A0FE06C0B21480F4280CEE
S1132660922C9B180DC0B21458F4B60180E290E08D
S113267060D0B394F8CFB21418F42B1802C0982C7D
S1132680212CA4FE0FC0B60180E390E052D0A2FE3C
S113269016C0A1FC03C088E790E002C088E590E082
S11326A0B6010CC08A2D867851F0A1FE02C08BE2DF
S11326B001C080E2A7FC8DE2B60190E03AD0891413
S11326C030F4B60180E390E034D09A94F8CF8A9441
S11326D0F301E80DF11D8081B60190E02AD081104C
S11326E0F6CF222009F44ECEB60180E290E021D04C
S11326F02A94F7CFF6018681978102C08FEF9FEF6E
S11327002B96E2E1E2C0FC0105906150704001109B
S1132710D8F7809590958E0F9F1F0895FC01615006
S1132720704001900110D8F7809590958E0F9F1FEF
S113273008950F931F93CF93DF93FB01238121FD12
S113274003C08FEF9FEF2CC022FF16C04681578134
S1132750248135814217530744F4A081B1819D013E
S11327602F5F3F4F318320838C93268137812F5FE6
S11327703F4F3783268314C08B01EC01FB01008497
S1132780F185E02D0995892BE1F6D80116968D91F6
S11327909C911797019617969C938E931697CE014A
S11327A0DF91CF911F910F910895FA01AA27283044
S11327B051F1203181F1E8946F936E7F6E5F7F4F0A
S11327C08F4F9F4FAF4FB1E03ED0B4E03CD0670F86
S11327D0781F891F9A1FA11D680F791F8A1F911DD9
S11327E0A11D6A0F711D811D911DA11D20D009F429
S11327F068943F912AE0269F11243019305D31936B
S1132800DEF6CF010895462F4770405D4193B3E053
S11328100FD0C9F7F6CF462F4F70405D4A3318F0FA
S1132820495D31FD4052419302D0A9F7EACFB4E0AB
S1132830A6959795879577956795BA95C9F7009763
S11328406105710508959B01AC010A2E0694579504
S1132850479537952795BA95C9F7620F731F841F5B
S1132860951FA01D0895F999FECF92BD81BDF89AD8
S1132870992780B50895262FF999FECF1FBA92BDE6
S113288081BD20BD0FB6F894FA9AF99A0FBE01964D
S113289008952F923F924F925F926F927F928F9200
S11328A09F92AF92BF92CF92DF92EF92FF920F93DB
S11328B01F93CF93DF93CDB7DEB7CA1BDB0B0FB6E5
S11328C0F894DEBF0FBECDBF09942A8839884888A2
S11328D05F846E847D848C849B84AA84B984C88438
S11328E0DF80EE80FD800C811B81AA81B981CE0F2F
S11328F0D11D0FB6F894DEBF0FBECDBFED01089514
S1072900F894FFCF75
S105290401517B
S9030000FC
