S02100004C616E64437275697365722D436F6E74726F6C6C65725F53572E737265634D
S113000033C00000B3C500008EC5000069C5000000
S11300104BC0000042C500001DC50000F8C400002C
S1130020D3C40000AEC4000089C4000064C400004E
S11300303FC40000A8C0000018C40000F3C30000BF
S1130040CEC30000A9C3000084C300005FC3000046
S11300503AC300006DC1000013C30000EEC20000EB
S1130060C9C20000A4C2000011241FBECFEFD8E013
S1130070DEBFCDBF11E0A0E0B1E0E0E9FEE102C0E7
S113008005900D92A230B107D9F721E0A2E0B1E0CA
S113009001C01D92AC3DB207E1F70E941B0C0C9409
S11300A0460F9895000008951F920F920FB60F9275
S11300B01124AF92BF92CF92DF92EF92FF920F93EF
S11300C01F932F933F934F935F936F937F938F93DC
S11300D09F93AF93BF93EF93FF93329B3BC0F091F9
S11300E0D401E091D5018F2F9E2F892B99F12F2FC9
S11300F03E2F40E050E060E070E080E090E0A090AF
S11301000201B0900301C0900401D0900501E09079
S11301100601F090070100910801109109010E9465
S1130120120FB1E0A4E60E94240F11F008F0B0E031
S1130130B0936F01F0930201E09303011092040164
S11301401092050110920601109207011092080105
S113015010920901FF91EF91BF91AF919F918F91FF
S11301607F916F915F914F913F912F911F910F91CB
S1130170FF90EF90DF90CF90BF90AF900F900FBEA5
S11301800F901F9018951F920F920FB60F92112483
S11301905F926F927F928F929F92AF92BF92CF9213
S11301A0DF92EF92FF920F931F932F933F934F93FE
S11301B05F936F937F938F939F93AF93BF93CF93EB
S11301C0DF93EF93FF932091D4013091D5014091B7
S11301D0D6015091D7016091D8017091D9018091D5
S11301E0DA019091DB01A1E00E94060F2093D40173
S11301F03093D5014093D6015093D7016093D80131
S11302007093D9018093DA019093DB018091880186
S1130210811101C039D5C3D5522E632E742E852E7B
S1130220962ED72FC82FB92FA0908001B0908101AE
S1130230C0908201D0908301E0908401F090850108
S113024000918601109187010E941B0F08F445C09C
S1130250A0918801EA2FF0E0CF01880F991FE80FE1
S1130260F91FE757FE4FA180B280950140E050E0AE
S113027060E070E080E090E0A52CB62CC72CD82C70
S1130280E92CFD2E0C2F1B2F0E94FD0E20938001C4
S113029030938101409382015093830160938401E0
S11302A0709385018093860190938701AF5FA0933B
S11302B088018081813031F058F08F3F71F41092C1
S11302C088010BC08093D30161E081E08BD405C029
S11302D01092D30160E081E085D480918801883157
S11302E038F0109288011092D30160E081E07AD452
S11302F0FF91EF91DF91CF91BF91AF919F918F913A
S11303007F916F915F914F913F912F911F910F9129
S1130310FF90EF90DF90CF90BF90AF909F908F9021
S11303207F906F905F900F900FBE0F901F90189565
S11303301F920F920FB60F9211248F929F92AF9239
S1130340BF92CF92DF92EF92FF922F933F934F93FE
S11303505F936F937F938F939F93AF93BF93CF9349
S1130360DF93EF93FF93409178008091790050E000
S1130370582B80917F014D33510518F0EA01EC9719
S113038002C0C0E0D0E0909100019F5F9093000113
S1130390943628F010920001823019F414C082308F
S11303A081F0833038F4813009F0E0C082E080933A
S11303B07F01E2C0833009F46BC0843009F46CC05F
S11303C0D5C09111D9C0C0907B01D0907C01E09040
S11303D07D01F0907E01789420E030E0A901C7010E
S11303E0B6010E94690DAE0160E070E08823E9F077
S11303F0CB01BA010E949E0D2AE037ED43EA5CE38B
S11304000E94500E4B015C0128E431EE4AE75FE3A1
S1130410C701B6010E94500E9B01AC01C501B40195
S11304200E94050D4B015C0106C0CB01BA010E947C
S11304309E0D4B015C01C701B6010E94720D9B0128
S1130440AC016DE278E88CE290E00E94B30E20E00B
S113045030ED42E050E00E94C20EF89480927B019D
S113046090927C01A0927D01B0927E0130937A013A
S11304702093790181E02430394208F080E08093B0
S1130480780188EC80937C0083E080937F0174C0C2
S113049084E080937F0170C08091000181116CC061
S11304A0C0907401D0907501E0907601F0907701CE
S11304B0789420E030E0A901C701B6010E94690DDB
S11304C0AE0160E070E08823D9F0CB01BA010E944C
S11304D09E0D2FE632E143E05BE30E94500E4B0198
S11304E05C012EEE3CE74FE75FE3C701B6010E94D3
S11304F0500E9B01AC01C501B4010E94050D04C05E
S1130500CB01BA010E949E0DF8946093740170931C
S11305107501809376019093770123EB30E445E9EC
S113052053E40E94040D20E030EA47E85FE30E94B0
S1130530500E20E030E048EC51E40E94050D20E02C
S113054030E048EC52E40E94500E0E946D0D60931E
S1130550700170937101809372019093730180EC28
S113056080937C0081E080937F0106C080EC8093BF
S11305707C0081E080937F01FF91EF91DF91CF9127
S1130580BF91AF919F918F917F916F915F914F91A7
S11305903F912F91FF90EF90DF90CF90BF90AF905D
S11305A09F908F900F900FBE0F901F9018951F92E1
S11305B00F920FB60F9211242F933F934F935F9393
S11305C06F937F938F939F93AF93BF93EF93FF9317
S11305D068DDFF91EF91BF91AF919F918F917F91D2
S11305E06F915F914F913F912F910F900FBE0F909C
S11305F01F9018951F920F920FB60F9211242F93EC
S11306003F934F935F936F937F938F939F93AF9396
S1130610BF93EF93FF93CBDFFF91EF91BF91AF9126
S11306209F918F917F916F915F914F913F912F9106
S11306300F900FBE0F901F9018951F920F920FB638
S11306400F9211242F933F934F935F936F937F9354
S11306508F939F93AF93BF93EF93FF93A8DFFF9183
S1130660EF91BF91AF919F918F917F916F915F9126
S11306704F913F912F910F900FBE0F901F9018959F
S11306801F920F920FB60F9211242F933F934F9303
S11306905F936F937F938F939F93AF93BF93EF93E6
S11306A0FF9385DFFF91EF91BF91AF919F918F9160
S11306B07F916F915F914F913F912F910F900FBE5A
S11306C00F901F9018951F920F920FB60F9211243E
S11306D02F933F934F935F936F937F938F939F9346
S11306E0AF93BF93EF93FF9362DFFF91EF91BF91BD
S11306F0AF919F918F917F916F915F914F913F91B6
S11307002F910F900FBE0F901F9018951F920F926C
S11307100FB60F9211242F933F934F935F936F93D0
S11307207F938F939F93AF93BF93EF93FF933FDF99
S1130730FF91EF91BF91AF919F918F917F916F91B5
S11307405F914F913F912F910F900FBE0F901F908B
S113075018951F920F920FB60F9211242F933F9367
S11307604F935F936F937F938F939F93AF93BF93B5
S1130770EF93FF931CDFFF91EF91BF91AF919F9196
S11307808F917F916F915F914F913F912F910F9036
S11307900FBE0F901F9018951F920F920FB60F92D5
S11307A011242F933F934F935F936F937F938F9372
S11307B09F93AF93BF93EF93FF93F9DEFF91EF9174
S11307C0BF91AF919F918F917F916F915F914F9165
S11307D03F912F910F900FBE0F901F9018951F926D
S11307E00F920FB60F9211242F933F934F935F9361
S11307F06F937F938F939F93AF93BF93EF93FF93E5
S1130800D6DEFF91EF91BF91AF919F918F917F9130
S11308106F915F914F913F912F910F900FBE0F9069
S11308201F9018951F920F920FB60F9211242F93B9
S11308303F934F935F936F937F938F939F93AF9364
S1130840BF93EF93FF93B3DEFF91EF91BF91AF910D
S11308509F918F917F916F915F914F913F912F91D4
S11308600F900FBE0F901F9018951F920F920FB606
S11308700F9211242F933F934F935F936F937F9322
S11308808F939F93AF93BF93EF93FF9390DEFF916A
S1130890EF91BF91AF919F918F917F916F915F91F4
S11308A04F913F912F910F900FBE0F901F9018956D
S11308B01F920F920FB60F9211242F933F934F93D1
S11308C05F936F937F938F939F93AF93BF93EF93B4
S11308D0FF936DDEFF91EF91BF91AF919F918F9147
S11308E07F916F915F914F913F912F910F900FBE28
S11308F00F901F9018951F920F920FB60F9211240C
S11309002F933F934F935F936F937F938F939F9313
S1130910AF93BF93EF93FF934ADEFF91EF91BF91A3
S1130920AF919F918F917F916F915F914F913F9183
S11309302F910F900FBE0F901F9018951F920F923A
S11309400FB60F9211242F933F934F935F936F939E
S11309507F938F939F93AF93BF93EF93FF9327DE80
S1130960FF91EF91BF91AF919F918F917F916F9183
S11309705F914F913F912F910F900FBE0F901F9059
S113098018951F920F920FB60F9211242F933F9335
S11309904F935F936F937F938F939F93AF93BF9383
S11309A0EF93FF9304DEFF91EF91BF91AF919F917D
S11309B08F917F916F915F914F913F912F910F9004
S11309C00FBE0F901F9018951F920F920FB60F92A3
S11309D011242F933F934F935F936F937F938F9340
S11309E09F93AF93BF93EF93FF93E1DDFF91EF915B
S11309F0BF91AF919F918F917F916F915F914F9133
S1130A003F912F910F900FBE0F901F9018951F923A
S1130A100F920FB60F9211242F933F934F935F932E
S1130A206F937F938F939F93AF93BF93EF93FF93B2
S1130A30BEDDFF91EF91BF91AF919F918F917F9117
S1130A406F915F914F913F912F910F900FBE0F9037
S1130A501F9018951F920F920FB60F9211242F9387
S1130A603F934F935F936F937F938F939F93AF9332
S1130A70BF93EF93FF939BDDFF91EF91BF91AF91F4
S1130A809F918F917F916F915F914F913F912F91A2
S1130A900F900FBE0F901F9018951F920F920FB6D4
S1130AA00F9211242F933F934F935F936F937F93F0
S1130AB08F939F93AF93BF93EF93FF9378DDFF9151
S1130AC0EF91BF91AF919F918F917F916F915F91C2
S1130AD04F913F912F910F900FBE0F901F9018953B
S1130AE01F920F920FB60F9211242F933F934F939F
S1130AF05F936F937F938F939F93AF93BF93EF9382
S1130B00FF9355DDFF91EF91BF91AF919F918F912D
S1130B107F916F915F914F913F912F910F900FBEF5
S1130B200F901F9018951F920F920FB60F921124D9
S1130B302F933F934F935F936F937F938F939F93E1
S1130B40AF93BF93EF93FF9332DDFF91EF91BF918A
S1130B50AF919F918F917F916F915F914F913F9151
S1130B602F910F900FBE0F901F9018951F920F9208
S1130B700FB60F9211242F933F934F935F936F936C
S1130B807F938F939F93AF93BF93EF93FF930FDD67
S1130B90FF91EF91BF91AF919F918F917F916F9151
S1130BA05F914F913F912F910F900FBE0F901F9027
S1130BB01895CF93DF931F92CDB7DEB78FB7898394
S1130BC0F89489810F90DF91CF91089580E090E0AF
S1130BD00E94300F813129F061E180E090E00C94B3
S1130BE0380F089590914501882391F0911104C024
S1130BF0539A81E08093450180914401861771F0F6
S1130C00662311F05B9A01C05B98609344010895D8
S1130C10992321F053985B98109245010895CF923F
S1130C20DF92EF92FF926B017C01C3DFC114D10408
S1130C30E104F10481F0B701A60194E0769567958B
S1130C40579547959A95D1F747709FEF940F953034
S1130C5018F045E001C040E04093D101C114D10433
S1130C60E104F10441F02C2D27709FEF920F953091
S1130C7018F025E001C020E02093D2018FBFFF903F
S1130C80EF90DF90CF900895AF92BF92CF92DF9212
S1130C90EF92FF920F931F93CF93DF938ADFB0906D
S1130CA08801B1106DC0A1EDB1E020E0F12CAA24BF
S1130CB0A39444E650E068EC70E0C6E2D2E09D9173
S1130CC09923B1F1EF2C20E030E0092F10E0201738
S1130CD03107F4F4EE2DF0E06F01CC0CDD1CEC0DCB
S1130CE0FD1DE757FE4FA08252834183E1E0EE0DE4
S1130CF0F0E06F01CC0CDD1CEC0DFD1DE757FE4F41
S1130D001082E394E394728361832F5F3F4FDFCFBC
S1130D10990FF90EEF2DF0E09F01220F331FE20F20
S1130D20F31FE757FE4F1082F394D283C18321E06F
S1130D3091E0A33DB90719F62111F0928801909131
S1130D408801E92FF0E09F01220F331FE20FF31F08
S1130D50E757FE4F10829F5F26E232E03283218301
S1130D60E92FF0E09F01220F331FE20FF31FE75733
S1130D70FE4F2FEF2083128211821092880101C04E
S1130D809B2D8FBF892F8B19DF91CF911F910F91CD
S1130D90FF90EF90DF90CF90BF90AF90089509DF60
S1130DA0E82F2091D4013091D5014091D601509182
S1130DB0D7016091D8017091D9018091DA019091A5
S1130DC0DB01EFBF08952F923F924F925F926F9293
S1130DD07F928F929F92AF92BF92CF92DF92EF92C7
S1130DE0FF920F931F93CF93DF93CDB7DEB728976E
S1130DF00FB6F894DEBF0FBECDBF29833A83942E7D
S1130E00852E762E672E582E492E20913C01309146
S1130E103D0140913E0150913F016091400170912C
S1130E2041018091420190914301A980BA80C92C6B
S1130E30D82CE72CF62C052D142DFDD711F008F035
S1130E40D9C4BF82AE829501492D582D672D762DC8
S1130E50852D942DA2E3DAD720933C0130933D01F4
S1130E6040933E0150933F016093400170934101D0
S1130E7080934201909343019CDE23B199B18FBFCB
S1130E8030903B0130923A01A0903901A0923B018D
S1130E90F0903801F09239010091370109830093F1
S1130EA03601F0913501F09337011091340110931C
S1130EB03301B0913201B0933401709131017A83DE
S1130EC0709130017093310180912F018B83609177
S1130ED02E0160932F01A0912D01AC8350912C0120
S1130EE050932D01E0912B01ED8340912A01409311
S1130EF02B010091290108873091280130932901A1
S1130F0081E0A92FA071CA2E94FD80E0809338015E
S1130F10A0917801A0933201E0916F01E093350133
S1130F2081E0022F0074D02E26FD80E080933001F2
S1130F30822F8095881F8827881F80932E0181E047
S1130F40092F0074E02E96FD80E080932C01892FF8
S1130F508095881F8827881F80932A01822F81709B
S1130F60BB24B394282E2B2420922801AA2039F0E4
S1130F70FF2051F0C11008C0B092270105C0F11044
S1130F8003C0C11010922701112341F0BB2361F06B
S1130F90AA2351F0A1E0A093260106C0B11104C018
S1130FA0A11102C0109226010981002341F0FF2300
S1130FB061F0EE2351F0E1E0E093250106C0F11168
S1130FC004C0E11102C010922501AA81AA2341F0B4
S1130FD0772359F0D11009C071E07093240105C042
S1130FE0711103C0D11010922401EB81EE2341F062
S1130FF0662359F027FD09C021E02093230105C091
S1131000611103C027FD109223010C81002341F0DC
S1131010552359F0E11009C021E02093220105C0B5
S1131020511103C0E110109222012D81222341F0BD
S1131030442359F097FD09C091E09093210105C024
S1131040411103C097FD109221017885772341F067
S1131050332359F0811109C081E08093200105C038
S1131060311103C081111092200100910101602F00
S113107070E080E090E0D3DD013309F464C170F4E2
S1131080013209F470C018F4013121F18AC202322C
S113109009F4FAC0033209F44EC183C2023409F4DC
S11310A054C220F4013409F490C17BC2033409F41E
S11310B074C2013509F075C210921F0110921E010D
S11310C010921D0110921C0110921B0181E180936A
S11310D001016AC280912701882341F09091260181
S11310E0911104C0909125019923A1F0109213014C
S11310F0109214011092150110921601109217010A
S1131100109218011092190110921A01882309F4FF
S11311104BC287C2332031F0111104C0098100236E
S113112009F47FC22E813F81492D582D672D762DDC
S1131130852D942D2C503E4F4F4F5F4F6F4F7F4F57
S11311408F4F9F4F20931301309314014093150147
S1131150509316016093170170931801809319013D
S113116090931A015EC2A0900B01B0900C01C09044
S11311700D01D0900E01E0900F01F090100100914C
S11311801101109112019501A601B701C801A0E057
S11311905BD661F02E813F81492D582D672D762D28
S11311A0852D942D48D610F010921D01E091270151
S11311B0E11111C010921301109214011092150143
S11311C01092160110921701109218011092190131
S11311D010921A0122C0311020C02E813F81492D66
S11311E0582D672D762D852D942D28513C4F4F4F2A
S11311F05F4F6F4F7F4F8F4F9F4F2093130130935B
S113120014014093150150931601609317017093D4
S113121018018093190190931A0180912301882366
S113122009F4C2C1809124018111BEC180912001C1
S1131230882309F4B9C1EE2309F4B6C1A0901301BF
S1131240B0901401C0901501D0901601E0901701E0
S1131250F09018010091190110911A019501A6014D
S1131260B701C801A0E0F0D509F49EC12E813F81E9
S1131270492D582D672D762D852D942DDCD508F418
S113128093C110921D0156C1A0900B01B0900C01A6
S1131290C0900D01D0900E01E0900F01F09010016C
S11312A000911101109112019501A601B701C80125
S11312B0A0E0CAD561F02E813F81492D582D672DBC
S11312C0762D852D942DB7D510F010921D018091A7
S11312D02101882341F010921C0110921B0183E22A
S11312E08093010161C180912701882309F4A0C082
S11312F03110FAC12E813F81492D582D672D762D4D
S1131300852D942D28513C4F4F4F5F4F6F4F7F4F8A
S11313108F4F9F4F20931301309314014093150175
S1131320509316016093170170931801809319016B
S113133090931A01D9C180912701811135C181E3AC
S11313408093010131C180912701882321F090917C
S113135026019923A1F01092130110921401109206
S11313601501109216011092170110921801109293
S1131370190110921A01882309F416C1EDC1332012
S113138019F0112309F4E8C12E813F81492D582D0C
S1131390672D762D852D942D2C503E4F4F4F5F4F4A
S11313A06F4F7F4F8F4F9F4F209313013093140142
S11313B0409315015093160160931701709318011F
S11313C08093190190931A01C7C180912201882347
S11313D059F110921C0110921B012E813F81492D5D
S11313E0582D672D762D852D942D28513C4F4F4F28
S11313F05F4F6F4F7F4F8F4F9F4F20930B01309361
S11314000C0140930D0150930E0160930F017093F2
S11314101001809311019093120181E080931E01C9
S113142082E480930101C0C0F0912701F1111EC034
S113143010921301109214011092150110921601CA
S113144010921701109218011092190110921A01AA
S113145010921C0110921B01332009F4A5C0909135
S11314600A0181E0892780930A019EC0311020C0BF
S11314702E813F81492D582D672D762D852D942D54
S113148028513C4F4F4F5F4F6F4F7F4F8F4F9F4FB0
S113149020931301309314014093150150931601C6
S11314A060931701709318018093190190931A01A6
S11314B0E0912301E11104C081E080931D0102C089
S11314C010921D01FF2309F46FC0A0901301B09086
S11314D01401C0901501D0901601E0901701F0900E
S11314E018010091190110911A019501A601B70183
S11314F0C801A0E0A9D409F457C02E813F81492D29
S1131500582D672D762D852D942D95D408F44CC037
S113151080910A0181110EC0E11104C081E0809321
S11315201D0142C010921C0181E080931B011092A6
S11315301D013AC081E080931C0110921B0110929E
S11315400A0182E2809301012FC0A0900B01B090A8
S11315500C01C0900D01D0900E01E0900F01F090AD
S1131560100100911101109112012E813F81492D2A
S1131570582D672D762D852D942D5DD410F0109265
S11315801E0180912401882379F010921E0110928B
S11315901F0183E48093010107C080912701811119
S11315A003C081E58093010180911E01882319F015
S11315B023EE298302C073EC798380911D01882373
S11315C011F080E101C080E09981982B998380918A
S11315D01C01882311F098E001C090E0A981A92B97
S11315E0A98380911B01882311F084E001C080E06D
S11315F00981082B098380911F01882319F00FEFBB
S11316000A8302C007EF0A83D4DA098105B90A8183
S113161008B99FEF9BB990911F0190936E018FBF02
S1131620E9C0809126018111BFCF809125018111EC
S1131630BBCF80912201882309F4B6CF8091210188
S11316408111B2CF80912401882309F4ADCF809118
S113165023018111A9CF80912001882309F4A4CF0B
S1131660E1E0E0931F01A0901301B0901401C09039
S11316701501D0901601E0901701F0901801009127
S1131680190110911A019501A601B701C801A0E042
S1131690DBD309F489CF2E813F81492D582D672D45
S11316A0762D852D942DC7D308F47ECFE0931D01AC
S11316B028513C4F4F4F5F4F6F4F7F4F8F4F9F4F7E
S11316C020930B0130930C0140930D0150930E01B4
S11316D060930F0170931001809311019093120194
S11316E081E28093010160CFA0901301B0901401B6
S11316F0C0901501D0901601E0901701F0901801E8
S11317000091190110911A019501A601B701C801B0
S1131710A0E09AD309F448CF2E813F81492D582D5A
S1131720672D762D852D942D86D308F43DCF809199
S11317300A01811106C081E080931C0110921B01F3
S113174033CF10921C0181E080931B0110920A0197
S113175081E48093010128CF80912601811124CF57
S113176080912301811103C091E090931D01909118
S11317702201911119CF90912101992309F414CFD9
S113178090912401911110CF882309F40DCF8091F9
S11317902001882309F408CFA0901301B09014010C
S11317A0C0901501D0901601E0901701F090180137
S11317B00091190110911A019501A601B701C80100
S11317C0A0E042D309F4F0CE2E813F81492D582D5B
S11317D0672D762D852D942D2ED308F4E5CE109209
S11317E01C0181E080931B0110921D0181E4809310
S11317F00101DACE28960FB6F894DEBF0FBECDBF36
S1131800DF91CF911F910F91FF90EF90DF90CF90D8
S1131810BF90AF909F908F907F906F905F904F900C
S11318203F902F900895880F816083BF889583B778
S11318308E7F83BF08958CE384B983EC85B988E2F5
S113184087B980E388B98AE08AB987EF8BB984E0E5
S113185080936C0082E08BBB80936800A6D08BEEF3
S11318608093640061E080E0B9D083E080937E00DF
S113187086E880937A0080EC80937C0080917B00E2
S1131880887F866080937B0080917A008062809359
S11318907A0080917A00806180937A0080917A0046
S11318A0886080937A0080917A00806480937A00C3
S11318B068E080E093D081E08093800092E190938F
S11318C0810010928500109284008093890093EF28
S11318D09093880097E296BB80936F0065D084B79D
S11318E080934701982F977011F4811146C061D9F4
S11318F0109246011092D4011092D5011092D60193
S11319001092D7011092D8011092D9011092DA01E5
S11319101092DB011092D30110927F0110927B018F
S113192010927C0110927D0110927E0110927A0136
S1131930109279011092780110927401109275013D
S11319401092760110927701109270011092710139
S1131950109272011092730110926F0110926E0135
S113196095E2E9E4F1E0DF011D929A95E9F710921E
S11319704801109247018FBF02C00E94510026D92E
S1131980789481E0809346010ADA1DDA8091D301CC
S1131990811103C060E080E025D980E044DF6091DC
S11319A0D30181E01FD9F0CF0895CF93DF931F9225
S11319B0CDB7DEB78FEF809364008FB78983F89437
S11319C089815F9350E85093610050E05093610027
S11319D05F918FBF0F90DF91CF910895CF93DF93E5
S11319E01F92CDB7DEB79FB79983F894998181117F
S11319F006C06095809164006823609364009FBF73
S1131A000F90DF91CF9108955058BB27AA270ED08D
S1131A100DC1FED030F003D120F031F49F3F11F41A
S1131A201EF4F3C00EF4E095E7FBE9C0E92F0FD1F3
S1131A3080F3BA17620773078407950718F071F4E7
S1131A409EF527C10EF4E0950B2EBA2FA02D0B01A5
S1131A50B90190010C01CA01A0011124FF27591BEF
S1131A6099F0593F50F4503E68F11A16F040A22FF5
S1131A70232F342F4427585FF3CF46953795279566
S1131A80A795F0405395C9F77EF41F16BA0B620B65
S1131A90730B840BBAF09150A1F0FF0FBB1F661FAC
S1131AA0771F881FC2F70EC0BA0F621F731F841FEF
S1131AB048F4879577956795B795F7959E3F08F015
S1131AC0B3CF9395880F08F09927EE0F97958795D4
S1131AD0089571D008F481E0089504D06894B11198
S1131AE0D9C00895BCD088F09F5790F0B92F99279A
S1131AF0B751A0F0D1F0660F771F881F991F1AF015
S1131B00BA95C9F712C0B13081F0C3D0B1E00895DD
S1131B10C0C0672F782F8827B85F39F0B93FCCF35E
S1131B20869577956795B395D9F73EF4909580950A
S1131B30709561957F4F8F4F9F4F0895E89409C02A
S1131B4097FB3EF490958095709561957F4F8F4FEC
S1131B509F4F9923A9F0F92F96E9BB279395F69502
S1131B60879577956795B795F111F8CFFAF4BB0F80
S1131B7011F460FF1BC06F5F7F4F8F4F9F4F16C0E4
S1131B80882311F096E911C0772321F09EE8872F6E
S1131B90762F05C0662371F096E8862F70E060E02A
S1131BA02AF09A95660F771F881FDAF7880F9695A3
S1131BB0879597F90895990F0008550FAA0BE0E847
S1131BC0FEEF16161706E807F907C0F012161306FB
S1131BD0E407F50798F0621B730B840B950B39F43B
S1131BE00A2661F0232B242B252B21F408950A26A1
S1131BF009F4A140A6958FEF811D811D089597F9E1
S1131C009F6780E870E060E008959FEF80EC08959E
S1131C1000240A94161617061806090608950024C7
S1131C200A9412161306140605060895092E039441
S1131C30000C11F4882352F0BB0F40F4BF2B11F4B5
S1131C4060FF04C06F5F7F4F8F4F9F4F089557FD14
S1131C509058440F551F59F05F3F71F04795880F16
S1131C6097FB991F61F09F3F79F0879508951216AD
S1131C7013061406551FF2CF4695F1DF08C0161659
S1131C8017061806991FF1CF86957105610508940A
S1131C900895E894BB2766277727CB0197F9089521
S1131CA00BD0C4CFB5DF28F0BADF18F0952309F0C4
S1131CB0A6CFABCF1124EECFCADFA0F3959FD1F30B
S1131CC0950F50E0551F629FF001729FBB27F00DE6
S1131CD0B11D639FAA27F00DB11DAA1F649F66273B
S1131CE0B00DA11D661F829F2227B00DA11D621F8A
S1131CF0739FB00DA11D621F839FA00D611D221F44
S1131D00749F3327A00D611D231F849F600D211D27
S1131D10822F762F6A2F11249F5750408AF0E1F0CA
S1131D2088234AF0EE0FFF1FBB1F661F771F881F13
S1131D3091505040A9F79E3F510570F060CFAACF53
S1131D405F3FECF3983EDCF3869577956795B795FE
S1131D50F795E7959F5FC1F7FE2B880F911D969528
S1131D60879597F90895DB018F939F933CD0BF919A
S1131D70AF91A29F800D911DA39F900DB29F900DD6
S1131D8011240895A1E21A2EAA1BBB1BFD010DC04C
S1131D90AA1FBB1FEE1FFF1FA217B307E407F50717
S1131DA020F0A21BB30BE40BF50B661F771F881FF3
S1131DB0991F1A9469F760957095809590959B0189
S1131DC0AC01BD01CF010895A29FB001B39FC00132
S1131DD0A39F700D811D1124911DB29F700D811D53
S1131DE01124911D0895F0DFA59F900DB49F900DCF
S1131DF0A49F800D911D112408952A0D3B1D4C1D97
S1131E005D1D6E1D7F1D801F911F08950024A7FD79
S1131E1000942A0F301D401D501D601D701D801D33
S1131E20901D08952A193B094C095D096E097F0923
S1131E30800B910B08952A153B054C055D056E0535
S1131E407F058007910708950024A7FD00942A17B1
S1131E50300540055005600570058005900508951E
S1131E60F999FECF92BD81BDF89A992780B508955E
S1131E70262FF999FECF1FBA92BD81BD20BD0FB6A2
S1131E80F894FA9AF99A0FBE01960895F894FFCF40
S1051E900151FA
S9030000FC
