S02100004C616E64437275697365722D436F6E74726F6C6C65725F53572E737265634D
S1130000B5C000004AC6000025C6000000C60000B6
S1130010CDC00000D9C50000B4C500008FC50000E4
S11300206AC5000045C5000020C50000FBC40000EF
S1130030D6C40000BBC20000AFC400008AC40000E4
S113004065C4000040C4000020C1000059C1000084
S113005090C1000015C40000F0C30000CBC3000031
S1130060A6C3000081C30000232046534D2D4F75C5
S1130070747075743A204F6B6C3D25642C204F705E
S113008076673D25642C204F70766F3D25642C20C7
S11300904F6D313D25642C204F6D323D25640D0A92
S11300A000232046534D2D20496E7075743A204923
S11300B066623D25642C204975763D25642C2049D3
S11300C06F733D25642C2049736B673D25642C2098
S11300D049736B6F3D25642C20497361673D25642A
S11300E02C204973616F3D25642C20497368673D5A
S11300F025640D0A00232046534D2D20537461744A
S1130100653A20307825303258202D2D3E20307825
S1130110253032580D0A004C616E64437275697360
S113012065722D436F6E74726F6C2076657273699D
S11301306F6E20323025303364253033640D0A006D
S11301403D3D3D3D3D3D3D3D3D3D3D3D3D3D3D3DDB
S11301503D3D3D3D3D3D3D3D3D3D3D3D3D3D3D3DCB
S11301603D3D3D3D3D0D0A000D0A000011241FBE1A
S1130170CFEFD8E0DEBFCDBF11E0A0E0B1E0E8E111
S1130180FAE202C005900D92A230B107D9F724E03B
S1130190A2E0B1E001C01D92A930B207E1F70E94CC
S11301A07C0D0C940A159895000008951F920F92E7
S11301B00FB60F921124AF92BF92CF92DF92EF92BB
S11301C0FF920F931F932F933F934F935F936F93DC
S11301D07F938F939F93AF93BF93EF93FF93329B40
S11301E03BC0F0910104E09102048F2F9E2F892BD4
S11301F099F12F2F3E2F40E050E060E070E080E066
S113020090E0A0900201B0900301C0900401D0904E
S11302100501E0900601F09007010091080110919A
S113022009010E94E711B1E0A4E60E94F91111F05E
S113023008F0B0E0B0939C03F0930201E093030153
S11302401092040110920501109206011092070108
S11302501092080110920901FF91EF91BF91AF91A3
S11302609F918F917F916F915F914F913F912F91CA
S11302701F910F91FF90EF90DF90CF90BF90AF90C0
S11302800F900FBE0F901F9018951F920F920FB6EC
S11302900F9211242F933F934F938F939F93EF9338
S11302A0FF934091C60080915203909153039C01A7
S11302B02F5F3F4F3093530320935203FC01EC5ABA
S11302C0FC4F4083F901EC5AFC4F10824A3019F478
S11302D081E0809351032032310530F08FE190E0CA
S11302E09093530380935203FF91EF919F918F91C9
S11302F04F913F912F910F900FBE0F901F90189523
S11303001F920F920FB60F9211242F933F934F9386
S11303108F939F93EF93FF9380914F02909150029C
S1130320892BD9F0809151028093C60020914F020D
S11303303091500240E0842F90E08217930738F404
S1130340FC01EF5AFD4F818180834F5FF4CF215030
S113035031093093500220934F02FF91EF919F9106
S11303608F914F913F912F910F900FBE0F901F903F
S113037018951F920F920FB60F92112410924E02ED
S11303800F900FBE0F901F901895CF92DF92EF92AF
S1130390FF920F931F93CF93DF9300D0CDB7DEB7B7
S11303A0809178002091790090E0922B9A83898340
S11303B089819A81CD9730F089819A81CC979A83EB
S11303C0898302C01A8219828091AC03882321F0A8
S11303D0813009F479C0DDC009811A8123E333E354
S11303E043E75FE36091A8037091A9038091AA0396
S11303F09091AB030E9425116B017C01B80180E050
S113040090E00E9497102DEC3CEC4CE45DE30E94DC
S113041025119B01AC01C701B6010E9402106B01BA
S11304207C010E946B109B01AC0164EC7FED81E0C8
S113043090E00E948811DC01CB012AE0B695A795D3
S1130440979587952A95D1F7BC016C527E47C09247
S1130450A803D092A903E092AA03F092AB0370938D
S1130460A7036093A603CB01A0E0B0E021E08430B1
S11304709942A105B1050CF020E02093A50388E47E
S11304808093010181E08093AC0380910001882373
S113049009F481C081508093000169817A8180E0F0
S11304A090E00E9497106093A8037093A90380932F
S11304B0AA039093AB0380EE9EE29093A7038093EC
S11304C0A6031092A50367C009811A812EEE3CE7AA
S11304D04FE75FE36091A1037091A2038091A303AE
S11304E09091A4030E9425116B017C01B80180E066
S11304F090E00E9497102FE632E143E05BE30E9414
S113050025119B01AC01C701B6010E940210609342
S1130510A1037093A2038093A3039093A4032AE4FA
S11305203DE940E852E40E9401102CE83EE14AE92A
S113053050E40E94251120E030E04AE952E40E9490
S1130540021020E030E048EC52E40E9425110E94A1
S1130550661060939D0370939E0380939F03909312
S1130560A00380E4809301011092AC038091000108
S1130570882389F069817A8180E090E00E94971055
S11305806093A1037093A2038093A3039093A403A5
S113059002C01092AC030F900F90DF91CF911F9186
S11305A00F91FF90EF90DF90CF9008951F920F92DC
S11305B00FB60F9211245F926F927F928F929F9247
S11305C0AF92BF92CF92DF92EF92FF920F931F935D
S11305D02F933F934F935F936F937F938F939F9347
S11305E0AF93BF93CF93DF93EF93FF9320910104D5
S11305F03091020440910304509104046091050475
S1130600709106048091070490910804A1E00E946F
S1130610DB112093010430930204409303045093AC
S11306200404609305047093060480930704909374
S113063008048091B503811101C0BDD370D4522E3A
S1130640632E742E852E962ED72FC82FB92FA090E7
S1130650AD03B090AE03C090AF03D090B003E09070
S1130660B103F090B2030091B3031091B4030E945C
S1130670F01108F445C0A091B503EA2FF0E0CF01D2
S1130680880F991FE80FF91FEA54FC4FA180B2802C
S1130690950140E050E060E070E080E090E0A52C3F
S11306A0B62CC72CD82CE92CFD2E0C2F1B2F0E9406
S11306B0D2112093AD033093AE034093AF03509314
S11306C0B0036093B1037093B2038093B303909328
S11306D0B403AF5FA093B5038081813031F058F04B
S11306E08F3F71F41092B5030BC08093000461E056
S11306F081E00FD305C01092000460E081E009D3CB
S11307008091B503883138F01092B503109200043B
S113071060E081E0FED280910101D8D380917A001B
S113072086FDFCCF32DEEFD3FF91EF91DF91CF91C5
S1130730BF91AF919F918F917F916F915F914F91F5
S11307403F912F911F910F91FF90EF90DF90CF90E9
S1130750BF90AF909F908F907F906F905F900F901D
S11307600FBE0F901F9018951F920F920FB60F9205
S113077011242F933F934F935F936F937F938F93A2
S11307809F93AF93BF93EF93FF930DDDFF91EF9191
S1130790BF91AF919F918F917F916F915F914F9195
S11307A03F912F910F900FBE0F901F9018951F929D
S11307B00F920FB60F9211242F933F934F935F9391
S11307C06F937F938F939F93AF93BF93EF93FF9315
S11307D0CBDFFF91EF91BF91AF919F918F917F916B
S11307E06F915F914F913F912F910F900FBE0F909A
S11307F01F9018951F920F920FB60F9211242F93EA
S11308003F934F935F936F937F938F939F93AF9394
S1130810BF93EF93FF93A8DFFF91EF91BF91AF9147
S11308209F918F917F916F915F914F913F912F9104
S11308300F900FBE0F901F9018951F920F920FB636
S11308400F9211242F933F934F935F936F937F9352
S11308508F939F93AF93BF93EF93FF9385DFFF91A4
S1130860EF91BF91AF919F918F917F916F915F9124
S11308704F913F912F910F900FBE0F901F9018959D
S11308801F920F920FB60F9211242F933F934F9301
S11308905F936F937F938F939F93AF93BF93EF93E4
S11308A0FF9362DFFF91EF91BF91AF919F918F9181
S11308B07F916F915F914F913F912F910F900FBE58
S11308C00F901F9018951F920F920FB60F9211243C
S11308D02F933F934F935F936F937F938F939F9344
S11308E0AF93BF93EF93FF933FDFFF91EF91BF91DE
S11308F0AF919F918F917F916F915F914F913F91B4
S11309002F910F900FBE0F901F9018951F920F926A
S11309100FB60F9211242F933F934F935F936F93CE
S11309207F938F939F93AF93BF93EF93FF931CDFBA
S1130930FF91EF91BF91AF919F918F917F916F91B3
S11309405F914F913F912F910F900FBE0F901F9089
S113095018951F920F920FB60F9211242F933F9365
S11309604F935F936F937F938F939F93AF93BF93B3
S1130970EF93FF93F9DEFF91EF91BF91AF919F91B8
S11309808F917F916F915F914F913F912F910F9034
S11309900FBE0F901F9018951F920F920FB60F92D3
S11309A011242F933F934F935F936F937F938F9370
S11309B09F93AF93BF93EF93FF93D6DEFF91EF9195
S11309C0BF91AF919F918F917F916F915F914F9163
S11309D03F912F910F900FBE0F901F9018951F926B
S11309E00F920FB60F9211242F933F934F935F935F
S11309F06F937F938F939F93AF93BF93EF93FF93E3
S1130A00B3DEFF91EF91BF91AF919F918F917F9151
S1130A106F915F914F913F912F910F900FBE0F9067
S1130A201F9018951F920F920FB60F9211242F93B7
S1130A303F934F935F936F937F938F939F93AF9362
S1130A40BF93EF93FF9390DEFF91EF91BF91AF912E
S1130A509F918F917F916F915F914F913F912F91D2
S1130A600F900FBE0F901F9018951F920F920FB604
S1130A700F9211242F933F934F935F936F937F9320
S1130A808F939F93AF93BF93EF93FF936DDEFF918B
S1130A90EF91BF91AF919F918F917F916F915F91F2
S1130AA04F913F912F910F900FBE0F901F9018956B
S1130AB01F920F920FB60F9211242F933F934F93CF
S1130AC05F936F937F938F939F93AF93BF93EF93B2
S1130AD0FF934ADEFF91EF91BF91AF919F918F9168
S1130AE07F916F915F914F913F912F910F900FBE26
S1130AF00F901F9018951F920F920FB60F9211240A
S1130B002F933F934F935F936F937F938F939F9311
S1130B10AF93BF93EF93FF9327DEFF91EF91BF91C4
S1130B20AF919F918F917F916F915F914F913F9181
S1130B302F910F900FBE0F901F9018951F920F9238
S1130B400FB60F9211242F933F934F935F936F939C
S1130B507F938F939F93AF93BF93EF93FF9304DEA1
S1130B60FF91EF91BF91AF919F918F917F916F9181
S1130B705F914F913F912F910F900FBE0F901F9057
S1130B8018951F920F920FB60F9211242F933F9333
S1130B904F935F936F937F938F939F93AF93BF9381
S1130BA0EF93FF93E1DDFF91EF91BF91AF919F919F
S1130BB08F917F916F915F914F913F912F910F9002
S1130BC00FBE0F901F9018951F920F920FB60F92A1
S1130BD011242F933F934F935F936F937F938F933E
S1130BE09F93AF93BF93EF93FF93BEDDFF91EF917C
S1130BF0BF91AF919F918F917F916F915F914F9131
S1130C003F912F910F900FBE0F901F9018951F9238
S1130C100F920FB60F9211242F933F934F935F932C
S1130C206F937F938F939F93AF93BF93EF93FF93B0
S1130C309BDDFF91EF91BF91AF919F918F917F9138
S1130C406F915F914F913F912F910F900FBE0F9035
S1130C501F9018951F920F920FB60F9211242F9385
S1130C603F934F935F936F937F938F939F93AF9330
S1130C70BF93EF93FF9378DDFF91EF91BF91AF9115
S1130C809F918F917F916F915F914F913F912F91A0
S1130C900F900FBE0F901F9018951F920F920FB6D2
S1130CA00F9211242F933F934F935F936F937F93EE
S1130CB08F939F93AF93BF93EF93FF9355DDFF9172
S1130CC0EF91BF91AF919F918F917F916F915F91C0
S1130CD04F913F912F910F900FBE0F901F90189539
S1130CE0CF93DF931F92CDB7DEB78FB78983F89484
S1130CF089810F90DF91CF91089580E090E00E9468
S1130D00BD14813129F061E180E090E00C94C514B8
S1130D10089590914C01882391F0911104C0539A45
S1130D2081E080934C0180914B01861771F066231A
S1130D3011F05B9A01C05B9860934B01089599236D
S1130D4021F053985B9810924C010895CF92DF9252
S1130D50EF92FF926B017C01C3DFC114D104E10463
S1130D60F10481F0B701A60194E076956795579553
S1130D7047959A95D1F747709FEF940F953018F0E7
S1130D8045E001C040E04093FE03C114D104E104F6
S1130D90F10441F02C2D27709FEF920F953018F03D
S1130DA025E001C020E02093FF038FBFFF90EF9068
S1130DB0DF90CF900895AF92BF92CF92DF92EF92DF
S1130DC0FF920F931F93CF93DF938ADFB090B50305
S1130DD0B1106DC0AEEFB3E020E0F12CAA24A394CF
S1130DE044E650E068EC70E0C6E2D2E09D919923BD
S1130DF0B1F1EF2C20E030E0092F10E0201731078B
S1130E00F4F4EE2DF0E06F01CC0CDD1CEC0DFD1DB7
S1130E10EA54FC4FA08252834183E1E0EE0DF0E0FE
S1130E206F01CC0CDD1CEC0DFD1DEA54FC4F10824F
S1130E30E394E394728361832F5F3F4FDFCF990F75
S1130E40F90EEF2DF0E09F01220F331FE20FF31F85
S1130E50EA54FC4F1082F394D283C18321E094E0DE
S1130E60A030B90719F62111F092B5039091B5039A
S1130E70E92FF0E09F01220F331FE20FF31FEA5422
S1130E80FC4F10829F5F26E232E032832183E92FF8
S1130E90F0E09F01220F331FE20FF31FEA54FC4FCF
S1130EA02FEF2083128211821092B50301C09B2D73
S1130EB08FBF892F8B19DF91CF911F910F91FF90D5
S1130EC0EF90DF90CF90BF90AF900895CF93C82F4D
S1130ED061E080E00E94D60FEAE7F0E08081877F3E
S1130EE0808383E080937E0084E88083C0937C00C9
S1130EF08081806180838081886080838081806438
S1130F008083CF910895EAE7F0E080818F7D80832C
S1130F108081877F808361E080E00C94EC0FE0DEC9
S1130F20E82F209101043091020440910304509170
S1130F300404609105047091060480910704909163
S1130F400804EFBF08952F923F924F925F926F92E1
S1130F507F928F929F92AF92BF92CF92DF92EF9245
S1130F60FF920F931F93CF93DF9300D000D01F9273
S1130F70CDB7DEB729833A83942E852E762E672E3D
S1130F80582E492E2091430130914401409145014E
S1130F905091460160914701709148018091490147
S1130FA090914A01A980BA80C92CD82CE72CF62C40
S1130FB0052D142D0E94F01111F008F07DC5BD829D
S1130FC0AC829501492D582D672D762D852D942DB4
S1130FD0A2E30E94DB112093430130934401409328
S1130FE045015093460160934701709348018093F3
S1130FF0490190934A0174DE23B199B18FBF809166
S1131000420180934101B0904001B092420110919D
S11310103F0110934001D0903E01D0923D01E091F8
S11310203C01E0933E01C0903B01C0923A01A09183
S11310303901A0933B0120903801609137016093FE
S113104038013090360150913501509336010091AA
S1131050340109834091330140933401809132017A
S11310608A833091310130933201009130010B8336
S113107080912F0180933001B22FB17071E07B27F2
S113108070933F01F091A503F093390170919C0393
S113109070933C01FF24F394022F0074E02E26FD8C
S11310A0F12CF0923701022F0095001F0027001F3A
S11310B000933501AA24A394092F0074F02E96FD01
S11310C0A12CA0923301092F0095001F0027001FB7
S11310D000933101AA24A394092F007194FDA12C3B
S11310E0A0922F01BB2041F0112359F0B11109C086
S11310F0B1E0B0932E0105C0111103C0B1111092DB
S11311002E01CC2041F0AA2361F0FF2351F0F1E03D
S1131110F0932D0106C0A11104C0F11102C0109278
S11311202D01DD2041F0EE2361F0772351F071E0D1
S113113070932C0106C0E11104C0711102C0109219
S11311402C01222041F0662359F0E11009C061E02E
S113115060932B0105C0611103C0E11010922B01B3
S1131160332041F0552359F027FD09C021E0209395
S11311702A0105C0511103C027FD10922A012981BB
S1131180222341F0442359F0F11009C021E02093B7
S1131190290105C0411103C0F110109229012A81CF
S11311A0222341F0332359F097FD09C091E0909335
S11311B0280105C0311103C097FD109228019B81BD
S11311C0992341F0882359F0011109C081E08093EB
S11311D0270105C0811103C001111092270110914C
S11311E02601612F70E080E090E0B0DD8091250160
S11311F0181731F0612F4DD6809126018093250177
S113120080913F019091400189132AC020913901B6
S113121090913B01291324C020913C0190913E01FF
S113122029131EC02091370190913801291318C049
S11312302091350190913601291312C02091330178
S11312409091340129130CC0209131019091320105
S1131250291306C020912F0190913001291779F0AC
S1131260A0902F01C0903101E0903301009135012D
S11312702091370140913C016091390127D680913A
S1131280240190912301891318C020912201909187
S11312902101291312C02091200190911F012913CB
S11312A00CC020911E0190911D01291306C02091AC
S11312B01C0190911B012917E9F000911C01209158
S11312C01E01409120016091220131D680912401B8
S11312D08093230180912201809321018091200138
S11312E080931F0180911E0180931D0180911C0138
S11312F080931B0180912601833209F47BC170F431
S1131300813109F440C018F48823B9F0AFC28132A6
S113131009F484C0823209F414C1A8C2813409F4E6
S1131320B7C120F4813309F46DC1A0C2823409F439
S113133071C2833409F496C299C2109224011092A6
S113134022011092200110921E0110921C01809122
S11313502D01811194C280912C01811193C21092AC
S1131360130110921401109215011092160110929B
S11313701701109218011092190110921A0181E1BB
S11313808093260175C280912D0181116FC28091D5
S11313902C0181116BC280912E01811111C0109218
S11313A0130110921401109215011092160110925B
S11313B01701109218011092190110921A0158C2C3
S11313C080914101882349F080913A01811105C03F
S11313D080913D01882309F48EC22C813D81492DE1
S11313E0582D672D762D852D942D2C503E4F4F4F23
S11313F05F4F6F4F7F4F8F4F9F4F20931301309359
S113140014014093150150931601609317017093D2
S113141018018093190190931A016DC2A0900B01D9
S1131420B0900C01C0900D01D0900E01E0900F011E
S1131430F090100100911101109112019501A60183
S1131440B701C801A0E0D5D761F02C813D81492DB9
S1131450582D672D762D852D942DC2D710F010921E
S11314602001E0912E01E11111C01092130110929C
S11314701401109215011092160110921701109286
S113148018011092190110921A0124C0809141018F
S1131490811120C02C813D81492D582D672D762D39
S11314A0852D942D28513C4F4F4F5F4F6F4F7F4FE9
S11314B08F4F9F4F209313013093140140931501D4
S11314C050931601609317017093180180931901CA
S11314D090931A0180912A01882309F4C9C180914B
S11314E02B018111C5C180912701882309F4C0C152
S11314F0EE2309F4BDC1A0901301B0901401C09073
S11315001501D0901601E0901701F0901801009198
S1131510190110911A019501A601B701C801A0E0B3
S113152068D709F4A5C12C813D81492D582D672D1B
S1131530762D852D942D54D708F49AC1109220014C
S11315405EC1A0900B01B0900C01C0900D01D09031
S11315500E01E0900F01F090100100911101109123
S113156012019501A601B701C801A0E042D761F0BC
S11315702C813D81492D582D672D762D852D942D57
S11315802FD710F01092200180912801882341F078
S113159010921E0110921C0183E28093260168C1FF
S11315A090912E0180914101992309F4A6C08111E3
S11315B0FDC12C813D81492D582D672D762D852D1A
S11315C0942D28513C4F4F4F5F4F6F4F7F4F8F4F9C
S11315D09F4F2093130130931401409315015093AE
S11315E01601609317017093180180931901909369
S11315F01A01DCC180912E0181113AC181E38093EB
S1131600260136C180912E01882321F090912D016D
S11316109923A1F010921301109214011092150154
S113162010921601109217011092180110921901CC
S113163010921A01882309F41BC1F0C18091410161
S1131640882329F080913A01882309F4E7C12C8189
S11316503D81492D582D672D762D852D942D2C50A7
S11316603E4F4F4F5F4F6F4F7F4F8F4F9F4F209392
S113167013013093140140931501509316016093A4
S11316801701709318018093190190931A01C6C130
S113169080912901882359F110921E0110921C0196
S11316A02C813D81492D582D672D762D852D942D26
S11316B028513C4F4F4F5F4F6F4F7F4F8F4F9F4F7E
S11316C020930B0130930C0140930D0150930E01B4
S11316D060930F0170931001809311019093120194
S11316E081E08093220182E480932601C1C0F091BD
S11316F02E0180914101F1111EC01092130110922C
S113170014011092150110921601109217011092F3
S113171018011092190110921A0110921E011092D0
S11317201C01882309F4A4C090910A0181E089274F
S113173080930A019DC0811120C02C813D81492DD7
S1131740582D672D762D852D942D28513C4F4F4FC4
S11317505F4F6F4F7F4F8F4F9F4F209313013093F5
S1131760140140931501509316016093170170936F
S113177018018093190190931A01E0912A01E11153
S113178004C081E08093200102C010922001FF2355
S113179009F46EC0A0901301B0901401C09015011B
S11317A0D0901601E0901701F090180100911901F2
S11317B010911A019501A601B701C801A0E019D63C
S11317C009F456C02C813D81492D582D672D762D65
S11317D0852D942D05D608F44BC080910A01811102
S11317E00EC0E11104C081E08093200141C0109239
S11317F01E0181E080931C011092200139C081E018
S113180080931E0110921C0110920A0182E28093BF
S113181026012EC0A0900B01B0900C01C0900D01C8
S1131820D0900E01E0900F01F09010010091110191
S1131830109112012C813D81492D582D672D762D53
S1131840852D942DCDD510F01092220180912B017D
S1131850882371F0109222011092240183E4809372
S1131860260106C080912E01811102C0109226012A
S113187080912201882349F003EE098308C023ECF8
S1131880298305C083EC898302C093EC99838091FA
S11318902001882311F020E101C020E00981022BFE
S11318A0098380911E01882311F098E001C090E023
S11318B02981292B298380911C01882311F084E03C
S11318C001C080E00981082B0983809124018823C9
S11318D019F00FEF0A8302C007EF0A8301DA0981C6
S11318E005B90A8108B99FEF9BB99091240190939F
S11318F09B038FBFE1C080912901882309F4B8CFED
S1131900809128018111B4CF80912B01882309F49F
S1131910AFCF80912A018111ABCF80912701882319
S113192009F4A6CFE1E0E0932401A0901301B09064
S11319301401C0901501D0901601E0901701F090A9
S113194018010091190110911A019501A601B7011E
S1131950C801A0E04ED509F48BCF2C813D81492DDF
S1131960582D672D762D852D942D3AD508F480CFEA
S1131970E093200128513C4F4F4F5F4F6F4F7F4FF3
S11319808F4F9F4F20930B0130930C0140930D0117
S113199050930E0160930F01709310018093110115
S11319A09093120181E28093260162CFA0901301EB
S11319B0B0901401C0901501D0901601E090170169
S11319C0F09018010091190110911A019501A601D6
S11319D0B701C801A0E00DD509F44ACF2C813D819F
S11319E0492D582D672D762D852D942DF9D408F485
S11319F03FCF80910A01811106C081E080931E01CE
S1131A0010921C0135CF10921E0181E080931C01BD
S1131A1010920A0181E4809326012ACF80912D013E
S1131A20811126CF80912A01811103C091E0909306
S1131A3020019091290191111BCF909128019923A4
S1131A4009F416CF90912B01911112CF882309F438
S1131A500FCF80912701882309F40ACFA0901301A6
S1131A60B0901401C0901501D0901601E0901701B8
S1131A70F09018010091190110911A019501A60125
S1131A80B701C801A0E0B5D409F4F2CE2C813D81A0
S1131A90492D582D672D762D852D942DA1D408F42C
S1131AA0E7CE10921E0181E080931C011092200168
S1131AB081E480932601DCCE0F900F900F900F905D
S1131AC00F90DF91CF911F910F91FF90EF90DF90D6
S1131AD0CF90BF90AF909F908F907F906F905F90CA
S1131AE04F903F902F900895880F816083BF889511
S1131AF083B78E7F83BF0895CF938CE384B983EC3F
S1131B0085B988E287B980E388B98AE08AB987EF22
S1131B108BB984E080936C0082E08BBB8093680077
S1131B202CD264E080E042D268E080E03FD2C1E0A1
S1131B30C093800082E1809381001092850010920E
S1131B408400C093890083EF8093880087E286BB7A
S1131B50C0936F0011D284B780937403C1D81092DC
S1131B604D01109201041092020410920304109289
S1131B7004041092050410920604109207041092B3
S1131B800804109200041092AC0398E490930101AD
S1131B901092A8031092A9031092AA031092AB0307
S1131BA01092A7031092A6031092A5031092A1030A
S1131BB01092A2031092A3031092A40310929D0307
S1131BC010929E0310929F031092A00310929C0304
S1131BD010929B0395E2E6E7F3E0DF011D929A95EC
S1131BE0E9F71092750390E2E4E5F3E0DF011D925A
S1131BF09A95E9F7109253031092520310925103ED
S1131C0020E031E0E1E5F2E0DF01A9011D9241505D
S1131C105040E1F71092500210924F021092740358
S1131C208FBF6BD860E076E980E090E042D0789492
S1131C3082E0C6D0EFD081E0C3D0C0934D01809143
S1131C404D01882379F06BD97ED9809100048111EC
S1131C5002C060E05ED880E047DF6091000481E06C
S1131C6058D8EDCFF89480B7806880BF53D060E037
S1131C7080E04FD848D934D8C82F10926F00109202
S1131C808000109281001092820068E080E0A4D16C
S1131C9027D85F9350E85093610050E0509361005F
S1131CA05F918FBFCFBF84E01FDF80E090E0CF91D2
S1131CB00895CF92DF92EF92FF926B017C01519ACB
S1131CC0599A5098589A62E080E070D1A701960121
S1131CD084E0220F331F441F551F8A95D1F760E01B
S1131CE072E18AE790E023D321503109832F8F706A
S1131CF08093C5002093C40086E08093C20080E4F2
S1131D008093C00088EF8093C100FF90EF90DF9034
S1131D10CF9008951092C1000895AF92BF92DF92C0
S1131D20EF92FF920F931F93CF93DF9300D0CDB721
S1131D30DEB75C017B018FB78A83F894DA806F3F4A
S1131D40710518F0EE24EA94F12C80914F029091E1
S1131D5050028C010E0D1F1D98012F5F3F4F2F3F26
S1131D60310549F040F0DFBE80E0BEDE8FB78983E5
S1131D70F894D980EACFA701B5018F5A9D4F45D376
S1131D801093500200934F02F801EF5AFD4F108256
S1131D90DFBE80914E02811107C081E080934E0224
S1131DA0F50180818093C6000F900F90DF91CF9151
S1131DB01F910F91FF90EF90DF90BF90AF90089527
S1131DC0EF92FF920F931F93CF93DF93C82F08E6F0
S1131DD011E0D1E08EE4E82E81E0F82ECC2399F0D6
S1131DE01F930F93DF931F92FF92EF9217D3BC01BF
S1131DF08EE491E092DFC1500F900F900F900F90FE
S1131E000F900F90EBCFDF91CF911F910F91FF9027
S1131E10EF900895FF920F931F93CF93DF9300E405
S1131E2011E01F930F93FF24F394FF921F92CEE4CB
S1131E30D1E0DF93CF93F2D2BC01CE016EDF1F92CB
S1131E4082ED8F931F928BEA8F9387E191E09F93AA
S1131E508F93FF921F92DF93CF93E0D2BC01CE0108
S1131E605CDF1F930F93FF921F92DF93CF93D6D221
S1131E702DB73EB72A5E3F4F0FB6F8943EBF0FBE54
S1131E802DBFBC01CE01DF91CF911F910F91FF9027
S1131E9044CF1F926F931F928F9385EF90E09F938F
S1131EA08F9381E08F931F928EE491E09F938F93A1
S1131EB0B5D22DB73EB7265F3F4F0FB6F8943EBF5D
S1131EC00FBE2DBFBC018EE491E027CFAF92CF921D
S1131ED0EF920F931F92AF921F92CF921F92EF92A5
S1131EE01F920F931F922F931F924F931F926F93E2
S1131EF01F928F9381EA90E09F938F9381E08F9359
S1131F001F928EE491E09F938F9388D22DB73EB7B2
S1131F102A5E3F4F0FB6F8943EBF0FBE2DBFBC01E3
S1131F208EE491E00F91EF90CF90AF90F6CE0F93A7
S1131F301F920F931F922F931F924F931F926F9391
S1131F401F928F9388E690E09F938F9381E08F9305
S1131F501F928EE491E09F938F9360D22DB73EB78A
S1131F60205F3F4F0FB6F8943EBF0FBE2DBFBC019C
S1131F708EE491E00F91D1CE0895CF93DF931F9219
S1131F80CDB7DEB78FEF809364008FB78983F89461
S1131F9089815F9350E85093610050E05093610051
S1131FA05F918FBF0F90DF91CF910895CF93DF930F
S1131FB01F92CDB7DEB79FB79983F89499818111A9
S1131FC006C06095809164006823609364009FBF9D
S1131FD00F90DF91CF910895CF93DF931F92CDB7E8
S1131FE0DEB79FB79983F8949981811105C08091D8
S1131FF06400682B609364009FBF0F90DF91CF91C2
S113200008955058BB27AA270ED0E5C0D6D030F08B
S1132010DBD020F031F49F3F11F41EF4CBC00EF45A
S1132020E095E7FBC1C0E92FE7D080F3BA17620758
S113203073078407950718F071F49EF5FFC00EF43A
S1132040E0950B2EBA2FA02D0B01B90190010C01C4
S1132050CA01A0011124FF27591B99F0593F50F4DC
S1132060503E68F11A16F040A22F232F342F442734
S1132070585FF3CF469537952795A795F04053952C
S1132080C9F77EF41F16BA0B620B730B840BBAF0FC
S11320909150A1F0FF0FBB1F661F771F881FC2F767
S11320A00EC0BA0F621F731F841F48F4879577957B
S11320B06795B795F7959E3F08F0B3CF9395880F32
S11320C008F09927EE0F97958795089504D06894A2
S11320D0B111B5C0089598D088F09F5790F0B92FEA
S11320E09927B751A0F0D1F0660F771F881F991F69
S11320F01AF0BA95C9F712C0B13081F09FD0B1E09F
S113210008959CC0672F782F8827B85F39F0B93FAE
S1132110CCF3869577956795B395D9F73EF490956A
S11321208095709561957F4F8F4F9F4F0895E894E8
S113213009C097FB3EF490958095709561957F4F0B
S11321408F4F9F4F9923A9F0F92F96E9BB279395B9
S1132150F695879577956795B795F111F8CFFAF4C9
S1132160BB0F11F460FF1BC06F5F7F4F8F4F9F4FFA
S113217016C0882311F096E911C0772321F09EE858
S1132180872F762F05C0662371F096E8862F70E0BE
S113219060E02AF09A95660F771F881FDAF7880F98
S11321A09695879597F9089597F99F6780E870E069
S11321B060E008959FEF80EC089500240A941616B9
S11321C0170618060906089500240A941216130621
S11321D0140605060895092E0394000C11F48823AF
S11321E052F0BB0F40F4BF2B11F460FF04C06F5FCB
S11321F07F4F8F4F9F4F089557FD9058440F551FA1
S113220059F05F3F71F04795880F97FB991F61F074
S11322109F3F79F087950895121613061406551FEB
S1132220F2CF4695F1DF08C0161617061806991F57
S1132230F1CF86957105610508940895E894BB274C
S113224066277727CB0197F908950BD0C4CFB5DF64
S113225028F0BADF18F0952309F0A6CFABCF1124EC
S1132260EECFCADFA0F3959FD1F3950F50E0551F31
S1132270629FF001729FBB27F00DB11D639FAA27D7
S1132280F00DB11DAA1F649F6627B00DA11D661F26
S1132290829F2227B00DA11D621F739FB00DA11D47
S11322A0621F839FA00D611D221F749F3327A00D01
S11322B0611D231F849F600D211D822F762F6A2F9D
S11322C011249F5750408AF0E1F088234AF0EE0F22
S11322D0FF1FBB1F661F771F881F91505040A9F72F
S11322E09E3F510570F060CFAACF5F3FECF3983E5C
S11322F0DCF3869577956795B795F795E7959F5F96
S1132300C1F7FE2B880F911D9695879597F908952F
S1132310DB018F939F933CD0BF91AF91A29F800D1F
S1132320911DA39F900DB29F900D11240895A1E2D9
S11323301A2EAA1BBB1BFD010DC0AA1FBB1FEE1F3B
S1132340FF1FA217B307E407F50720F0A21BB30B86
S1132350E40BF50B661F771F881F991F1A9469F702
S113236060957095809590959B01AC01BD01CF015E
S11323700895A29FB001B39FC001A39F700D811D5A
S11323801124911DB29F700D811D1124911D08957A
S1132390F0DFA59F900DB49F900DA49F800D911D1B
S11323A0112408952A0D3B1D4C1D5D1D6E1D7F1DBE
S11323B0801F911F08950024A7FD00942A0F301D4B
S11323C0401D501D601D701D801D901D08952A190B
S11323D03B094C095D096E097F09800B910B089537
S11323E02A153B054C055D056E057F0580079107A1
S11323F008950024A7FD00942A17300540055005D0
S113240060057005800590050895FB01DC0102C09C
S113241001900D9241505040D8F70895AEE0B0E0DD
S1132420E3E1F2E1CEC20D891E898F89988D2EE0F9
S11324302C831A83098397FF02C080E090E80197F8
S11324409E838D83AE01455E5F4F698D7A8DCE018B
S1132450019611D04D815E8157FD0AC02F813885C8
S1132460421753070CF49A01F801E20FF31F10828C
S11324702E96E4E0C2C2ABE0B0E0E0E4F2E193C245
S11324806C017B018A01FC0117821682838181FF22
S1132490BFC1CE0101963C01F6019381F70193FD82
S11324A0859193FF81917F01882309F4ADC1853221
S11324B039F493FD859193FF81917F01853221F455
S11324C0B60190E0C0D1E8CF912C212C312CFFE152
S11324D0F315D8F08B3279F038F4803279F0833206
S11324E0A1F4232D20611DC08D3261F0803369F485
S11324F0232D216016C0832D8260382EE32DE460E5
S11325003E2E2AC0F32DF8601DC037FC2DC020EDEF
S1132510280F2A3040F08E32B9F436FC75C1232DD1
S11325202064322E19C036FE06C08AE0989E200D23
S11325301124922E11C0EAE02E9E200D1124222E89
S1132540F32DF0623F2E08C08C3621F4832D806871
S1132550382E02C0883641F4F70193FD859193FF2C
S113256081917F018111B3CF982F9F7D9554933032
S113257028F40C5F1F4F9FE399830DC0833631F01D
S1132580833771F0833509F055C020C0F80180818C
S113259089830E5F1F4F88248394912C530112C0AA
S11325A02801F2E04F0E511CF801A080B18036FEE4
S11325B003C0692D70E002C06FEF7FEFC50138D111
S11325C04C018201F32DFF773F2E15C0280122E034
S11325D0420E511CF801A080B18036FE03C0692D63
S11325E070E002C06FEF7FEFC50117D14C01F32DEE
S11325F0F0683F2E820133FC19C0822D90E08816CA
S11326009906A0F4B60180E290E01DD12A94F5CF9A
S1132610F50137FC859137FE81915F01B60190E0A9
S113262012D121102A9421E0821A91088114910474
S113263079F7E1C0843611F0893639F5F80137FEAF
S113264007C060817181828193810C5F1F4F08C034
S113265060817181072E000C880B990B0E5F1F4F50
S1132660F32DFF763F2E97FF09C0909580957095C6
S113267061957F4F8F4F9F4FF0683F2E2AE030E0E7
S1132680A3011DD1882E861844C0853731F4232D2B
S11326902F7EB22E2AE030E025C0932D997FB92EEB
S11326A08F36C1F018F4883579F0AEC0803719F050
S11326B0883721F0A9C0E92FE061BE2EB4FE0DC019
S11326C0FB2DF460BF2E09C034FE0AC0292F2660FA
S11326D0B22E06C028E030E005C020E130E002C0A0
S11326E020E132E0F801B7FE07C060817181828188
S11326F093810C5F1F4F06C06081718180E090E080
S11327000E5F1F4FA301DBD0882E8618FB2DFF77A9
S11327103F2E36FE0DC0232D2E7FA22E891458F491
S113272034FE0BC032FC09C0832D8E7EA82E05C05A
S1132730B82CA32C03C0B82C01C0B92CA4FE0FC024
S1132740FE01E80DF11D8081803321F49A2D997EDC
S1132750A92E09C0A2FE06C0B394B39404C08A2D66
S1132760867809F0B394A3FC10C0A0FE06C0B2148E
S113277080F4280C922C9B180DC0B21458F4B601A6
S113278080E290E060D0B394F8CFB21418F42B1820
S113279002C0982C212CA4FE0FC0B60180E390E067
S11327A052D0A2FE16C0A1FC03C088E790E002C08C
S11327B088E590E0B6010CC08A2D867851F0A1FE20
S11327C002C08BE201C080E2A7FC8DE2B60190E07A
S11327D03AD0891430F4B60180E390E034D09A946E
S11327E0F8CF8A94F301E80DF11D8081B60190E0E1
S11327F02AD08110F6CF222009F44ECEB60180E211
S113280090E021D02A94F7CFF6018681978102C007
S11328108FEF9FEF2B96E2E1E2C0FC01059061503F
S113282070400110D8F7809590958E0F9F1F0895E2
S1132830FC016150704001900110D8F7809590958B
S11328408E0F9F1F08950F931F93CF93DF93FB0168
S1132850238121FD03C08FEF9FEF2CC022FF16C000
S113286046815781248135814217530744F4A0815E
S1132870B1819D012F5F3F4F318320838C9326814B
S113288037812F5F3F4F3783268314C08B01EC01C0
S1132890FB010084F185E02D0995892BE1F6D8012F
S11328A016968D919C911797019617969C938E93EB
S11328B01697CE01DF91CF911F910F910895FA01E0
S11328C0AA27283051F1203181F1E8946F936E7F6B
S11328D06E5F7F4F8F4F9F4FAF4FB1E03ED0B4E05C
S11328E03CD0670F781F891F9A1FA11D680F791F9D
S11328F08A1F911DA11D6A0F711D811D911DA11DAE
S113290020D009F468943F912AE0269F11243019BD
S1132910305D3193DEF6CF010895462F4770405D58
S11329204193B3E00FD0C9F7F6CF462F4F70405D07
S11329304A3318F0495D31FD4052419302D0A9F762
S1132940EACFB4E0A6959795879577956795BA955C
S1132950C9F700976105710508959B01AC010A2E22
S113296006945795479537952795BA95C9F7620FF9
S1132970731F841F951FA01D0895F999FECF92BD62
S113298081BDF89A992780B50895262FF999FECF2D
S11329901FBA92BD81BD20BD0FB6F894FA9AF99A78
S11329A00FBE019608952F923F924F925F926F92BD
S11329B07F928F929F92AF92BF92CF92DF92EF92CB
S11329C0FF920F931F93CF93DF93CDB7DEB7CA1B4C
S11329D0DB0B0FB6F894DEBF0FBECDBF09942A8877
S11329E0398848885F846E847D848C849B84AA841F
S11329F0B984C884DF80EE80FD800C811B81AA81AC
S1132A00B981CE0FD11D0FB6F894DEBF0FBECDBF76
S10B2A10ED010895F894FFCFD5
S1052A18204850
S9030000FC
