S02100004C616E64437275697365722D436F6E74726F6C6C65725F53572E737265634D
S1130000B5C000004AC6000025C6000000C60000B6
S1130010CDC00000D9C50000B4C500008FC50000E4
S11300206AC5000045C5000020C50000FBC40000EF
S1130030D6C40000BBC20000AFC400008AC40000E4
S113004065C4000040C4000020C1000059C1000084
S113005090C1000015C40000F0C30000CBC3000031
S1130060A6C3000081C30000232046534D2D4F75C5
S1130070747075743A204F6B6C3D25642C204F705E
S113008076673D25642C204F70766F3D25642C20C7
S11300904F6D313D25642C204F6D323D25640D0A92
S11300A000232046534D2D20496E7075743A204923
S11300B066623D25642C204975763D25642C2049D3
S11300C06F733D25642C2049736B673D25642C2098
S11300D049736B6F3D25642C20497361673D25642A
S11300E02C204973616F3D25642C20497368673D5A
S11300F025640D0A00232046534D2D20537461744A
S1130100653A20307825303258202D2D3E20307825
S1130110253032580D0A004C616E64437275697360
S113012065722D436F6E74726F6C2076657273699D
S11301306F6E20323025303364253033640D0A006D
S11301403D3D3D3D3D3D3D3D3D3D3D3D3D3D3D3DDB
S11301503D3D3D3D3D3D3D3D3D3D3D3D3D3D3D3DCB
S11301603D3D3D3D3D0D0A000D0A000011241FBE1A
S1130170CFEFD8E0DEBFCDBF11E0A0E0B1E0E4E313
S1130180F8E202C005900D92A430B107D9F724E03B
S1130190A4E0B1E001C01D92A630B207E1F70E94CD
S11301A0910C0C9418149895000008951F920F92C6
S11301B00FB60F921124AF92BF92CF92DF92EF92BB
S11301C0FF920F931F932F933F934F935F936F93DC
S11301D07F938F939F93AF93BF93EF93FF93329B40
S11301E03BC0F091FE03E091FF038F2F9E2F892BDC
S11301F099F12F2F3E2F40E050E060E070E080E066
S113020090E0A0900401B0900501C0900601D09048
S11302100701E0900801F090090100910A01109192
S11302200B010E94F510B1E0A4E60E94071111F041
S113023008F0B0E0B0939903F0930401E093050152
S11302401092060110920701109208011092090100
S113025010920A0110920B01FF91EF91BF91AF919F
S11302609F918F917F916F915F914F913F912F91CA
S11302701F910F91FF90EF90DF90CF90BF90AF90C0
S11302800F900FBE0F901F9018951F920F920FB6EC
S11302900F9211242F933F934F938F939F93EF9338
S11302A0FF934091C60080914F03909150039C01AD
S11302B02F5F3F4F3093500320934F03FC01EF5ABD
S11302C0FC4F4083F901EF5AFC4F10824A3019F475
S11302D081E080934E032032310530F08FE190E0CD
S11302E09093500380934F03FF91EF919F918F91CF
S11302F04F913F912F910F900FBE0F901F90189523
S11303001F920F920FB60F9211242F933F934F9386
S11303108F939F93EF93FF9380914C0290914D02A2
S1130320892BD9F080914E028093C60020914C0213
S113033030914D0240E0842F90E08217930738F407
S1130340FC01E25BFD4F818180834F5FF4CF21503C
S1130350310930934D0220934C02FF91EF919F910C
S11303608F914F913F912F910F900FBE0F901F903F
S113037018951F920F920FB60F92112410924B02F0
S11303800F900FBE0F901F901895CF92DF92EF92AF
S1130390FF920F931F93CF93DF9300D0CDB7DEB7B7
S11303A0809178002091790090E0922B9A83898340
S11303B089819A81CD9730F089819A81CC979A83EB
S11303C0898302C01A8219828091A903882321F0AB
S11303D0813009F479C0DDC009811A8123E333E354
S11303E043E75FE36091A5037091A6038091A7039F
S11303F09091A8030E9433106B017C01B80180E046
S113040090E00E94A50F2DEC3CEC4CE45DE30E94CF
S113041033109B01AC01C701B6010E94100F6B01A0
S11304207C010E94790F9B01AC0164EC7FED81E0BB
S113043090E00E949610DC01CB012AE0B695A795C6
S1130440979587952A95D1F7BC016C527E47C09247
S1130450A503D092A603E092A703F092A803709399
S1130460A4036093A303CB01A0E0B0E021E08430B7
S11304709942A105B1050CF020E02093A20388E481
S11304808093020181E08093A90380910001882375
S113049009F481C081508093000169817A8180E0F0
S11304A090E00E94A50F6093A5037093A603809328
S11304B0A7039093A80380EE9EE29093A4038093F5
S11304C0A3031092A20367C009811A812EEE3CE7B0
S11304D04FE75FE360919E0370919F038091A003B7
S11304E09091A1030E9433106B017C01B80180E05C
S11304F090E00E94A50F2FE632E143E05BE30E9407
S113050033109B01AC01C701B6010E94100F609328
S11305109E0370939F038093A0039093A1032AE406
S11305203DE940E852E40E940F0F2CE83EE14AE91D
S113053050E40E94331020E030E04AE952E40E9483
S1130540100F20E030E048EC52E40E9433100E9487
S1130550740F60939A0370939B0380939C0390930E
S11305609D0380E4809302011092A903809100010D
S1130570882389F069817A8180E090E00E94A50F48
S113058060939E0370939F038093A0039093A103B1
S113059002C01092A9030F900F90DF91CF911F9189
S11305A00F91FF90EF90DF90CF9008951F920F92DC
S11305B00FB60F9211245F926F927F928F929F9247
S11305C0AF92BF92CF92DF92EF92FF920F931F935D
S11305D02F933F934F935F936F937F938F939F9347
S11305E0AF93BF93CF93DF93EF93FF932091FE03D9
S11305F03091FF0340910004509101046091020482
S1130600709103048091040490910504A1E00E9478
S1130610E9102093FE033093FF03409300045093AA
S11306200104609302047093030480930404909380
S113063005048091B203811101C0AED35FD4522E60
S1130640632E742E852E962ED72FC82FB92FA090E7
S1130650AA03B090AB03C090AC03D090AD03E0907C
S1130660AE03F090AF030091B0031091B1030E9468
S1130670FE1008F445C0A091B203EA2FF0E0CF01C8
S1130680880F991FE80FF91FED54FC4FA180B28029
S1130690950140E050E060E070E080E090E0A52C3F
S11306A0B62CC72CD82CE92CFD2E0C2F1B2F0E9406
S11306B0E0102093AA033093AB034093AC03509310
S11306C0AD036093AE037093AF038093B003909334
S11306D0B103AF5FA093B2038081813031F058F051
S11306E08F3F71F41092B2030BC08093FD0361E05D
S11306F081E016D305C01092FD0360E081E010D3C1
S11307008091B203883138F01092B2031092FD0345
S113071060E081E005D380910201C9D380917A0021
S113072086FDFCCF32DEDFD3FF91EF91DF91CF91D5
S1130730BF91AF919F918F917F916F915F914F91F5
S11307403F912F911F910F91FF90EF90DF90CF90E9
S1130750BF90AF909F908F907F906F905F900F901D
S11307600FBE0F901F9018951F920F920FB60F9205
S113077011242F933F934F935F936F937F938F93A2
S11307809F93AF93BF93EF93FF930DDDFF91EF9191
S1130790BF91AF919F918F917F916F915F914F9195
S11307A03F912F910F900FBE0F901F9018951F929D
S11307B00F920FB60F9211242F933F934F935F9391
S11307C06F937F938F939F93AF93BF93EF93FF9315
S11307D0CBDFFF91EF91BF91AF919F918F917F916B
S11307E06F915F914F913F912F910F900FBE0F909A
S11307F01F9018951F920F920FB60F9211242F93EA
S11308003F934F935F936F937F938F939F93AF9394
S1130810BF93EF93FF93A8DFFF91EF91BF91AF9147
S11308209F918F917F916F915F914F913F912F9104
S11308300F900FBE0F901F9018951F920F920FB636
S11308400F9211242F933F934F935F936F937F9352
S11308508F939F93AF93BF93EF93FF9385DFFF91A4
S1130860EF91BF91AF919F918F917F916F915F9124
S11308704F913F912F910F900FBE0F901F9018959D
S11308801F920F920FB60F9211242F933F934F9301
S11308905F936F937F938F939F93AF93BF93EF93E4
S11308A0FF9362DFFF91EF91BF91AF919F918F9181
S11308B07F916F915F914F913F912F910F900FBE58
S11308C00F901F9018951F920F920FB60F9211243C
S11308D02F933F934F935F936F937F938F939F9344
S11308E0AF93BF93EF93FF933FDFFF91EF91BF91DE
S11308F0AF919F918F917F916F915F914F913F91B4
S11309002F910F900FBE0F901F9018951F920F926A
S11309100FB60F9211242F933F934F935F936F93CE
S11309207F938F939F93AF93BF93EF93FF931CDFBA
S1130930FF91EF91BF91AF919F918F917F916F91B3
S11309405F914F913F912F910F900FBE0F901F9089
S113095018951F920F920FB60F9211242F933F9365
S11309604F935F936F937F938F939F93AF93BF93B3
S1130970EF93FF93F9DEFF91EF91BF91AF919F91B8
S11309808F917F916F915F914F913F912F910F9034
S11309900FBE0F901F9018951F920F920FB60F92D3
S11309A011242F933F934F935F936F937F938F9370
S11309B09F93AF93BF93EF93FF93D6DEFF91EF9195
S11309C0BF91AF919F918F917F916F915F914F9163
S11309D03F912F910F900FBE0F901F9018951F926B
S11309E00F920FB60F9211242F933F934F935F935F
S11309F06F937F938F939F93AF93BF93EF93FF93E3
S1130A00B3DEFF91EF91BF91AF919F918F917F9151
S1130A106F915F914F913F912F910F900FBE0F9067
S1130A201F9018951F920F920FB60F9211242F93B7
S1130A303F934F935F936F937F938F939F93AF9362
S1130A40BF93EF93FF9390DEFF91EF91BF91AF912E
S1130A509F918F917F916F915F914F913F912F91D2
S1130A600F900FBE0F901F9018951F920F920FB604
S1130A700F9211242F933F934F935F936F937F9320
S1130A808F939F93AF93BF93EF93FF936DDEFF918B
S1130A90EF91BF91AF919F918F917F916F915F91F2
S1130AA04F913F912F910F900FBE0F901F9018956B
S1130AB01F920F920FB60F9211242F933F934F93CF
S1130AC05F936F937F938F939F93AF93BF93EF93B2
S1130AD0FF934ADEFF91EF91BF91AF919F918F9168
S1130AE07F916F915F914F913F912F910F900FBE26
S1130AF00F901F9018951F920F920FB60F9211240A
S1130B002F933F934F935F936F937F938F939F9311
S1130B10AF93BF93EF93FF9327DEFF91EF91BF91C4
S1130B20AF919F918F917F916F915F914F913F9181
S1130B302F910F900FBE0F901F9018951F920F9238
S1130B400FB60F9211242F933F934F935F936F939C
S1130B507F938F939F93AF93BF93EF93FF9304DEA1
S1130B60FF91EF91BF91AF919F918F917F916F9181
S1130B705F914F913F912F910F900FBE0F901F9057
S1130B8018951F920F920FB60F9211242F933F9333
S1130B904F935F936F937F938F939F93AF93BF9381
S1130BA0EF93FF93E1DDFF91EF91BF91AF919F919F
S1130BB08F917F916F915F914F913F912F910F9002
S1130BC00FBE0F901F9018951F920F920FB60F92A1
S1130BD011242F933F934F935F936F937F938F933E
S1130BE09F93AF93BF93EF93FF93BEDDFF91EF917C
S1130BF0BF91AF919F918F917F916F915F914F9131
S1130C003F912F910F900FBE0F901F9018951F9238
S1130C100F920FB60F9211242F933F934F935F932C
S1130C206F937F938F939F93AF93BF93EF93FF93B0
S1130C309BDDFF91EF91BF91AF919F918F917F9138
S1130C406F915F914F913F912F910F900FBE0F9035
S1130C501F9018951F920F920FB60F9211242F9385
S1130C603F934F935F936F937F938F939F93AF9330
S1130C70BF93EF93FF9378DDFF91EF91BF91AF9115
S1130C809F918F917F916F915F914F913F912F91A0
S1130C900F900FBE0F901F9018951F920F920FB6D2
S1130CA00F9211242F933F934F935F936F937F93EE
S1130CB08F939F93AF93BF93EF93FF9355DDFF9172
S1130CC0EF91BF91AF919F918F917F916F915F91C0
S1130CD04F913F912F910F900FBE0F901F90189539
S1130CE0CF93DF931F92CDB7DEB78FB78983F89484
S1130CF089810F90DF91CF910895882311F05B9A39
S1130D0001C05B98539A089580E090E00E94CB1351
S1130D10813129F061E180E090E00C94D3130895CF
S1130D20882311F0862FE9CF53985B980895CF92CA
S1130D30DF92EF92FF926B017C01D2DFC114D104E8
S1130D40E104F10481F0B701A60194E0769567957A
S1130D50579547959A95D1F747709FEF940F953023
S1130D6018F045E001C040E04093FB03C114D104F6
S1130D70E104F10441F02C2D27709FEF920F953080
S1130D8018F025E001C020E02093FC038FBFFF9002
S1130D90EF90DF90CF900895AF92BF92CF92DF9201
S1130DA0EF92FF920F931F93CF93DF9399DFB0904D
S1130DB0B203B1106DC0ABEFB3E020E0F12CAA2474
S1130DC0A39444E650E068EC70E0C6E2D2E09D9162
S1130DD09923B1F1EF2C20E030E0092F10E0201727
S1130DE03107F4F4EE2DF0E06F01CC0CDD1CEC0DBA
S1130DF0FD1DED54FC4FA08252834183E1E0EE0DD2
S1130E00F0E06F01CC0CDD1CEC0DFD1DED54FC4F2E
S1130E101082E394E394728361832F5F3F4FDFCFAB
S1130E20990FF90EEF2DF0E09F01220F331FE20F0F
S1130E30F31FED54FC4F1082F394D283C18321E05D
S1130E4093E0AD3FB90719F62111F092B2039091E6
S1130E50B203E92FF0E09F01220F331FE20FF31FCB
S1130E60ED54FC4F10829F5F26E232E032832183EF
S1130E70E92FF0E09F01220F331FE20FF31FED541F
S1130E80FC4F2FEF2083128211821092B20301C013
S1130E909B2D8FBF892F8B19DF91CF911F910F91BC
S1130EA0FF90EF90DF90CF90BF90AF900895CF93D5
S1130EB0C82F61E080E088D7EAE7F0E08081877F8F
S1130EC0808383E080937E0084E88083C0937C00E9
S1130ED08081806180838081886080838081806458
S1130EE08083CF910895EAE7F0E080818F7D80834D
S1130EF08081877F808361E080E07CC7F1DEE82F1A
S1130F002091FE033091FF034091000450910104AD
S1130F10609102047091030480910404909105048B
S1130F20EFBF08952F923F924F925F926F927F92FC
S1130F308F929F92AF92BF92CF92DF92EF92FF92E5
S1130F400F931F93CF93DF9300D000D000D0CDB781
S1130F50DEB729833A83942E852E762E672E582E5B
S1130F60492E209142013091430140914401509116
S1130F70450160914601709147018091480190912B
S1130F804901A980BA80C92CD82CE72CF62C052D50
S1130F90142D0E94FE1011F008F0A2C4BD82AC8290
S1130FA09501492D582D672D762D852D942DAAE078
S1130FB00E94E9102093420130934301409344017D
S1130FC05093450160934601709347018093480113
S1130FD09093490185DE23B199B18FBF809141017E
S1130FE08093400100913F010093410110913E0123
S1130FF010933F0130903D01E0913C01E0933D01AD
S113100020903B01A0913A01A0933B01A0903901AB
S11310106091380160933901C090370150913601D5
S113102050933701B090350140913401409335011C
S1131030D09033013091320130933301E09031018B
S1131040809130018E8380933101B22FB17071E0B1
S11310507B2770933E01F091A203F0933A017091C3
S1131060990370933C01FF24F394822F8074898345
S113107026FDF12CF0923801F22EF094FF1CFF248F
S1131080FF1CF0923601FF24F394892F80748A8325
S113109096FDF12CF0923401F92EF094FF1CFF24FC
S11310A0FF1CF0923201FF24F394892F80718B830B
S11310B094FDF12CF0923001002341F0112331F022
S11310C0B11104C0B1E0B0932F0102C010922F01FE
S11310D0211004C0A11102C0FF2321F0F1E0F0931C
S11310E02E0102C010922E01311004C0E11102C081
S11310F0772321F071E070932D0102C010922D012D
S1131100A11005C0611103C08981811104C061E08F
S113111060932C0102C010922C01C11004C0511123
S113112002C027FD04C021E020932B0102C01092CD
S11311302B01B11005C0411103C08A81811104C083
S113114021E020932A0102C010922A01D11004C088
S1131150311102C097FD04C091E09093290102C0AF
S113116010922901E11006C09E81911103C08B8168
S1131170811104C081E08093280102C010922801EB
S113118010910101612F70E080E090E0D0DD80914A
S11311902701181731F0612F8AD5809101018093BE
S11311A0270180913E0190913F0189132AC020912B
S11311B03A0190913B01291324C020913C01909164
S11311C03D0129131EC02091380190913901291342
S11311D018C02091360190913701291312C0209133
S11311E034019091350129130CC020913201909162
S11311F03301291306C02091300190913101291740
S113120079F0A0903001C0903201E0903401009157
S113121036012091380140913C0160913A0164D536
S11312208091260190912501891318C020912401F1
S113123090912301291312C0209122019091210140
S113124029130CC02091200190911F01291306C07D
S113125020911E0190911D012917E9F000911E01B2
S11312602091200140912201609124016ED580914A
S1131270260180932501809124018093230180918C
S11312802201809321018091200180931F0180918C
S11312901E0180931D0180910101833209F43FC135
S11312A070F48131F1F020F4882309F43FC0A0C226
S11312B0813209F487C0823209F4D8C099C28234D9
S11312C009F42EC238F4813309F431C1813409F4AC
S11312D070C18EC2833409F45DC2843409F47EC2C1
S11312E087C21092260110922401109222011092BA
S11312F0200110921E0180912E01811183C28091E0
S11313002D0181117FC210921501109216011092C5
S11313101701109218011092190110921A011092DB
S11313201B0110921C011092010165C280912E01D3
S113133081115EC280912D0181115AC280912F01C9
S1131340882309F458C280912A01882309F453C2DE
S11313508091290181114FC280912C01882309F4C5
S11313604AC280912B01811146C2809128018111CA
S113137042C281E080932601809322012C813D8129
S1131380492D582D672D762D852D942D28513C4FB0
S11313904F4F5F4F6F4F7F4F8F4F9F4F20930D01E4
S11313A030930E0140930F0150931001609311018B
S11313B070931201809313019093140181E280933E
S11313C0010119C2A0900D01B0900E01C0900F014F
S11313D0D0901001E0901101F090120100911301DE
S11313E0109114019501A601B701C801A0E00FD71F
S11313F061F02C813D81492D582D672D762D852D49
S1131400942DFCD610F01092220180912B01882398
S113141009F4F1C180912C018111EDC18091280161
S11314208111E9C180912F01882309F4E4C110924C
S1131430220181E08093200110921E0110920C0180
S11314409C81909315018D818093160190921701D0
S1131450809218017092190160921A0150921B0136
S113146040921C0182E280930101C5C1A0900D014C
S1131470B0900E01C0900F01D0901001E0901101C6
S1131480F090120100911301109114019501A6012D
S1131490B701C801A0E0BBD661F02C813D81492D84
S11314A0582D672D762D852D942DA8D610F01092E9
S11314B0220180912901882341F010922001109289
S11314C01E0183E28093010196C190912F018091C6
S11314D04001992309F49FC08111CAC12C813D8127
S11314E0492D582D672D762D852D942D28513C4F4F
S11314F04F4F5F4F6F4F7F4F8F4F9F4F209315017B
S11315003093160140931701509318016093190109
S113151070931A0180931B0190931C01A9C18091BF
S11315202F01811168C181E38093010164C180911D
S11315302F01882309F45FC180912E0181115BC1C1
S113154080912B01811104C081E08093220153C159
S113155090912A0191114FC190912901992309F485
S11315604AC190912C01911146C1882309F443C1C9
S11315708091280181113FC11092200181E0809364
S11315801E01109222019C81909315018D818093FC
S113159016019092170180921801709219016092BD
S11315A01A0150921B0140921C0181E480930101B5
S11315B022C180912A01882341F1109220011092C6
S11315C01E012C813D81492D582D672D762D852DA9
S11315D0942D26573D4F4F4F5F4F6F4F7F4F8F4F87
S11315E09F4F20930D0130930E0140930F015093B0
S11315F01001609311017093120180931301909371
S1131600140182E480930101F6C0A0912F0180911E
S11316104001A1111EC010921501109216011092E2
S11316201701109218011092190110921A011092C8
S11316301B0110921C011092200110921E0188239C
S113164009F4D9C090910C0181E0892780930C01A1
S1131650D2C0811120C02C813D81492D582D672D88
S1131660762D852D942D28513C4F4F4F5F4F6F4F52
S11316707F4F8F4F9F4F2093150130931601409356
S11316801701509318016093190170931A01809304
S11316901B0190931C01F0912B01E1E08F2F8E2709
S11316A080932201AA2309F4A6C0A0901501B0904A
S11316B01601C0901701D0901801E0901901F09024
S11316C01A0100911B0110911C019501A601B7019B
S11316D0C801A0E09CD509F48EC02C813D81492D20
S11316E0582D672D762D852D942D88D508F483C02B
S11316F080910C0181110AC0FF2309F425CF1092B7
S11317002001E0931E011092220175C0E093200194
S113171010921E0110920C0182E2809301016BC0B1
S1131720A0900D01B0900E01C0900F01D090100157
S1131730E0901101F0901201009113011091140135
S11317402C813D81492D582D672D762D852D942D85
S113175055D508F450C028513C4F4F4F5F4F6F4F41
S11317607F4F8F4F9F4F20930D0130930E01409375
S11317700F01509310016093110170931201809333
S113178013019093140181E08093240183E48093F6
S1131790010131C0A0900D01B0900E01C0900F0165
S11317A0D0901001E0901101F0901201009113010A
S11317B0109114012C813D81492D582D672D762DD2
S11317C0852D942D1BD5B8F01092240180912C0105
S11317D08823C1F084E4809301010DC080912F011E
S11317E0811109C01092260181E18093010103C097
S11317F081E18093010180912401882319F093EE03
S1131800998302C083EC898380912201882311F09B
S113181020E101C020E09981922B998380912001DD
S1131820882311F098E001C090E08981892B898395
S113183080911E01882311F084E001C080E0998129
S1131840982B998380912601882319F08FEF8A833E
S113185002C097EF9A8344DA998195B99A8198B92D
S11318609FEF9BB990912601909398038FBF38C046
S1131870A0901501B0901601C0901701D0901801E6
S1131880E0901901F0901A0100911B0110911C01C4
S11318909501A601B701C801A0E0B9D409F4ABCF02
S11318A02C813D81492D582D672D762D852D942D24
S11318B0A5D408F4A0CF80910C01811106C081E069
S11318C08093200110921E0196CF1092200181E096
S11318D080931E0110920C0181E4809301018BCF4F
S11318E026960FB6F894DEBF0FBECDBFDF91CF9121
S11318F01F910F91FF90EF90DF90CF90BF90AF902A
S11319009F908F907F906F905F904F903F902F901B
S11319100895880F816083BF889583B78E7F83BFC6
S11319200895CF938CE384B983EC85B988E287B9B1
S113193080E388B98AE08AB987EF8BB984E0809321
S11319406C0082E08BBB8093680025D264E080E069
S11319503BD268E080E038D2C1E0C093800082E1ED
S1131960809381001092850010928400C0938900B6
S113197083EF8093880087E286BBC0936F000AD20E
S113198084B780937103ACD910924A011092FE037C
S11319901092FF03109200041092010410920204AA
S11319A01092030410920404109205041092FD0393
S11319B01092A90398E4909302011092A503109247
S11319C0A6031092A7031092A8031092A4031092E6
S11319D0A3031092A20310929E0310929F031092ED
S11319E0A0031092A10310929A0310929B031092E9
S11319F09C0310929D03109299031092980395E210
S1131A00E3E7F3E0DF011D929A95E9F71092720380
S1131A1090E2E1E5F3E0DF011D929A95E9F7109277
S1131A20500310924F0310924E0320E031E0EEE495
S1131A30F2E0DF01A9011D9241505040E1F71092FC
S1131A404D0210924C02109271038FBF5DD960E079
S1131A5076E980E090E03BD0789482E0BFD0E8D093
S1131A6081E0BCD0C0934A0180914A01882341F0AF
S1131A7045DA58DA80E04DDF8091FD033ED9F4CF9A
S1131A80F89480B7806880BF53D060E080E048D984
S1131A902ADA26D9C82F10926F0010928000109273
S1131AA081001092820068E080E0A4D119D95F938C
S1131AB050E85093610050E0509361005F918FBFF4
S1131AC0CFBF84E026DF80E090E0CF910895CF92ED
S1131AD0DF92EF92FF926B017C01519A599A5098D0
S1131AE0589A62E080E070D1A701960184E0220F49
S1131AF0331F441F551F8A95D1F760E072E18AE7CE
S1131B0090E023D321503109832F8F708093C50037
S1131B102093C40086E08093C20080E48093C000D8
S1131B2088EF8093C100FF90EF90DF90CF900895ED
S1131B301092C1000895AF92BF92DF92EF92FF928C
S1131B400F931F93CF93DF9300D0CDB7DEB75C0123
S1131B507B018FB78A83F894DA806F3F710518F0A0
S1131B60EE24EA94F12C80914C0290914D028C0168
S1131B700E0D1F1D98012F5F3F4F2F3F310549F078
S1131B8040F0DFBE80E0C5DE8FB78983F894D9804A
S1131B90EACFA701B501825B9D4F45D310934D0257
S1131BA000934C02F801E25BFD4F1082DFBE80918E
S1131BB04B02811107C081E080934B02F5018081C3
S1131BC08093C6000F900F90DF91CF911F910F91DA
S1131BD0FF90EF90DF90BF90AF900895EF92FF9247
S1131BE00F931F93CF93DF93C82F08E611E0D1E042
S1131BF08BE4E82E81E0F82ECC2399F01F930F9309
S1131C00DF931F92FF92EF9217D3BC018BE491E014
S1131C1092DFC1500F900F900F900F900F900F9084
S1131C20EBCFDF91CF911F910F91FF90EF9008952B
S1131C30FF920F931F93CF93DF9300E411E01F9360
S1131C400F93FF24F394FF921F92CBE4D1E0DF9330
S1131C50CF93F2D2BC01CE016EDF1F928BEC8F9337
S1131C601F9284EB8F9387E191E09F938F93FF9270
S1131C701F92DF93CF93E0D2BC01CE015CDF1F93B0
S1131C800F93FF921F92DF93CF93D6D22DB73EB717
S1131C902A5E3F4F0FB6F8943EBF0FBE2DBFBC0166
S1131CA0CE01DF91CF911F910F91FF9044CF1F92EE
S1131CB06F931F928F9385EF90E09F938F9381E0B2
S1131CC08F931F928BE491E09F938F93B5D22DB79E
S1131CD03EB7265F3F4F0FB6F8943EBF0FBE2DBFF1
S1131CE0BC018BE491E027CFAF92CF92EF920F9398
S1131CF01F92AF921F92CF921F92EF921F920F9357
S1131D001F922F931F924F931F926F931F928F9343
S1131D1081EA90E09F938F9381E08F931F928BE4ED
S1131D2091E09F938F9388D22DB73EB72A5E3F4FA1
S1131D300FB6F8943EBF0FBE2DBFBC018BE491E0FB
S1131D400F91EF90CF90AF90F6CE0F931F920F9319
S1131D501F922F931F924F931F926F931F928F93F3
S1131D6088E690E09F938F9381E08F931F928BE49A
S1131D7091E09F938F9360D22DB73EB7205F3F4F82
S1131D800FB6F8943EBF0FBE2DBFBC018BE491E0AB
S1131D900F91D1CE0895CF93DF931F92CDB7DEB7C5
S1131DA08FEF809364008FB78983F89489815F9360
S1131DB050E85093610050E0509361005F918FBFF1
S1131DC00F90DF91CF910895CF93DF931F92CDB7FA
S1131DD0DEB79FB79983F8949981811106C0609505
S1131DE0809164006823609364009FBF0F90DF912B
S1131DF0CF910895CF93DF931F92CDB7DEB79FB7EE
S1131E009983F8949981811105C080916400682BAD
S1131E10609364009FBF0F90DF91CF910895505855
S1131E20BB27AA270ED0E5C0D6D030F0DBD020F0F7
S1131E3031F49F3F11F41EF4CBC00EF4E095E7FBA0
S1131E40C1C0E92FE7D080F3BA176207730784078C
S1131E50950718F071F49EF5FFC00EF4E0950B2E73
S1131E60BA2FA02D0B01B90190010C01CA01A001E8
S1131E701124FF27591B99F0593F50F4503E68F143
S1131E801A16F040A22F232F342F4427585FF3CF84
S1131E90469537952795A795F0405395C9F77EF455
S1131EA01F16BA0B620B730B840BBAF09150A1F09E
S1131EB0FF0FBB1F661F771F881FC2F70EC0BA0F24
S1131EC0621F731F841F48F4879577956795B795AC
S1131ED0F7959E3F08F0B3CF9395880F08F09927A4
S1131EE0EE0F97958795089504D06894B111B5C005
S1131EF0089598D088F09F5790F0B92F9927B7513B
S1131F00A0F0D1F0660F771F881F991F1AF0BA95B9
S1131F10C9F712C0B13081F09FD0B1E008959CC0E0
S1131F20672F782F8827B85F39F0B93FCCF38695AF
S1131F3077956795B395D9F73EF49095809570950C
S1131F4061957F4F8F4F9F4F0895E89409C097FB89
S1131F503EF490958095709561957F4F8F4F9F4F7C
S1131F609923A9F0F92F96E9BB279395F6958795C0
S1131F7077956795B795F111F8CFFAF4BB0F11F483
S1131F8060FF1BC06F5F7F4F8F4F9F4F16C088232A
S1131F9011F096E911C0772321F09EE8872F762F60
S1131FA005C0662371F096E8862F70E060E02AF0A1
S1131FB09A95660F771F881FDAF7880F969587958D
S1131FC097F9089597F99F6780E870E060E00895B5
S1131FD09FEF80EC089500240A941616170618063D
S1131FE00906089500240A94121613061406050619
S1131FF00895092E0394000C11F4882352F0BB0FAA
S113200040F4BF2B11F460FF04C06F5F7F4F8F4F0C
S11320109F4F089557FD9058440F551F59F05F3F47
S113202071F04795880F97FB991F61F09F3F79F0F6
S113203087950895121613061406551FF2CF469578
S1132040F1DF08C0161617061806991FF1CF8695FA
S11320507105610508940895E894BB2766277727DE
S1132060CB0197F908950BD0C4CFB5DF28F0BADFC0
S113207018F0952309F0A6CFABCF1124EECFCADF19
S1132080A0F3959FD1F3950F50E0551F629FF00187
S1132090729FBB27F00DB11D639FAA27F00DB11DE0
S11320A0AA1F649F6627B00DA11D661F829F222769
S11320B0B00DA11D621F739FB00DA11D621F839FF0
S11320C0A00D611D221F749F3327A00D611D231FC6
S11320D0849F600D211D822F762F6A2F11249F5714
S11320E050408AF0E1F088234AF0EE0FFF1FBB1F37
S11320F0661F771F881F91505040A9F79E3F5105D6
S113210070F060CFAACF5F3FECF3983EDCF3869586
S113211077956795B795F795E7959F5FC1F7FE2B80
S1132120880F911D9695879597F90895DB018F93F4
S11321309F933CD0BF91AF91A29F800D911DA39F0F
S1132140900DB29F900D11240895A1E21A2EAA1B9E
S1132150BB1BFD010DC0AA1FBB1FEE1FFF1FA21753
S1132160B307E407F50720F0A21BB30BE40BF50B50
S1132170661F771F881F991F1A9469F760957095D9
S1132180809590959B01AC01BD01CF010895A29F5C
S1132190B001B39FC001A39F700D811D1124911D37
S11321A0B29F700D811D1124911D0895F0DFA59F2C
S11321B0900DB49F900DA49F800D911D112408953E
S11321C02A0D3B1D4C1D5D1D6E1D7F1D801F911F23
S11321D008950024A7FD00942A0F301D401D501DB2
S11321E0601D701D801D901D08952A193B094C091E
S11321F05D096E097F09800B910B08952A153B0533
S11322004C055D056E057F05800791070895002440
S1132210A7FD00942A173005400550056005700598
S1132220800590050895FB01DC0102C001900D9228
S113223041505040D8F70895AEE0B0E0E1E2F1E15A
S1132240CEC20D891E898F89988D2EE02C831A8326
S1132250098397FF02C080E090E801979E838D83F5
S1132260AE01455E5F4F698D7A8DCE01019611D026
S11322704D815E8157FD0AC02F813885421753076F
S11322800CF49A01F801E20FF31F10822E96E4E099
S1132290C2C2ABE0B0E0EEE4F1E193C26C017B01B9
S11322A08A01FC0117821682838181FFBFC1CE019E
S11322B001963C01F6019381F70193FD859193FF0B
S11322C081917F01882309F4ADC1853239F493FDEE
S11322D0859193FF81917F01853221F4B60190E0CD
S11322E0C0D1E8CF912C212C312CFFE1F315D8F08B
S11322F08B3279F038F4803279F08332A1F4232DD3
S113230020611DC08D3261F0803369F4232D21607A
S113231016C0832D8260382EE32DE4603E2E2AC041
S1132320F32DF8601DC037FC2DC020ED280F2A3096
S113233040F08E32B9F436FC75C1232D2064322E60
S113234019C036FE06C08AE0989E200D1124922EF4
S113235011C0EAE02E9E200D1124222EF32DF062EE
S11323603F2E08C08C3621F4832D8068382E02C09D
S1132370883641F4F70193FD859193FF81917F01A4
S11323808111B3CF982F9F7D9554933028F40C5F1F
S11323901F4F9FE399830DC0833631F0833771F06B
S11323A0833509F055C020C0F801808189830E5F10
S11323B01F4F88248394912C530112C02801F2E00A
S11323C04F0E511CF801A080B18036FE03C0692D68
S11323D070E002C06FEF7FEFC50138D14C0182017C
S11323E0F32DFF773F2E15C0280122E0420E511C29
S11323F0F801A080B18036FE03C0692D70E002C0F0
S11324006FEF7FEFC50117D14C01F32DF0683F2E1C
S1132410820133FC19C0822D90E088169906A0F43D
S1132420B60180E290E01DD12A94F5CFF50137FC86
S1132430859137FE81915F01B60190E012D12110A0
S11324402A9421E0821A91088114910479F7E1C059
S1132450843611F0893639F5F80137FE07C06081FA
S11324607181828193810C5F1F4F08C060817181EB
S1132470072E000C880B990B0E5F1F4FF32DFF7670
S11324803F2E97FF09C090958095709561957F4F79
S11324908F4F9F4FF0683F2E2AE030E0A3011DD1FB
S11324A0882E861844C0853731F4232D2F7EB22E12
S11324B02AE030E025C0932D997FB92E8F36C1F0E4
S11324C018F4883579F0AEC0803719F0883721F0D8
S11324D0A9C0E92FE061BE2EB4FE0DC0FB2DF4604F
S11324E0BF2E09C034FE0AC0292F2660B22E06C0B2
S11324F028E030E005C020E130E002C020E132E015
S1132500F801B7FE07C060817181828193810C5FFD
S11325101F4F06C06081718180E090E00E5F1F4F05
S1132520A301DBD0882E8618FB2DFF773F2E36FEC5
S11325300DC0232D2E7FA22E891458F434FE0BC017
S113254032FC09C0832D8E7EA82E05C0B82CA32C86
S113255003C0B82C01C0B92CA4FE0FC0FE01E80DC5
S1132560F11D8081803321F49A2D997EA92E09C012
S1132570A2FE06C0B394B39404C08A2D867809F0F1
S1132580B394A3FC10C0A0FE06C0B21480F4280CBF
S1132590922C9B180DC0B21458F4B60180E290E05E
S11325A060D0B394F8CFB21418F42B1802C0982C4E
S11325B0212CA4FE0FC0B60180E390E052D0A2FE0D
S11325C016C0A1FC03C088E790E002C088E590E053
S11325D0B6010CC08A2D867851F0A1FE02C08BE2B0
S11325E001C080E2A7FC8DE2B60190E03AD08914E4
S11325F030F4B60180E390E034D09A94F8CF8A9412
S1132600F301E80DF11D8081B60190E02AD081101C
S1132610F6CF222009F44ECEB60180E290E021D01C
S11326202A94F7CFF6018681978102C08FEF9FEF3E
S11326302B96E2E1E2C0FC0105906150704001106C
S1132640D8F7809590958E0F9F1F0895FC016150D7
S1132650704001900110D8F7809590958E0F9F1FC0
S113266008950F931F93CF93DF93FB01238121FDE3
S113267003C08FEF9FEF2CC022FF16C04681578105
S1132680248135814217530744F4A081B1819D010F
S11326902F5F3F4F318320838C93268137812F5FB7
S11326A03F4F3783268314C08B01EC01FB01008468
S11326B0F185E02D0995892BE1F6D80116968D91C7
S11326C09C911797019617969C938E931697CE011B
S11326D0DF91CF911F910F910895FA01AA27283015
S11326E051F1203181F1E8946F936E7F6E5F7F4FDB
S11326F08F4F9F4FAF4FB1E03ED0B4E03CD0670F57
S1132700781F891F9A1FA11D680F791F8A1F911DA9
S1132710A11D6A0F711D811D911DA11D20D009F4F9
S113272068943F912AE0269F11243019305D31933B
S1132730DEF6CF010895462F4770405D4193B3E024
S11327400FD0C9F7F6CF462F4F70405D4A3318F0CB
S1132750495D31FD4052419302D0A9F7EACFB4E07C
S1132760A6959795879577956795BA95C9F7009734
S11327706105710508959B01AC010A2E06945795D5
S1132780479537952795BA95C9F7620F731F841F2C
S1132790951FA01D0895F999FECF92BD81BDF89AA9
S11327A0992780B50895262FF999FECF1FBA92BDB7
S11327B081BD20BD0FB6F894FA9AF99A0FBE01961E
S11327C008952F923F924F925F926F927F928F92D1
S11327D09F92AF92BF92CF92DF92EF92FF920F93AC
S11327E01F93CF93DF93CDB7DEB7CA1BDB0B0FB6B6
S11327F0F894DEBF0FBECDBF09942A883988488873
S11328005F846E847D848C849B84AA84B984C88408
S1132810DF80EE80FD800C811B81AA81B981CE0FFF
S1132820D11D0FB6F894DEBF0FBECDBFED010895E4
S1072830F894FFCF46
S10728342011480023
S9030000FC
