S02100004C616E64437275697365722D436F6E74726F6C6C65725F53572E737265634D
S113000057C0000074C0000095C00000B6C00000D6
S1130010D7C00000F8C0000019C100003AC10000B8
S11300205BC100007CC100009DC10000BEC1000096
S1130030DFC1000000C200003CC200005DC200003D
S11300407EC200009FC20000C0C20000E1C20000E6
S113005002C3000023C3000044C3000065C30000C2
S113006086C30000A7C30000B604D5041108110814
S113007011081108110811081108110811081108B4
S113008011081108110811087F051F061108BF0681
S11300901108110811081108110811081108110894
S11300A01108110811081108C6063D07DE070B08E0
S11300B011241FBECFEFD8E0DEBFCDBF11E0A0E01A
S11300C0B1E0EEE6F2E102C005900D92A030B10776
S11300D0D9F721E0A0E0B1E001C01D92A932B20736
S11300E0E1F7FBD70C9435099895000008951F9209
S11300F00F920FB60F9211242F933F934F935F9358
S11301006F937F938F939F93AF93BF93EF93FF93DB
S1130110EBDFFF91EF91BF91AF919F918F917F9111
S11301206F915F914F913F912F910F900FBE0F9060
S11301301F9018951F920F920FB60F9211242F93B0
S11301403F934F935F936F937F938F939F93AF935B
S1130150BF93EF93FF93C8DFFF91EF91BF91AF91EE
S11301609F918F917F916F915F914F913F912F91CB
S11301700F900FBE0F901F9018951F920F920FB6FD
S11301800F9211242F933F934F935F936F937F9319
S11301908F939F93AF93BF93EF93FF93A5DFFF914B
S11301A0EF91BF91AF919F918F917F916F915F91EB
S11301B04F913F912F910F900FBE0F901F90189564
S11301C01F920F920FB60F9211242F933F934F93C8
S11301D05F936F937F938F939F93AF93BF93EF93AB
S11301E0FF9382DFFF91EF91BF91AF919F918F9128
S11301F07F916F915F914F913F912F910F900FBE1F
S11302000F901F9018951F920F920FB60F92112402
S11302102F933F934F935F936F937F938F939F930A
S1130220AF93BF93EF93FF935FDFFF91EF91BF9184
S1130230AF919F918F917F916F915F914F913F917A
S11302402F910F900FBE0F901F9018951F920F9231
S11302500FB60F9211242F933F934F935F936F9395
S11302607F938F939F93AF93BF93EF93FF933CDF61
S1130270FF91EF91BF91AF919F918F917F916F917A
S11302805F914F913F912F910F900FBE0F901F9050
S113029018951F920F920FB60F9211242F933F932C
S11302A04F935F936F937F938F939F93AF93BF937A
S11302B0EF93FF9319DFFF91EF91BF91AF919F915E
S11302C08F917F916F915F914F913F912F910F90FB
S11302D00FBE0F901F9018951F920F920FB60F929A
S11302E011242F933F934F935F936F937F938F9337
S11302F09F93AF93BF93EF93FF93F6DEFF91EF913C
S1130300BF91AF919F918F917F916F915F914F9129
S11303103F912F910F900FBE0F901F9018951F9231
S11303200F920FB60F9211242F933F934F935F9325
S11303306F937F938F939F93AF93BF93EF93FF93A9
S1130340D3DEFF91EF91BF91AF919F918F917F91F8
S11303506F915F914F913F912F910F900FBE0F902E
S11303601F9018951F920F920FB60F9211242F937E
S11303703F934F935F936F937F938F939F93AF9329
S1130380BF93EF93FF93B0DEFF91EF91BF91AF91D5
S11303909F918F917F916F915F914F913F912F9199
S11303A00F900FBE0F901F9018951F920F920FB6CB
S11303B00F9211242F933F934F935F936F937F93E7
S11303C08F939F93AF93BF93EF93FF938DDEFF9132
S11303D0EF91BF91AF919F918F917F916F915F91B9
S11303E04F913F912F910F900FBE0F901F90189532
S11303F01F920F920FB60F9211242F933F934F9396
S11304005F936F937F938F939F93AF93BF93EF9378
S1130410FF936ADEFF91EF91BF91AF919F918F910E
S11304207F916F915F914F913F912F910F900FBEEC
S11304300F901F9018951F920F920FB60F921124D0
S11304402F933F934F935F936F937F938F939F93D8
S1130450AF932091210130912201409123015091C9
S113046024016091250170912601809127019091CA
S11304702801A1E0C3D620932101309322014093A7
S113048023015093240160932501709326018093E6
S1130490270190932801AF919F918F917F916F9144
S11304A05F914F913F912F910F900FBE0F901F902E
S11304B018951F920F920FB60F9211242F933F930A
S11304C04F935F936F937F938F939F93AF93BF9358
S11304D0EF93FF9309DEFF91EF91BF91AF919F914D
S11304E08F917F916F915F914F913F912F910F90D9
S11304F00FBE0F901F9018951F920F920FB60F9278
S113050011242F933F934F935F936F937F938F9314
S11305109F93AF93BF93EF93FF93E6DDFF91EF912A
S1130520BF91AF919F918F917F916F915F914F9107
S11305303F912F910F900FBE0F901F9018951F920F
S11305400F920FB60F9211242F933F934F935F9303
S11305506F937F938F939F93AF93BF93EF93FF9387
S1130560C3DDFF91EF91BF91AF919F918F917F91E7
S11305706F915F914F913F912F910F900FBE0F900C
S11305801F9018951F920F920FB60F9211242F935C
S11305903F934F935F936F937F938F939F93AF9307
S11305A0BF93EF93FF93A0DDFF91EF91BF91AF91C4
S11305B09F918F917F916F915F914F913F912F9177
S11305C00F900FBE0F901F9018951F920F920FB6A9
S11305D00F9211242F933F934F935F936F937F93C5
S11305E08F939F93AF93BF93EF93FF937DDDFF9121
S11305F0EF91BF91AF919F918F917F916F915F9197
S11306004F913F912F910F900FBE0F901F9018950F
S11306101F920F920FB60F9211242F933F934F9373
S11306205F936F937F938F939F93AF93BF93EF9356
S1130630FF935ADDFF91EF91BF91AF919F918F91FD
S11306407F916F915F914F913F912F910F900FBECA
S11306500F901F9018951F920F920FB60F921124AE
S11306602F933F934F935F936F937F938F939F93B6
S1130670AF93BF93EF93FF9337DDFF91EF91BF915A
S1130680AF919F918F917F916F915F914F913F9126
S11306902F910F900FBE0F901F9018951F920F92DD
S11306A00FB60F9211242F933F934F935F936F9341
S11306B07F938F939F93AF93BF93EF93FF9314DD37
S11306C0FF91EF91BF91AF919F918F917F916F9126
S11306D05F914F913F912F910F900FBE0F901F90FC
S11306E018951F920F920FB60F9211242F933F93D8
S11306F04F935F936F937F938F939F93AF93BF9326
S1130700EF93FF93F1DCFF91EF91BF91AF919F9134
S11307108F917F916F915F914F913F912F910F90A6
S11307200FBE0F901F9018951F920F920FB60F9245
S113073011242F933F934F935F936F937F938F93E2
S11307409F93AF93BF93EF93FF93CEDCFF91EF9111
S1130750BF91AF919F918F917F916F915F914F91D5
S11307603F912F910F900FBE0F901F9018951F92DD
S11307700F920FB60F9211242F933F934F935F93D1
S11307806F937F938F939F93AF93BF93EF93FF9355
S1130790ABDCFF91EF91BF91AF919F918F917F91CE
S11307A06F915F914F913F912F910F900FBE0F90DA
S11307B01F9018951F920F920FB60F9211242F932A
S11307C03F934F935F936F937F938F939F93AF93D5
S11307D0BF93EF93FF9388DCFF91EF91BF91AF91AB
S11307E09F918F917F916F915F914F913F912F9145
S11307F00F900FBE0F901F901895CF93DF931F9209
S1130800CDB7DEB78FB78983F894E98120912101B0
S113081030912201409123015091240160912501DE
S1130820709126018091270190912801EFBF0F90CC
S1130830DF91CF910895882324F461E180E090E072
S113084006C5089588233CF480E090E0F8D4813113
S113085011F080E8F0CF08953F924F925F926F922B
S11308607F928F929F92AF92BF92CF92DF92EF923C
S1130870FF920F931F93CF93DF93CDB7DEB72997E2
S11308800FB6F894DEBF0FBECDBF322E432E542ECA
S1130890652E762E872E982EB92F20911701309130
S11308A018014091190150911A0160911B01709136
S11308B01C0180911D0190911E01A32CB42CC52C08
S11308C0D62CE72CF82C092D1B2FA4D411F008F0FA
S11308D0E4C3232D342D452D562D672D782D892DD8
S11308E09B2FA9E18BD420931701309318014093D7
S11308F0190150931A0160931B0170931C0180939A
S11309001D0190931E018FB78987F894898593B14F
S1130910998399B19A838FBF9A8181E0929591705E
S113092098279B839A8196FB992790F998279C8313
S11309309A819095991F9927991F9D83998196FB78
S1130940992790F989278E8389818095881F882724
S1130950881F8F83E09116014E2F50E044325105D9
S113096008F05FC3FA01EC5CFF4F42C4109215011A
S1130970109214011092130110921201109211019D
S11309808B81811187C38C81882309F483C38D8172
S1130990811180C38E81882309F47CC38F818111E6
S11309A079C381E08093160175C38B81882309F490
S11309B083C08C81882309F47FC08D8181117CC020
S11309C08E81882309F478C08F81811175C081E0FC
S11309D08093150180911001811120C0232D342DA5
S11309E0452D562D672D782D892D9B2F2C503E4F4C
S11309F04F4F5F4F6F4F7F4F8F4F9F4F2093080193
S1130A003093090140930A0150930B0160930C0148
S1130A1070930D0180930E0190930F01A090080133
S1130A20B0900901C0900A01D0900B01E0900C0134
S1130A30F0900D0100910E0110910F012A2D3B2D14
S1130A404C2D5D2D6E2D7F2D802F912FA0E0EBD3AB
S1130A5009F4E9C2232D342D452D562D672D782D0B
S1130A60892D9B2FD7D308F4DEC281E08093130134
S1130A70892D28513C4F4F4F5F4F6F4F7F4F8F4F02
S1130A809F4F209300013093010140930201509342
S1130A900301609304017093050180930601909310
S1130AA0070180E18093160180911401882309F4E1
S1130AB0C6C283EE90E1C7C28B81811110C010922F
S1130AC008011092090110920A0110920B01109270
S1130AD00C0110920D0110920E0110920F018C81E5
S1130AE0882351F08D81811107C08E81882321F0E4
S1130AF08F81882309F497C21092160194C2A090A2
S1130B000001B0900101C0900201D0900301E09077
S1130B100401F090050100910601109107012A2DAE
S1130B203B2D4C2D5D2D6E2D7F2D802F912FA0E020
S1130B307AD361F0232D342D452D562D672D782D34
S1130B40892D9B2F67D310F0109213018F81882376
S1130B5009F43CC08E81811139C08B818823B1F1A5
S1130B60A0900801B0900901C0900A01D0900B0137
S1130B70E0900C01F0900D0100910E0110910F0115
S1130B802A2D3B2D4C2D5D2D6E2D7F2D802F912FE9
S1130B90A0E049D3D9F0232D342D452D562D672DB2
S1130BA0782D892D9B2F36D388F01092130181E084
S1130BB0809312011092110181E1809316018091BA
S1130BC01401811146C283EC90E03DC28B818111F6
S1130BD011C0109208011092090110920A0110929A
S1130BE00B0110920C0110920D0110920E01109243
S1130BF00F0119C280911001811115C2232D342DCA
S1130C00452D562D672D782D892D9B2F2C503E4F29
S1130C104F4F5F4F6F4F7F4F8F4F9F4F2093080170
S1130C203093090140930A0150930B0160930C0126
S1130C3070930D0180930E0190930F01F4C1A09065
S1130C400001B0900101C0900201D0900301E09036
S1130C500401F090050100910601109107012A2D6D
S1130C603B2D4C2D5D2D6E2D7F2D802F912FA0E0DF
S1130C70DAD261F0232D342D452D562D672D782D94
S1130C80892D9B2FC7D210F0109213018D818823D8
S1130C9041F0109212011092110183E18093160128
S1130CA0C2C18B81811116C01092080110920901F2
S1130CB010920A0110920B0110920C0110920D0176
S1130CC010920E0110920F01109212011092110154
S1130CD08B81A9C180911001811120C0232D342D55
S1130CE0452D562D672D782D892D9B2F2C503E4F49
S1130CF04F4F5F4F6F4F7F4F8F4F9F4F2093080190
S1130D003093090140930A0150930B0160930C0145
S1130D1070930D0180930E0190930F018B818823B2
S1130D2009F481C1A0900801B0900901C0900A01A2
S1130D30D0900B01E0900C01F0900D0100910E0198
S1130D4010910F012A2D3B2D4C2D5D2D6E2D7F2DE5
S1130D50802F912FA0E067D209F465C1232D342D93
S1130D60452D562D672D782D892D9B2F53D208F4B0
S1130D705AC181E0809312011092110154C18B81F8
S1130D80811151C180E2809316014DC18B8188236A
S1130D9009F460C08C8181115DC08D81882309F4C0
S1130DA059C08E81811156C08F81882309F452C0A5
S1130DB080911001811120C0232D342D452D562DF5
S1130DC0672D782D892D9B2F2C503E4F4F4F5F4F11
S1130DD06F4F7F4F8F4F9F4F20930801309309012E
S1130DE040930A0150930B0160930C0170930D0121
S1130DF080930E0190930F01A0900801B090090117
S1130E00C0900A01D0900B01E0900C01F0900D010C
S1130E1000910E0110910F012A2D3B2D4C2D5D2DBB
S1130E206E2D7F2D802F912FA0E0FDD131F1232D48
S1130E30342D452D562D672D782D892D9B2FEAD1E4
S1130E40E0F01092120181E08093110181E280931D
S1130E50160113C08B81811110C0109208011092E9
S1130E60090110920A0110920B0110920C011092C8
S1130E700D0110920E0110920F018C81882389F1CB
S1130E801092120110921101232D342D452D562D4F
S1130E90672D782D892D9B2F28513C4F4F4F5F4F45
S1130EA06F4F7F4F8F4F9F4F20930001309301016D
S1130EB04093020150930301609304017093050170
S1130EC0809306019093070181E08093140182E2EC
S1130ED080931601809113018111BEC083EE90E0CE
S1130EE0B2C08B81811116C01092120110921101AF
S1130EF0109208011092090110920A0110920B013C
S1130F0010920C0110920D0110920E0110920F011B
S1130F108B8189C080911001811120C0232D342D33
S1130F20452D562D672D782D892D9B2F2C503E4F06
S1130F304F4F5F4F6F4F7F4F8F4F9F4F209308014D
S1130F403093090140930A0150930B0160930C0103
S1130F5070930D0180930E0190930F018B81882370
S1130F6009F461C0A0900801B0900901C0900A0181
S1130F70D0900B01E0900C01F0900D0100910E0156
S1130F8010910F012A2D3B2D4C2D5D2D6E2D7F2DA3
S1130F90802F912FA0E047D109F445C0232D342D93
S1130FA0452D562D672D782D892D9B2F33D1D8F1C2
S1130FB01092120181E08093110135C0A0900001CC
S1130FC0B0900101C0900201D0900301E0900401AF
S1130FD0F09005010091060110910701232D342D95
S1130FE0452D562D672D782D892D9B2F13D138F043
S1130FF0109214018E81811105C083EC1BC08E8177
S1131000882389F0109214011092150183E28093D1
S1131010160183EC0FC08B81811105C0109216015B
S113102002C01092160180911401882311F083EEFE
S113103001C083EC90911301911104C004C083ECAE
S113104090E101C090E1892B90911201911107C0A8
S113105007C083EE98E004C083EF90E001C098E0FD
S1131060892B90911101911194E0892B9091150194
S1131070911102C027EF01C02FEF9FB79887F89412
S1131080988585B928B98FEF8BB99FBF8B818093E1
S1131090100103C083EC90E0D6CF29960FB6F894E4
S11310A0DEBF0FBECDBFDF91CF911F910F91FF9097
S11310B0EF90DF90CF90BF90AF909F908F907F90F4
S11310C06F905F904F903F900895880F816083BF29
S11310D0889583B78E7F83BF0895CF93DF931F9244
S11310E0CDB7DEB78CE384B983EC85B988E287B9E0
S11310F087EF88B982E08AB98FEF8BB987E0809354
S11311007E0047D08BEE8093640068E080E05AD084
S113111081E08093800091E190938100109285009A
S1131120109284009FE09093890090EA9093880045
S113113097E296BB80936F002BD084B780932001F5
S1131140982F977011F4811116C08FB78983F89482
S11311508981109221011092220110922301109290
S11311602401109225011092260110922701109259
S113117028018FBF02C00E9474008FEF63DB789454
S113118081E080931F0139DB67DB80E09EDFFBCFCA
S11311900895CF93DF931F92CDB7DEB78FEF80937F
S11311A064008FB78983F89489815F9350E85093E2
S11311B0610050E0509361005F918FBF0F90DF9109
S11311C0CF910895CF93DF931F92CDB7DEB79FB72A
S11311D09983F8949981811106C0E4E6F0E0609562
S11311E08081682360839FBF0F90DF91CF91089522
S11311F0EE0FFF1F0590F491E02D09940024A7FD44
S113120000942A0F301D401D501D601D701D801D4F
S1131210901D08952A153B054C055D056E057F0557
S11312208007910708950024A7FD00942A1730052C
S11312304005500560057005800590050895F999ED
S1131240FECF92BD81BDF89A992780B50895262FC7
S1131250F999FECF1FBA92BD81BD20BD0FB6F89497
S1111260FA9AF99A0FBE01960895F894FFCFFA
S9030000FC
